{
  "_format": "hh-sol-artifact-1",
  "contractName": "Registration",
  "sourceName": "contracts/Registration.sol",
  "abi": [
    {
      "anonymous": false,
      "inputs": [
        {
          "indexed": false,
          "internalType": "address",
          "name": "stakeholder",
          "type": "address"
        },
        {
          "indexed": false,
          "internalType": "string",
          "name": "role",
          "type": "string"
        }
      ],
      "name": "StakeholderRegistered",
      "type": "event"
    },
    {
      "inputs": [
        {
          "internalType": "address",
          "name": "_stakeholderAddress",
          "type": "address"
        }
      ],
      "name": "getStakeholderDetails",
      "outputs": [
        {
          "internalType": "string",
          "name": "role",
          "type": "string"
        },
        {
          "internalType": "bool",
          "name": "registered",
          "type": "bool"
        }
      ],
      "stateMutability": "view",
      "type": "function"
    },
    {
      "inputs": [],
      "name": "getStakeholders",
      "outputs": [
        {
          "internalType": "address[]",
          "name": "",
          "type": "address[]"
        }
      ],
      "stateMutability": "view",
      "type": "function"
    },
    {
      "inputs": [
        {
          "internalType": "address",
          "name": "_stakeholderAddress",
          "type": "address"
        }
      ],
      "name": "isRegistered",
      "outputs": [
        {
          "internalType": "bool",
          "name": "",
          "type": "bool"
        }
      ],
      "stateMutability": "view",
      "type": "function"
    },
    {
      "inputs": [
        {
          "internalType": "address",
          "name": "_stakeholderAddress",
          "type": "address"
        },
        {
          "internalType": "string",
          "name": "_role",
          "type": "string"
        }
      ],
      "name": "registerStakeholder",
      "outputs": [],
      "stateMutability": "nonpayable",
      "type": "function"
    },
    {
      "inputs": [
        {
          "internalType": "uint256",
          "name": "",
          "type": "uint256"
        }
      ],
      "name": "stakeholderList",
      "outputs": [
        {
          "internalType": "address",
          "name": "",
          "type": "address"
        }
      ],
      "stateMutability": "view",
      "type": "function"
    },
    {
      "inputs": [
        {
          "internalType": "address",
          "name": "",
          "type": "address"
        }
      ],
      "name": "stakeholders",
      "outputs": [
        {
          "internalType": "address",
          "name": "stakeholderAddress",
          "type": "address"
        },
        {
          "internalType": "string",
          "name": "role",
          "type": "string"
        },
        {
          "internalType": "bool",
          "name": "isRegistered",
          "type": "bool"
        }
      ],
      "stateMutability": "view",
      "type": "function"
    }
  ],
  "bytecode": "0x608060405260405180608001604052806040518060400160405280600e81526020017f504841524d415f434f4d50414e5900000000000000000000000000000000000081525081526020016040518060400160405280600c81526020017f4d414e554641435455524552000000000000000000000000000000000000000081525081526020016040518060400160405280600881526020017f52455441494c455200000000000000000000000000000000000000000000000081525081526020016040518060400160405280600881526020017f454e445f5553455200000000000000000000000000000000000000000000000081525081525060029060046200010b92919062000120565b503480156200011957600080fd5b506200056e565b8280548282559060005260206000209081019282156200016d579160200282015b828111156200016c5782518290816200015b919062000487565b509160200191906001019062000141565b5b5090506200017c919062000180565b5090565b5b80821115620001a457600081816200019a9190620001a8565b5060010162000181565b5090565b508054620001b69062000276565b6000825580601f10620001ca5750620001eb565b601f016020900490600052602060002090810190620001ea9190620001ee565b5b50565b5b8082111562000209576000816000905550600101620001ef565b5090565b600081519050919050565b7f4e487b7100000000000000000000000000000000000000000000000000000000600052604160045260246000fd5b7f4e487b7100000000000000000000000000000000000000000000000000000000600052602260045260246000fd5b600060028204905060018216806200028f57607f821691505b602082108103620002a557620002a462000247565b5b50919050565b60008190508160005260206000209050919050565b60006020601f8301049050919050565b600082821b905092915050565b6000600883026200030f7fffffffffffffffffffffffffffffffffffffffffffffffffffffffffffffffff82620002d0565b6200031b8683620002d0565b95508019841693508086168417925050509392505050565b6000819050919050565b6000819050919050565b600062000368620003626200035c8462000333565b6200033d565b62000333565b9050919050565b6000819050919050565b620003848362000347565b6200039c62000393826200036f565b848454620002dd565b825550505050565b600090565b620003b3620003a4565b620003c081848462000379565b505050565b5b81811015620003e857620003dc600082620003a9565b600181019050620003c6565b5050565b601f82111562000437576200040181620002ab565b6200040c84620002c0565b810160208510156200041c578190505b620004346200042b85620002c0565b830182620003c5565b50505b505050565b600082821c905092915050565b60006200045c600019846008026200043c565b1980831691505092915050565b600062000477838362000449565b9150826002028217905092915050565b62000492826200020d565b67ffffffffffffffff811115620004ae57620004ad62000218565b5b620004ba825462000276565b620004c7828285620003ec565b600060209050601f831160018114620004ff5760008415620004ea578287015190505b620004f6858262000469565b86555062000566565b601f1984166200050f86620002ab565b60005b82811015620005395784890151825560018201915060208501945060208101905062000512565b8683101562000559578489015162000555601f89168262000449565b8355505b6001600288020188555050505b505050505050565b61131d806200057e6000396000f3fe608060405234801561001057600080fd5b50600436106100625760003560e01c8063ae51cef914610067578063b699224714610098578063c07cfca9146100b6578063c3c5a547146100e8578063ca35918d14610118578063e320f57614610134575b600080fd5b610081600480360381019061007c91906108a3565b610164565b60405161008f92919061097b565b60405180910390f35b6100a061031b565b6040516100ad9190610a69565b60405180910390f35b6100d060048036038101906100cb91906108a3565b6103a9565b6040516100df93929190610a9a565b60405180910390f35b61010260048036038101906100fd91906108a3565b610488565b60405161010f9190610ad8565b60405180910390f35b610132600480360381019061012d9190610c28565b6104e0565b005b61014e60048036038101906101499190610cba565b610749565b60405161015b9190610ce7565b60405180910390f35b606060008060008473ffffffffffffffffffffffffffffffffffffffff1673ffffffffffffffffffffffffffffffffffffffff16815260200190815260200160002060020160009054906101000a900460ff166101f6576040517f08c379a00000000000000000000000000000000000000000000000000000000081526004016101ed90610d4e565b60405180910390fd5b6000808473ffffffffffffffffffffffffffffffffffffffff1673ffffffffffffffffffffffffffffffffffffffff1681526020019081526020016000206001016000808573ffffffffffffffffffffffffffffffffffffffff1673ffffffffffffffffffffffffffffffffffffffff16815260200190815260200160002060020160009054906101000a900460ff1681805461029290610d9d565b80601f01602080910402602001604051908101604052809291908181526020018280546102be90610d9d565b801561030b5780601f106102e05761010080835404028352916020019161030b565b820191906000526020600020905b8154815290600101906020018083116102ee57829003601f168201915b5050505050915091509150915091565b6060600180548060200260200160405190810160405280929190818152602001828054801561039f57602002820191906000526020600020905b8160009054906101000a900473ffffffffffffffffffffffffffffffffffffffff1673ffffffffffffffffffffffffffffffffffffffff1681526020019060010190808311610355575b5050505050905090565b60006020528060005260406000206000915090508060000160009054906101000a900473ffffffffffffffffffffffffffffffffffffffff16908060010180546103f290610d9d565b80601f016020809104026020016040519081016040528092919081815260200182805461041e90610d9d565b801561046b5780601f106104405761010080835404028352916020019161046b565b820191906000526020600020905b81548152906001019060200180831161044e57829003601f168201915b5050505050908060020160009054906101000a900460ff16905083565b60008060008373ffffffffffffffffffffffffffffffffffffffff1673ffffffffffffffffffffffffffffffffffffffff16815260200190815260200160002060020160009054906101000a900460ff169050919050565b6000808373ffffffffffffffffffffffffffffffffffffffff1673ffffffffffffffffffffffffffffffffffffffff16815260200190815260200160002060020160009054906101000a900460ff161561056f576040517f08c379a000000000000000000000000000000000000000000000000000000000815260040161056690610e1a565b60405180910390fd5b61057881610788565b6105b7576040517f08c379a00000000000000000000000000000000000000000000000000000000081526004016105ae90610e86565b60405180910390fd5b60405180606001604052808373ffffffffffffffffffffffffffffffffffffffff168152602001828152602001600115158152506000808473ffffffffffffffffffffffffffffffffffffffff1673ffffffffffffffffffffffffffffffffffffffff16815260200190815260200160002060008201518160000160006101000a81548173ffffffffffffffffffffffffffffffffffffffff021916908373ffffffffffffffffffffffffffffffffffffffff16021790555060208201518160010190816106859190611052565b5060408201518160020160006101000a81548160ff0219169083151502179055509050506001829080600181540180825580915050600190039060005260206000200160009091909190916101000a81548173ffffffffffffffffffffffffffffffffffffffff021916908373ffffffffffffffffffffffffffffffffffffffff1602179055507ffb8c88632fd72badcd6d52fac5bfb4fadcb7c7eec796b3ade03fb0c48c82e42c828260405161073d929190611124565b60405180910390a15050565b6001818154811061075957600080fd5b906000526020600020016000915054906101000a900473ffffffffffffffffffffffffffffffffffffffff1681565b600080600090505b600481101561082657826040516020016107aa9190611190565b60405160208183030381529060405280519060200120600282815481106107d4576107d36111a7565b5b906000526020600020016040516020016107ee9190611259565b604051602081830303815290604052805190602001200361081357600191505061082c565b808061081e9061129f565b915050610790565b50600090505b919050565b6000604051905090565b600080fd5b600080fd5b600073ffffffffffffffffffffffffffffffffffffffff82169050919050565b600061087082610845565b9050919050565b61088081610865565b811461088b57600080fd5b50565b60008135905061089d81610877565b92915050565b6000602082840312156108b9576108b861083b565b5b60006108c78482850161088e565b91505092915050565b600081519050919050565b600082825260208201905092915050565b60005b8381101561090a5780820151818401526020810190506108ef565b60008484015250505050565b6000601f19601f8301169050919050565b6000610932826108d0565b61093c81856108db565b935061094c8185602086016108ec565b61095581610916565b840191505092915050565b60008115159050919050565b61097581610960565b82525050565b600060408201905081810360008301526109958185610927565b90506109a4602083018461096c565b9392505050565b600081519050919050565b600082825260208201905092915050565b6000819050602082019050919050565b6109e081610865565b82525050565b60006109f283836109d7565b60208301905092915050565b6000602082019050919050565b6000610a16826109ab565b610a2081856109b6565b9350610a2b836109c7565b8060005b83811015610a5c578151610a4388826109e6565b9750610a4e836109fe565b925050600181019050610a2f565b5085935050505092915050565b60006020820190508181036000830152610a838184610a0b565b905092915050565b610a9481610865565b82525050565b6000606082019050610aaf6000830186610a8b565b8181036020830152610ac18185610927565b9050610ad0604083018461096c565b949350505050565b6000602082019050610aed600083018461096c565b92915050565b600080fd5b600080fd5b7f4e487b7100000000000000000000000000000000000000000000000000000000600052604160045260246000fd5b610b3582610916565b810181811067ffffffffffffffff82111715610b5457610b53610afd565b5b80604052505050565b6000610b67610831565b9050610b738282610b2c565b919050565b600067ffffffffffffffff821115610b9357610b92610afd565b5b610b9c82610916565b9050602081019050919050565b82818337600083830152505050565b6000610bcb610bc684610b78565b610b5d565b905082815260208101848484011115610be757610be6610af8565b5b610bf2848285610ba9565b509392505050565b600082601f830112610c0f57610c0e610af3565b5b8135610c1f848260208601610bb8565b91505092915050565b60008060408385031215610c3f57610c3e61083b565b5b6000610c4d8582860161088e565b925050602083013567ffffffffffffffff811115610c6e57610c6d610840565b5b610c7a85828601610bfa565b9150509250929050565b6000819050919050565b610c9781610c84565b8114610ca257600080fd5b50565b600081359050610cb481610c8e565b92915050565b600060208284031215610cd057610ccf61083b565b5b6000610cde84828501610ca5565b91505092915050565b6000602082019050610cfc6000830184610a8b565b92915050565b7f5374616b65686f6c646572206e6f7420666f756e640000000000000000000000600082015250565b6000610d386015836108db565b9150610d4382610d02565b602082019050919050565b60006020820190508181036000830152610d6781610d2b565b9050919050565b7f4e487b7100000000000000000000000000000000000000000000000000000000600052602260045260246000fd5b60006002820490506001821680610db557607f821691505b602082108103610dc857610dc7610d6e565b5b50919050565b7f416c726561647920726567697374657265640000000000000000000000000000600082015250565b6000610e046012836108db565b9150610e0f82610dce565b602082019050919050565b60006020820190508181036000830152610e3381610df7565b9050919050565b7f496e76616c696420726f6c650000000000000000000000000000000000000000600082015250565b6000610e70600c836108db565b9150610e7b82610e3a565b602082019050919050565b60006020820190508181036000830152610e9f81610e63565b9050919050565b60008190508160005260206000209050919050565b60006020601f8301049050919050565b600082821b905092915050565b600060088302610f087fffffffffffffffffffffffffffffffffffffffffffffffffffffffffffffffff82610ecb565b610f128683610ecb565b95508019841693508086168417925050509392505050565b6000819050919050565b6000610f4f610f4a610f4584610c84565b610f2a565b610c84565b9050919050565b6000819050919050565b610f6983610f34565b610f7d610f7582610f56565b848454610ed8565b825550505050565b600090565b610f92610f85565b610f9d818484610f60565b505050565b5b81811015610fc157610fb6600082610f8a565b600181019050610fa3565b5050565b601f82111561100657610fd781610ea6565b610fe084610ebb565b81016020851015610fef578190505b611003610ffb85610ebb565b830182610fa2565b50505b505050565b600082821c905092915050565b60006110296000198460080261100b565b1980831691505092915050565b60006110428383611018565b9150826002028217905092915050565b61105b826108d0565b67ffffffffffffffff81111561107457611073610afd565b5b61107e8254610d9d565b611089828285610fc5565b600060209050601f8311600181146110bc57600084156110aa578287015190505b6110b48582611036565b86555061111c565b601f1984166110ca86610ea6565b60005b828110156110f2578489015182556001820191506020850194506020810190506110cd565b8683101561110f578489015161110b601f891682611018565b8355505b6001600288020188555050505b505050505050565b60006040820190506111396000830185610a8b565b818103602083015261114b8184610927565b90509392505050565b600081905092915050565b600061116a826108d0565b6111748185611154565b93506111848185602086016108ec565b80840191505092915050565b600061119c828461115f565b915081905092915050565b7f4e487b7100000000000000000000000000000000000000000000000000000000600052603260045260246000fd5b600081546111e381610d9d565b6111ed8186611154565b94506001821660008114611208576001811461121d57611250565b60ff1983168652811515820286019350611250565b61122685610ea6565b60005b8381101561124857815481890152600182019150602081019050611229565b838801955050505b50505092915050565b600061126582846111d6565b915081905092915050565b7f4e487b7100000000000000000000000000000000000000000000000000000000600052601160045260246000fd5b60006112aa82610c84565b91507fffffffffffffffffffffffffffffffffffffffffffffffffffffffffffffffff82036112dc576112db611270565b5b60018201905091905056fea2646970667358221220fe2c5c3f6b63d0fdc9f8db558de31e3dd96f5653309c44baf72f98299956ccfe64736f6c63430008140033",
  "linkReferences": {},
  "deployedLinkReferences": {}
}