{
  "_format": "hh-sol-artifact-1",
  "contractName": "EventLogging",
  "sourceName": "contracts/EventLogging.sol",
  "abi": [
    {
      "anonymous": false,
      "inputs": [
        {
          "indexed": false,
          "internalType": "string",
          "name": "batchOrSerialId",
          "type": "string"
        },
        {
          "indexed": false,
          "internalType": "string",
          "name": "eventType",
          "type": "string"
        },
        {
          "indexed": true,
          "internalType": "address",
          "name": "eventOwner",
          "type": "address"
        },
        {
          "indexed": false,
          "internalType": "uint256",
          "name": "timestamp",
          "type": "uint256"
        },
        {
          "indexed": false,
          "internalType": "string",
          "name": "details",
          "type": "string"
        },
        {
          "indexed": false,
          "internalType": "uint256",
          "name": "supplyNumber",
          "type": "uint256"
        }
      ],
      "name": "EventLogged",
      "type": "event"
    },
    {
      "inputs": [
        {
          "internalType": "string",
          "name": "",
          "type": "string"
        },
        {
          "internalType": "uint256",
          "name": "",
          "type": "uint256"
        }
      ],
      "name": "eventsLog",
      "outputs": [
        {
          "internalType": "string",
          "name": "batchOrSerialId",
          "type": "string"
        },
        {
          "internalType": "string",
          "name": "eventType",
          "type": "string"
        },
        {
          "internalType": "address",
          "name": "eventOwner",
          "type": "address"
        },
        {
          "internalType": "uint256",
          "name": "timestamp",
          "type": "uint256"
        },
        {
          "internalType": "string",
          "name": "details",
          "type": "string"
        },
        {
          "internalType": "uint256",
          "name": "supplyNumber",
          "type": "uint256"
        }
      ],
      "stateMutability": "view",
      "type": "function"
    },
    {
      "inputs": [
        {
          "internalType": "string",
          "name": "_batchOrSerialId",
          "type": "string"
        }
      ],
      "name": "getEvents",
      "outputs": [
        {
          "components": [
            {
              "internalType": "string",
              "name": "batchOrSerialId",
              "type": "string"
            },
            {
              "internalType": "string",
              "name": "eventType",
              "type": "string"
            },
            {
              "internalType": "address",
              "name": "eventOwner",
              "type": "address"
            },
            {
              "internalType": "uint256",
              "name": "timestamp",
              "type": "uint256"
            },
            {
              "internalType": "string",
              "name": "details",
              "type": "string"
            },
            {
              "internalType": "uint256",
              "name": "supplyNumber",
              "type": "uint256"
            }
          ],
          "internalType": "struct EventLogging.Event[]",
          "name": "",
          "type": "tuple[]"
        }
      ],
      "stateMutability": "view",
      "type": "function"
    },
    {
      "inputs": [
        {
          "internalType": "string",
          "name": "_batchOrSerialId",
          "type": "string"
        },
        {
          "internalType": "string",
          "name": "_eventType",
          "type": "string"
        },
        {
          "internalType": "string",
          "name": "_details",
          "type": "string"
        },
        {
          "internalType": "uint256",
          "name": "_supplyNumber",
          "type": "uint256"
        }
      ],
      "name": "logEvent",
      "outputs": [],
      "stateMutability": "nonpayable",
      "type": "function"
    }
  ],
  "bytecode": "0x608060405234801561001057600080fd5b506110fd806100206000396000f3fe608060405234801561001057600080fd5b50600436106100415760003560e01c806389398db714610046578063999b74331461007b578063f80e1a3c14610097575b600080fd5b610060600480360381019061005b91906108a6565b6100c7565b604051610072969594939291906109d1565b60405180910390f35b61009560048036038101906100909190610a47565b6102ee565b005b6100b160048036038101906100ac9190610b02565b610479565b6040516100be9190610d0c565b60405180910390f35b60008280516020810182018051848252602083016020850120818352809550505050505081815481106100f957600080fd5b90600052602060002090600602016000915091505080600001805461011d90610d5d565b80601f016020809104026020016040519081016040528092919081815260200182805461014990610d5d565b80156101965780601f1061016b57610100808354040283529160200191610196565b820191906000526020600020905b81548152906001019060200180831161017957829003601f168201915b5050505050908060010180546101ab90610d5d565b80601f01602080910402602001604051908101604052809291908181526020018280546101d790610d5d565b80156102245780601f106101f957610100808354040283529160200191610224565b820191906000526020600020905b81548152906001019060200180831161020757829003601f168201915b5050505050908060020160009054906101000a900473ffffffffffffffffffffffffffffffffffffffff169080600301549080600401805461026590610d5d565b80601f016020809104026020016040519081016040528092919081815260200182805461029190610d5d565b80156102de5780601f106102b3576101008083540402835291602001916102de565b820191906000526020600020905b8154815290600101906020018083116102c157829003601f168201915b5050505050908060050154905086565b60006040518060c001604052808681526020018581526020013373ffffffffffffffffffffffffffffffffffffffff1681526020014281526020018481526020018381525090506000856040516103459190610dca565b908152602001604051809103902081908060018154018082558091505060019003906000526020600020906006020160009091909190915060008201518160000190816103929190610f8d565b5060208201518160010190816103a89190610f8d565b5060408201518160020160006101000a81548173ffffffffffffffffffffffffffffffffffffffff021916908373ffffffffffffffffffffffffffffffffffffffff16021790555060608201518160030155608082015181600401908161040f9190610f8d565b5060a0820151816005015550503373ffffffffffffffffffffffffffffffffffffffff167f7baa35a8f6881e436f506974defa03282f2a96e92681f2af3a3ca75bd99c2acc868642878760405161046a95949392919061105f565b60405180910390a25050505050565b606060008260405161048b9190610dca565b9081526020016040518091039020805480602002602001604051908101604052809291908181526020016000905b8282101561070b57838290600052602060002090600602016040518060c00160405290816000820180546104ec90610d5d565b80601f016020809104026020016040519081016040528092919081815260200182805461051890610d5d565b80156105655780601f1061053a57610100808354040283529160200191610565565b820191906000526020600020905b81548152906001019060200180831161054857829003601f168201915b5050505050815260200160018201805461057e90610d5d565b80601f01602080910402602001604051908101604052809291908181526020018280546105aa90610d5d565b80156105f75780601f106105cc576101008083540402835291602001916105f7565b820191906000526020600020905b8154815290600101906020018083116105da57829003601f168201915b505050505081526020016002820160009054906101000a900473ffffffffffffffffffffffffffffffffffffffff1673ffffffffffffffffffffffffffffffffffffffff1673ffffffffffffffffffffffffffffffffffffffff1681526020016003820154815260200160048201805461067090610d5d565b80601f016020809104026020016040519081016040528092919081815260200182805461069c90610d5d565b80156106e95780601f106106be576101008083540402835291602001916106e9565b820191906000526020600020905b8154815290600101906020018083116106cc57829003601f168201915b50505050508152602001600582015481525050815260200190600101906104b9565b505050509050919050565b6000604051905090565b600080fd5b600080fd5b600080fd5b600080fd5b6000601f19601f8301169050919050565b7f4e487b7100000000000000000000000000000000000000000000000000000000600052604160045260246000fd5b61077d82610734565b810181811067ffffffffffffffff8211171561079c5761079b610745565b5b80604052505050565b60006107af610716565b90506107bb8282610774565b919050565b600067ffffffffffffffff8211156107db576107da610745565b5b6107e482610734565b9050602081019050919050565b82818337600083830152505050565b600061081361080e846107c0565b6107a5565b90508281526020810184848401111561082f5761082e61072f565b5b61083a8482856107f1565b509392505050565b600082601f8301126108575761085661072a565b5b8135610867848260208601610800565b91505092915050565b6000819050919050565b61088381610870565b811461088e57600080fd5b50565b6000813590506108a08161087a565b92915050565b600080604083850312156108bd576108bc610720565b5b600083013567ffffffffffffffff8111156108db576108da610725565b5b6108e785828601610842565b92505060206108f885828601610891565b9150509250929050565b600081519050919050565b600082825260208201905092915050565b60005b8381101561093c578082015181840152602081019050610921565b60008484015250505050565b600061095382610902565b61095d818561090d565b935061096d81856020860161091e565b61097681610734565b840191505092915050565b600073ffffffffffffffffffffffffffffffffffffffff82169050919050565b60006109ac82610981565b9050919050565b6109bc816109a1565b82525050565b6109cb81610870565b82525050565b600060c08201905081810360008301526109eb8189610948565b905081810360208301526109ff8188610948565b9050610a0e60408301876109b3565b610a1b60608301866109c2565b8181036080830152610a2d8185610948565b9050610a3c60a08301846109c2565b979650505050505050565b60008060008060808587031215610a6157610a60610720565b5b600085013567ffffffffffffffff811115610a7f57610a7e610725565b5b610a8b87828801610842565b945050602085013567ffffffffffffffff811115610aac57610aab610725565b5b610ab887828801610842565b935050604085013567ffffffffffffffff811115610ad957610ad8610725565b5b610ae587828801610842565b9250506060610af687828801610891565b91505092959194509250565b600060208284031215610b1857610b17610720565b5b600082013567ffffffffffffffff811115610b3657610b35610725565b5b610b4284828501610842565b91505092915050565b600081519050919050565b600082825260208201905092915050565b6000819050602082019050919050565b600082825260208201905092915050565b6000610b9382610902565b610b9d8185610b77565b9350610bad81856020860161091e565b610bb681610734565b840191505092915050565b610bca816109a1565b82525050565b610bd981610870565b82525050565b600060c0830160008301518482036000860152610bfc8282610b88565b91505060208301518482036020860152610c168282610b88565b9150506040830151610c2b6040860182610bc1565b506060830151610c3e6060860182610bd0565b5060808301518482036080860152610c568282610b88565b91505060a0830151610c6b60a0860182610bd0565b508091505092915050565b6000610c828383610bdf565b905092915050565b6000602082019050919050565b6000610ca282610b4b565b610cac8185610b56565b935083602082028501610cbe85610b67565b8060005b85811015610cfa5784840389528151610cdb8582610c76565b9450610ce683610c8a565b925060208a01995050600181019050610cc2565b50829750879550505050505092915050565b60006020820190508181036000830152610d268184610c97565b905092915050565b7f4e487b7100000000000000000000000000000000000000000000000000000000600052602260045260246000fd5b60006002820490506001821680610d7557607f821691505b602082108103610d8857610d87610d2e565b5b50919050565b600081905092915050565b6000610da482610902565b610dae8185610d8e565b9350610dbe81856020860161091e565b80840191505092915050565b6000610dd68284610d99565b915081905092915050565b60008190508160005260206000209050919050565b60006020601f8301049050919050565b600082821b905092915050565b600060088302610e437fffffffffffffffffffffffffffffffffffffffffffffffffffffffffffffffff82610e06565b610e4d8683610e06565b95508019841693508086168417925050509392505050565b6000819050919050565b6000610e8a610e85610e8084610870565b610e65565b610870565b9050919050565b6000819050919050565b610ea483610e6f565b610eb8610eb082610e91565b848454610e13565b825550505050565b600090565b610ecd610ec0565b610ed8818484610e9b565b505050565b5b81811015610efc57610ef1600082610ec5565b600181019050610ede565b5050565b601f821115610f4157610f1281610de1565b610f1b84610df6565b81016020851015610f2a578190505b610f3e610f3685610df6565b830182610edd565b50505b505050565b600082821c905092915050565b6000610f6460001984600802610f46565b1980831691505092915050565b6000610f7d8383610f53565b9150826002028217905092915050565b610f9682610902565b67ffffffffffffffff811115610faf57610fae610745565b5b610fb98254610d5d565b610fc4828285610f00565b600060209050601f831160018114610ff75760008415610fe5578287015190505b610fef8582610f71565b865550611057565b601f19841661100586610de1565b60005b8281101561102d57848901518255600182019150602085019450602081019050611008565b8683101561104a5784890151611046601f891682610f53565b8355505b6001600288020188555050505b505050505050565b600060a08201905081810360008301526110798188610948565b9050818103602083015261108d8187610948565b905061109c60408301866109c2565b81810360608301526110ae8185610948565b90506110bd60808301846109c2565b969550505050505056fea2646970667358221220adc322285c31a4d2658ca300ac5ca9e641f890f90592eecd5d7b341f47af600364736f6c63430008140033",
  "linkReferences": {},
  "deployedLinkReferences": {}
}