{
  "contractName": "DrugVerification",
  "abi": [
    {
      "anonymous": false,
      "inputs": [
        {
          "indexed": false,
          "internalType": "string",
          "name": "batchId",
          "type": "string"
        },
        {
          "indexed": false,
          "internalType": "bool",
          "name": "isFlagged",
          "type": "bool"
        }
      ],
      "name": "BatchFlagged",
      "type": "event"
    },
    {
      "anonymous": false,
      "inputs": [
        {
          "indexed": false,
          "internalType": "string",
          "name": "batchId",
          "type": "string"
        },
        {
          "indexed": false,
          "internalType": "bool",
          "name": "isVerified",
          "type": "bool"
        }
      ],
      "name": "BatchVerified",
      "type": "event"
    },
    {
      "anonymous": false,
      "inputs": [
        {
          "indexed": false,
          "internalType": "string",
          "name": "serialNumber",
          "type": "string"
        },
        {
          "indexed": false,
          "internalType": "bool",
          "name": "isFlagged",
          "type": "bool"
        }
      ],
      "name": "DrugFlagged",
      "type": "event"
    },
    {
      "anonymous": false,
      "inputs": [
        {
          "indexed": false,
          "internalType": "string",
          "name": "batchId",
          "type": "string"
        },
        {
          "indexed": false,
          "internalType": "uint256",
          "name": "incorrectSupplyNumber",
          "type": "uint256"
        }
      ],
      "name": "SupplyNumberAlert",
      "type": "event"
    },
    {
      "inputs": [
        {
          "internalType": "string",
          "name": "",
          "type": "string"
        }
      ],
      "name": "flaggedBatches",
      "outputs": [
        {
          "internalType": "bool",
          "name": "",
          "type": "bool"
        }
      ],
      "stateMutability": "view",
      "type": "function"
    },
    {
      "inputs": [
        {
          "internalType": "string",
          "name": "",
          "type": "string"
        }
      ],
      "name": "flaggedDrugs",
      "outputs": [
        {
          "internalType": "bool",
          "name": "",
          "type": "bool"
        }
      ],
      "stateMutability": "view",
      "type": "function"
    },
    {
      "inputs": [
        {
          "internalType": "string",
          "name": "",
          "type": "string"
        }
      ],
      "name": "verifiedBatches",
      "outputs": [
        {
          "internalType": "bool",
          "name": "",
          "type": "bool"
        }
      ],
      "stateMutability": "view",
      "type": "function"
    },
    {
      "inputs": [
        {
          "internalType": "string",
          "name": "",
          "type": "string"
        }
      ],
      "name": "verifiedDrugs",
      "outputs": [
        {
          "internalType": "bool",
          "name": "",
          "type": "bool"
        }
      ],
      "stateMutability": "view",
      "type": "function"
    },
    {
      "inputs": [
        {
          "internalType": "string",
          "name": "_batchId",
          "type": "string"
        }
      ],
      "name": "verifyBatch",
      "outputs": [],
      "stateMutability": "nonpayable",
      "type": "function"
    },
    {
      "inputs": [
        {
          "internalType": "string",
          "name": "_batchId",
          "type": "string"
        }
      ],
      "name": "flagBatch",
      "outputs": [],
      "stateMutability": "nonpayable",
      "type": "function"
    },
    {
      "inputs": [
        {
          "internalType": "string",
          "name": "_serialNumber",
          "type": "string"
        }
      ],
      "name": "flagDrug",
      "outputs": [],
      "stateMutability": "nonpayable",
      "type": "function"
    },
    {
      "inputs": [
        {
          "internalType": "string",
          "name": "_batchId",
          "type": "string"
        }
      ],
      "name": "isBatchVerified",
      "outputs": [
        {
          "internalType": "bool",
          "name": "",
          "type": "bool"
        }
      ],
      "stateMutability": "view",
      "type": "function"
    },
    {
      "inputs": [
        {
          "internalType": "string",
          "name": "_batchId",
          "type": "string"
        }
      ],
      "name": "isBatchFlagged",
      "outputs": [
        {
          "internalType": "bool",
          "name": "",
          "type": "bool"
        }
      ],
      "stateMutability": "view",
      "type": "function"
    },
    {
      "inputs": [
        {
          "internalType": "string",
          "name": "_serialNumber",
          "type": "string"
        }
      ],
      "name": "isDrugFlagged",
      "outputs": [
        {
          "internalType": "bool",
          "name": "",
          "type": "bool"
        }
      ],
      "stateMutability": "view",
      "type": "function"
    },
    {
      "inputs": [
        {
          "internalType": "string",
          "name": "_batchId",
          "type": "string"
        },
        {
          "internalType": "uint256",
          "name": "_incorrectSupplyNumber",
          "type": "uint256"
        }
      ],
      "name": "alertSupplyNumberDiscrepancy",
      "outputs": [],
      "stateMutability": "nonpayable",
      "type": "function"
    }
  ],
  "bytecode": "0x608060405234801561001057600080fd5b50610c56806100206000396000f3fe608060405234801561001057600080fd5b50600436106100a95760003560e01c80639bcb939b116100715780639bcb939b1461019e578063af9c8da3146101ba578063b2721e0f146101d6578063bccb56a0146101f2578063e906dc4214610222578063ed0a71001461023e576100a9565b80633d127864146100ae5780633e2cefe5146100de5780634048e6d01461010e578063466997261461013e5780636fcde51d1461016e575b600080fd5b6100c860048036038101906100c3919061087a565b61026e565b6040516100d59190610a2e565b60405180910390f35b6100f860048036038101906100f3919061087a565b610343565b6040516101059190610a2e565b60405180910390f35b6101286004803603810190610123919061087a565b610379565b6040516101359190610a2e565b60405180910390f35b6101586004803603810190610153919061087a565b61044e565b6040516101659190610a2e565b60405180910390f35b6101886004803603810190610183919061087a565b610523565b6040516101959190610a2e565b60405180910390f35b6101b860048036038101906101b3919061087a565b610559565b005b6101d460048036038101906101cf91906108bb565b6105cc565b005b6101f060048036038101906101eb919061087a565b610609565b005b61020c6004803603810190610207919061087a565b61071d565b6040516102199190610a2e565b60405180910390f35b61023c6004803603810190610237919061087a565b610753565b005b6102586004803603810190610253919061087a565b6107c7565b6040516102659190610a2e565b60405180910390f35b6000816002816040516102819190610a17565b908152602001604051809103902060009054906101000a900460ff16806102d057506003816040516102b39190610a17565b908152602001604051809103902060009054906101000a900460ff165b61030f576040517f08c379a000000000000000000000000000000000000000000000000000000000815260040161030690610aa9565b60405180910390fd5b60038360405161031f9190610a17565b908152602001604051809103902060009054906101000a900460ff16915050919050565b6003818051602081018201805184825260208301602085012081835280955050505050506000915054906101000a900460ff1681565b60008160008160405161038c9190610a17565b908152602001604051809103902060009054906101000a900460ff16806103db57506001816040516103be9190610a17565b908152602001604051809103902060009054906101000a900460ff165b61041a576040517f08c379a000000000000000000000000000000000000000000000000000000000815260040161041190610ac9565b60405180910390fd5b60008360405161042a9190610a17565b908152602001604051809103902060009054906101000a900460ff16915050919050565b6000816000816040516104619190610a17565b908152602001604051809103902060009054906101000a900460ff16806104b057506001816040516104939190610a17565b908152602001604051809103902060009054906101000a900460ff165b6104ef576040517f08c379a00000000000000000000000000000000000000000000000000000000081526004016104e690610ac9565b60405180910390fd5b6001836040516104ff9190610a17565b908152602001604051809103902060009054906101000a900460ff16915050919050565b6000818051602081018201805184825260208301602085012081835280955050505050506000915054906101000a900460ff1681565b6001808260405161056a9190610a17565b908152602001604051809103902060006101000a81548160ff0219169083151502179055507f3f6f555b2a33cc75af5766fee6646ea4b5016b2726c3dd25594457b843448d308160016040516105c1929190610a49565b60405180910390a150565b7f19125b12f9152fb1dbc961776766cf947575362cabee477ec34eda0572f3c3c782826040516105fd929190610a79565b60405180910390a15050565b8060028160405161061a9190610a17565b908152602001604051809103902060009054906101000a900460ff1680610669575060038160405161064c9190610a17565b908152602001604051809103902060009054906101000a900460ff165b6106a8576040517f08c379a000000000000000000000000000000000000000000000000000000000815260040161069f90610aa9565b60405180910390fd5b60016003836040516106ba9190610a17565b908152602001604051809103902060006101000a81548160ff0219169083151502179055507fa11ec991167eea449b8e754aee3a548f625c870cdfb59ad0481edc5ff1ac12b5826001604051610711929190610a49565b60405180910390a15050565b6001818051602081018201805184825260208301602085012081835280955050505050506000915054906101000a900460ff1681565b60016000826040516107659190610a17565b908152602001604051809103902060006101000a81548160ff0219169083151502179055507f03597dc9f270e6a92ae04f0d2465d7df0ee3de0c944d5ab75be4403357d649498160016040516107bc929190610a49565b60405180910390a150565b6002818051602081018201805184825260208301602085012081835280955050505050506000915054906101000a900460ff1681565b600061081061080b84610b1a565b610ae9565b90508281526020810184848401111561082857600080fd5b610833848285610b87565b509392505050565b600082601f83011261084c57600080fd5b813561085c8482602086016107fd565b91505092915050565b60008135905061087481610c09565b92915050565b60006020828403121561088c57600080fd5b600082013567ffffffffffffffff8111156108a657600080fd5b6108b28482850161083b565b91505092915050565b600080604083850312156108ce57600080fd5b600083013567ffffffffffffffff8111156108e857600080fd5b6108f48582860161083b565b925050602061090585828601610865565b9150509250929050565b61091881610b71565b82525050565b600061092982610b4a565b6109338185610b55565b9350610943818560208601610b96565b61094c81610bf8565b840191505092915050565b600061096282610b4a565b61096c8185610b66565b935061097c818560208601610b96565b80840191505092915050565b6000610995600e83610b55565b91507f44727567206e6f7420666f756e640000000000000000000000000000000000006000830152602082019050919050565b60006109d5600f83610b55565b91507f4261746368206e6f7420666f756e6400000000000000000000000000000000006000830152602082019050919050565b610a1181610b7d565b82525050565b6000610a238284610957565b915081905092915050565b6000602082019050610a43600083018461090f565b92915050565b60006040820190508181036000830152610a63818561091e565b9050610a72602083018461090f565b9392505050565b60006040820190508181036000830152610a93818561091e565b9050610aa26020830184610a08565b9392505050565b60006020820190508181036000830152610ac281610988565b9050919050565b60006020820190508181036000830152610ae2816109c8565b9050919050565b6000604051905081810181811067ffffffffffffffff82111715610b1057610b0f610bc9565b5b8060405250919050565b600067ffffffffffffffff821115610b3557610b34610bc9565b5b601f19601f8301169050602081019050919050565b600081519050919050565b600082825260208201905092915050565b600081905092915050565b60008115159050919050565b6000819050919050565b82818337600083830152505050565b60005b83811015610bb4578082015181840152602081019050610b99565b83811115610bc3576000848401525b50505050565b7f4e487b7100000000000000000000000000000000000000000000000000000000600052604160045260246000fd5b6000601f19601f8301169050919050565b610c1281610b7d565b8114610c1d57600080fd5b5056fea2646970667358221220b053b8aa31f4a6b9fd91a99b9fa67519e1ab8dec2ec7dfa6d5396915f9ebe00164736f6c63430008000033",
  "immutableReferences": {},
  "source": "// SPDX-License-Identifier: MIT\npragma solidity ^0.8.0;\n\ncontract DrugVerification {\n    mapping(string => bool) public verifiedBatches;\n    mapping(string => bool) public flaggedBatches;\n    mapping(string => bool) public verifiedDrugs;\n    mapping(string => bool) public flaggedDrugs;\n\n    event BatchVerified(string batchId, bool isVerified);\n    event BatchFlagged(string batchId, bool isFlagged);\n    event DrugFlagged(string serialNumber, bool isFlagged);\n    event SupplyNumberAlert(string batchId, uint256 incorrectSupplyNumber);\n\n    modifier drugExists(string memory _serialNumber) {\n        require(verifiedDrugs[_serialNumber] || flaggedDrugs[_serialNumber], \"Drug not found\");\n        _;\n    }\n\n    modifier batchExists(string memory _batchId) {\n        require(verifiedBatches[_batchId] || flaggedBatches[_batchId], \"Batch not found\");\n        _;\n    }\n\n    function verifyBatch(string memory _batchId) public {\n        verifiedBatches[_batchId] = true;\n        emit BatchVerified(_batchId, true);\n    }\n\n    function flagBatch(string memory _batchId) public {\n        flaggedBatches[_batchId] = true;\n        emit BatchFlagged(_batchId, true);\n    }\n\n    function flagDrug(string memory _serialNumber) public drugExists(_serialNumber) {\n        flaggedDrugs[_serialNumber] = true;\n        emit DrugFlagged(_serialNumber, true);\n    }\n\n    function isBatchVerified(string memory _batchId) public view batchExists(_batchId) returns (bool) {\n        return verifiedBatches[_batchId];\n    }\n\n    function isBatchFlagged(string memory _batchId) public view batchExists(_batchId) returns (bool) {\n        return flaggedBatches[_batchId];\n    }\n\n    function isDrugFlagged(string memory _serialNumber) public view drugExists(_serialNumber) returns (bool) {\n        return flaggedDrugs[_serialNumber];\n    }\n\n    function alertSupplyNumberDiscrepancy(string memory _batchId, uint256 _incorrectSupplyNumber) public {\n        // Trigger an alert if there is a supply number discrepancy\n        emit SupplyNumberAlert(_batchId, _incorrectSupplyNumber);\n    }\n}",
  "sourcePath": "/Users/joana/Desktop/VeriPharma/contracts/Verification.sol",
  "compiler": {
    "name": "solc",
    "version": "0.8.0+commit.c7dfd78e.Emscripten.clang"
  },
  "schemaVersion": "3.4.16",
  "updatedAt": "2024-10-12T13:25:32.930Z",
  "devdoc": {
    "kind": "dev",
    "methods": {},
    "version": 1
  },
  "userdoc": {
    "kind": "user",
    "methods": {},
    "version": 1
  }
}