{
  "contractName": "DrugTracking",
  "abi": [
    {
      "anonymous": false,
      "inputs": [
        {
          "indexed": false,
          "internalType": "string",
          "name": "batchId",
          "type": "string"
        },
        {
          "indexed": true,
          "internalType": "address",
          "name": "manufacturer",
          "type": "address"
        },
        {
          "indexed": false,
          "internalType": "uint256",
          "name": "supplyNumber",
          "type": "uint256"
        }
      ],
      "name": "BatchCreated",
      "type": "event"
    },
    {
      "anonymous": false,
      "inputs": [
        {
          "indexed": false,
          "internalType": "string",
          "name": "batchId",
          "type": "string"
        }
      ],
      "name": "BatchMarkedFaulty",
      "type": "event"
    },
    {
      "anonymous": false,
      "inputs": [
        {
          "indexed": false,
          "internalType": "string",
          "name": "serialNumber",
          "type": "string"
        },
        {
          "indexed": false,
          "internalType": "string",
          "name": "batchId",
          "type": "string"
        },
        {
          "indexed": true,
          "internalType": "address",
          "name": "owner",
          "type": "address"
        }
      ],
      "name": "DrugCreated",
      "type": "event"
    },
    {
      "anonymous": false,
      "inputs": [
        {
          "indexed": false,
          "internalType": "string",
          "name": "serialNumber",
          "type": "string"
        },
        {
          "indexed": true,
          "internalType": "address",
          "name": "newOwner",
          "type": "address"
        }
      ],
      "name": "DrugTransferred",
      "type": "event"
    },
    {
      "anonymous": false,
      "inputs": [
        {
          "indexed": false,
          "internalType": "string",
          "name": "batchId",
          "type": "string"
        },
        {
          "indexed": false,
          "internalType": "uint256",
          "name": "incorrectSupplyNumber",
          "type": "uint256"
        }
      ],
      "name": "SupplyNumberAlert",
      "type": "event"
    },
    {
      "inputs": [
        {
          "internalType": "string",
          "name": "",
          "type": "string"
        },
        {
          "internalType": "uint256",
          "name": "",
          "type": "uint256"
        }
      ],
      "name": "batchToDrugs",
      "outputs": [
        {
          "internalType": "string",
          "name": "",
          "type": "string"
        }
      ],
      "stateMutability": "view",
      "type": "function"
    },
    {
      "inputs": [
        {
          "internalType": "string",
          "name": "",
          "type": "string"
        }
      ],
      "name": "batches",
      "outputs": [
        {
          "internalType": "string",
          "name": "batchId",
          "type": "string"
        },
        {
          "internalType": "bool",
          "name": "isFaulty",
          "type": "bool"
        },
        {
          "internalType": "uint256",
          "name": "supplyNumber",
          "type": "uint256"
        },
        {
          "internalType": "address",
          "name": "manufacturer",
          "type": "address"
        },
        {
          "internalType": "uint256",
          "name": "manufactureDate",
          "type": "uint256"
        },
        {
          "internalType": "uint256",
          "name": "expirationDate",
          "type": "uint256"
        }
      ],
      "stateMutability": "view",
      "type": "function"
    },
    {
      "inputs": [
        {
          "internalType": "string",
          "name": "",
          "type": "string"
        },
        {
          "internalType": "uint256",
          "name": "",
          "type": "uint256"
        }
      ],
      "name": "drugHistory",
      "outputs": [
        {
          "internalType": "address",
          "name": "",
          "type": "address"
        }
      ],
      "stateMutability": "view",
      "type": "function"
    },
    {
      "inputs": [
        {
          "internalType": "string",
          "name": "",
          "type": "string"
        }
      ],
      "name": "drugs",
      "outputs": [
        {
          "internalType": "string",
          "name": "serialNumber",
          "type": "string"
        },
        {
          "internalType": "string",
          "name": "batchId",
          "type": "string"
        },
        {
          "internalType": "address",
          "name": "currentOwner",
          "type": "address"
        },
        {
          "internalType": "bool",
          "name": "isVerified",
          "type": "bool"
        }
      ],
      "stateMutability": "view",
      "type": "function"
    },
    {
      "inputs": [
        {
          "internalType": "string",
          "name": "_batchId",
          "type": "string"
        },
        {
          "internalType": "uint256",
          "name": "_supplyNumber",
          "type": "uint256"
        },
        {
          "internalType": "uint256",
          "name": "_manufactureDate",
          "type": "uint256"
        },
        {
          "internalType": "uint256",
          "name": "_expirationDate",
          "type": "uint256"
        }
      ],
      "name": "createBatch",
      "outputs": [],
      "stateMutability": "nonpayable",
      "type": "function"
    },
    {
      "inputs": [
        {
          "internalType": "string",
          "name": "_serialNumber",
          "type": "string"
        },
        {
          "internalType": "string",
          "name": "_batchId",
          "type": "string"
        }
      ],
      "name": "createDrug",
      "outputs": [],
      "stateMutability": "nonpayable",
      "type": "function"
    },
    {
      "inputs": [
        {
          "internalType": "string",
          "name": "_serialNumber",
          "type": "string"
        },
        {
          "internalType": "address",
          "name": "_newOwner",
          "type": "address"
        },
        {
          "internalType": "uint256",
          "name": "_supplyNumber",
          "type": "uint256"
        }
      ],
      "name": "transferDrug",
      "outputs": [],
      "stateMutability": "nonpayable",
      "type": "function"
    },
    {
      "inputs": [
        {
          "internalType": "string",
          "name": "_batchId",
          "type": "string"
        }
      ],
      "name": "markBatchFaulty",
      "outputs": [],
      "stateMutability": "nonpayable",
      "type": "function"
    },
    {
      "inputs": [
        {
          "internalType": "string",
          "name": "_serialNumber",
          "type": "string"
        }
      ],
      "name": "getDrugDetails",
      "outputs": [
        {
          "internalType": "string",
          "name": "batchId",
          "type": "string"
        },
        {
          "internalType": "address",
          "name": "currentOwner",
          "type": "address"
        },
        {
          "internalType": "bool",
          "name": "isVerified",
          "type": "bool"
        },
        {
          "internalType": "bool",
          "name": "isBatchFaulty",
          "type": "bool"
        },
        {
          "internalType": "uint256",
          "name": "supplyNumber",
          "type": "uint256"
        }
      ],
      "stateMutability": "view",
      "type": "function"
    },
    {
      "inputs": [
        {
          "internalType": "string",
          "name": "_serialNumber",
          "type": "string"
        }
      ],
      "name": "getDrugHistory",
      "outputs": [
        {
          "internalType": "address[]",
          "name": "",
          "type": "address[]"
        }
      ],
      "stateMutability": "view",
      "type": "function"
    },
    {
      "inputs": [
        {
          "internalType": "string",
          "name": "_serialNumber",
          "type": "string"
        }
      ],
      "name": "verifyDrug",
      "outputs": [],
      "stateMutability": "nonpayable",
      "type": "function"
    }
  ],
  "bytecode": "0x608060405234801561001057600080fd5b5061260e806100206000396000f3fe608060405234801561001057600080fd5b50600436106100a95760003560e01c80636dfefdab116100715780636dfefdab1461018e5780637ef1446a146101aa578063a1c1743b146101df578063ad896f97146101fb578063b009493d14610217578063e40f874c1461024a576100a9565b80631a197688146100ae5780633b7b0a74146100de5780633f4ebcd1146100fa578063567e96361461012a578063624926c51461015e575b600080fd5b6100c860048036038101906100c39190611c2e565b610266565b6040516100d591906120c3565b60405180910390f35b6100f860048036038101906100f39190611b1a565b610335565b005b610114600480360381019061010f9190611c2e565b610424565b6040516101219190612086565b60405180910390f35b610144600480360381019061013f9190611b1a565b610488565b6040516101559594939291906120e5565b60405180910390f35b61017860048036038101906101739190611b1a565b610912565b60405161018591906120a1565b60405180910390f35b6101a860048036038101906101a39190611b1a565b610a71565b005b6101c460048036038101906101bf9190611b1a565b610d00565b6040516101d69695949392919061213f565b60405180910390f35b6101f960048036038101906101f49190611c82565b610e07565b005b61021560048036038101906102109190611b5b565b611016565b005b610231600480360381019061022c9190611b1a565b611428565b60405161024194939291906121de565b60405180910390f35b610264600480360381019061025f9190611bc2565b6115ab565b005b600282805160208101820180518482526020830160208501208183528095505050505050818154811061029857600080fd5b906000526020600020016000915091505080546102b490612491565b80601f01602080910402602001604051908101604052809291908181526020018280546102e090612491565b801561032d5780601f106103025761010080835404028352916020019161032d565b820191906000526020600020905b81548152906001019060200180831161031057829003601f168201915b505050505081565b80600073ffffffffffffffffffffffffffffffffffffffff1660018260405161035e9190612058565b908152602001604051809103902060020160009054906101000a900473ffffffffffffffffffffffffffffffffffffffff1673ffffffffffffffffffffffffffffffffffffffff1614156103e7576040517f08c379a00000000000000000000000000000000000000000000000000000000081526004016103de90612311565b60405180910390fd5b600180836040516103f89190612058565b908152602001604051809103902060040160006101000a81548160ff0219169083151502179055505050565b600382805160208101820180518482526020830160208501208183528095505050505050818154811061045657600080fd5b906000526020600020016000915091509054906101000a900473ffffffffffffffffffffffffffffffffffffffff1681565b606060008060008085600073ffffffffffffffffffffffffffffffffffffffff166001826040516104b99190612058565b908152602001604051809103902060020160009054906101000a900473ffffffffffffffffffffffffffffffffffffffff1673ffffffffffffffffffffffffffffffffffffffff161415610542576040517f08c379a000000000000000000000000000000000000000000000000000000000815260040161053990612311565b60405180910390fd5b60006001886040516105549190612058565b90815260200160405180910390206040518060a001604052908160008201805461057d90612491565b80601f01602080910402602001604051908101604052809291908181526020018280546105a990612491565b80156105f65780601f106105cb576101008083540402835291602001916105f6565b820191906000526020600020905b8154815290600101906020018083116105d957829003601f168201915b5050505050815260200160018201805461060f90612491565b80601f016020809104026020016040519081016040528092919081815260200182805461063b90612491565b80156106885780601f1061065d57610100808354040283529160200191610688565b820191906000526020600020905b81548152906001019060200180831161066b57829003601f168201915b505050505081526020016002820160009054906101000a900473ffffffffffffffffffffffffffffffffffffffff1673ffffffffffffffffffffffffffffffffffffffff1673ffffffffffffffffffffffffffffffffffffffff1681526020016003820180548060200260200160405190810160405280929190818152602001828054801561076c57602002820191906000526020600020905b8160009054906101000a900473ffffffffffffffffffffffffffffffffffffffff1673ffffffffffffffffffffffffffffffffffffffff1681526020019060010190808311610722575b505050505081526020016004820160009054906101000a900460ff161515151581525050905060008082602001516040516107a79190612058565b90815260200160405180910390206040518060c00160405290816000820180546107d090612491565b80601f01602080910402602001604051908101604052809291908181526020018280546107fc90612491565b80156108495780601f1061081e57610100808354040283529160200191610849565b820191906000526020600020905b81548152906001019060200180831161082c57829003601f168201915b505050505081526020016001820160009054906101000a900460ff16151515158152602001600282015481526020016003820160009054906101000a900473ffffffffffffffffffffffffffffffffffffffff1673ffffffffffffffffffffffffffffffffffffffff1673ffffffffffffffffffffffffffffffffffffffff168152602001600482015481526020016005820154815250509050816020015182604001518360800151836020015184604001519750975097509750975050505091939590929450565b606081600073ffffffffffffffffffffffffffffffffffffffff1660018260405161093d9190612058565b908152602001604051809103902060020160009054906101000a900473ffffffffffffffffffffffffffffffffffffffff1673ffffffffffffffffffffffffffffffffffffffff1614156109c6576040517f08c379a00000000000000000000000000000000000000000000000000000000081526004016109bd90612311565b60405180910390fd5b6003836040516109d69190612058565b9081526020016040518091039020805480602002602001604051908101604052809291908181526020018280548015610a6457602002820191906000526020600020905b8160009054906101000a900473ffffffffffffffffffffffffffffffffffffffff1673ffffffffffffffffffffffffffffffffffffffff1681526020019060010190808311610a1a575b5050505050915050919050565b80600073ffffffffffffffffffffffffffffffffffffffff16600082604051610a9a9190612058565b908152602001604051809103902060030160009054906101000a900473ffffffffffffffffffffffffffffffffffffffff1673ffffffffffffffffffffffffffffffffffffffff161415610b23576040517f08c379a0000000000000000000000000000000000000000000000000000000008152600401610b1a906122f1565b60405180910390fd5b6001600083604051610b359190612058565b908152602001604051809103902060010160006101000a81548160ff0219169083151502179055507f2782439fb34c673a7128d60c56de0ec1cf672ba71d7982612b566654722bc9c082604051610b8c91906120c3565b60405180910390a160005b600283604051610ba79190612058565b908152602001604051809103902080549050811015610cfb576000600284604051610bd29190612058565b90815260200160405180910390208281548110610c18577f4e487b7100000000000000000000000000000000000000000000000000000000600052603260045260246000fd5b906000526020600020018054610c2d90612491565b80601f0160208091040260200160405190810160405280929190818152602001828054610c5990612491565b8015610ca65780601f10610c7b57610100808354040283529160200191610ca6565b820191906000526020600020905b815481529060010190602001808311610c8957829003601f168201915b505050505090506000600182604051610cbf9190612058565b908152602001604051809103902060040160006101000a81548160ff021916908315150217905550508080610cf3906124c3565b915050610b97565b505050565b600081805160208101820180518482526020830160208501208183528095505050505050600091509050806000018054610d3990612491565b80601f0160208091040260200160405190810160405280929190818152602001828054610d6590612491565b8015610db25780601f10610d8757610100808354040283529160200191610db2565b820191906000526020600020905b815481529060010190602001808311610d9557829003601f168201915b5050505050908060010160009054906101000a900460ff16908060020154908060030160009054906101000a900473ffffffffffffffffffffffffffffffffffffffff16908060040154908060050154905086565b600073ffffffffffffffffffffffffffffffffffffffff16600085604051610e2f9190612058565b908152602001604051809103902060030160009054906101000a900473ffffffffffffffffffffffffffffffffffffffff1673ffffffffffffffffffffffffffffffffffffffff1614610eb7576040517f08c379a0000000000000000000000000000000000000000000000000000000008152600401610eae90612291565b60405180910390fd5b6040518060c001604052808581526020016000151581526020018481526020013373ffffffffffffffffffffffffffffffffffffffff16815260200183815260200182815250600085604051610f0d9190612058565b90815260200160405180910390206000820151816000019080519060200190610f3792919061195b565b5060208201518160010160006101000a81548160ff0219169083151502179055506040820151816002015560608201518160030160006101000a81548173ffffffffffffffffffffffffffffffffffffffff021916908373ffffffffffffffffffffffffffffffffffffffff1602179055506080820151816004015560a082015181600501559050503373ffffffffffffffffffffffffffffffffffffffff167f30158d9cc309823571c26af1941cae20ea4cb3c58098610e77db88612e788df18585604051611008929190612231565b60405180910390a250505050565b823373ffffffffffffffffffffffffffffffffffffffff1660018260405161103e9190612058565b908152602001604051809103902060020160009054906101000a900473ffffffffffffffffffffffffffffffffffffffff1673ffffffffffffffffffffffffffffffffffffffff16146110c6576040517f08c379a00000000000000000000000000000000000000000000000000000000081526004016110bd906122d1565b60405180910390fd5b60006001856040516110d89190612058565b90815260200160405180910390209050600080826001016040516110fc919061206f565b90815260200160405180910390206040518060c001604052908160008201805461112590612491565b80601f016020809104026020016040519081016040528092919081815260200182805461115190612491565b801561119e5780601f106111735761010080835404028352916020019161119e565b820191906000526020600020905b81548152906001019060200180831161118157829003601f168201915b505050505081526020016001820160009054906101000a900460ff16151515158152602001600282015481526020016003820160009054906101000a900473ffffffffffffffffffffffffffffffffffffffff1673ffffffffffffffffffffffffffffffffffffffff1673ffffffffffffffffffffffffffffffffffffffff16815260200160048201548152602001600582015481525050905083816040015114611286577f19125b12f9152fb1dbc961776766cf947575362cabee477ec34eda0572f3c3c78260010185604051611277929190612261565b60405180910390a15050611422565b816003018260020160009054906101000a900473ffffffffffffffffffffffffffffffffffffffff169080600181540180825580915050600190039060005260206000200160009091909190916101000a81548173ffffffffffffffffffffffffffffffffffffffff021916908373ffffffffffffffffffffffffffffffffffffffff160217905550848260020160006101000a81548173ffffffffffffffffffffffffffffffffffffffff021916908373ffffffffffffffffffffffffffffffffffffffff1602179055506003866040516113629190612058565b9081526020016040518091039020859080600181540180825580915050600190039060005260206000200160009091909190916101000a81548173ffffffffffffffffffffffffffffffffffffffff021916908373ffffffffffffffffffffffffffffffffffffffff1602179055508473ffffffffffffffffffffffffffffffffffffffff167f3c9ab066ece03aac28323e5fced931adb5f619c054a18427eb3b86d3a902f0488760405161141791906120c3565b60405180910390a250505b50505050565b60018180516020810182018051848252602083016020850120818352809550505050505060009150905080600001805461146190612491565b80601f016020809104026020016040519081016040528092919081815260200182805461148d90612491565b80156114da5780601f106114af576101008083540402835291602001916114da565b820191906000526020600020905b8154815290600101906020018083116114bd57829003601f168201915b5050505050908060010180546114ef90612491565b80601f016020809104026020016040519081016040528092919081815260200182805461151b90612491565b80156115685780601f1061153d57610100808354040283529160200191611568565b820191906000526020600020905b81548152906001019060200180831161154b57829003601f168201915b5050505050908060020160009054906101000a900473ffffffffffffffffffffffffffffffffffffffff16908060040160009054906101000a900460ff16905084565b80600073ffffffffffffffffffffffffffffffffffffffff166000826040516115d49190612058565b908152602001604051809103902060030160009054906101000a900473ffffffffffffffffffffffffffffffffffffffff1673ffffffffffffffffffffffffffffffffffffffff16141561165d576040517f08c379a0000000000000000000000000000000000000000000000000000000008152600401611654906122f1565b60405180910390fd5b600073ffffffffffffffffffffffffffffffffffffffff166001846040516116859190612058565b908152602001604051809103902060020160009054906101000a900473ffffffffffffffffffffffffffffffffffffffff1673ffffffffffffffffffffffffffffffffffffffff161461170d576040517f08c379a0000000000000000000000000000000000000000000000000000000008152600401611704906122b1565b60405180910390fd5b60606040518060a001604052808581526020018481526020013373ffffffffffffffffffffffffffffffffffffffff1681526020018281526020016000151581525060018560405161175f9190612058565b9081526020016040518091039020600082015181600001908051906020019061178992919061195b565b5060208201518160010190805190602001906117a692919061195b565b5060408201518160020160006101000a81548173ffffffffffffffffffffffffffffffffffffffff021916908373ffffffffffffffffffffffffffffffffffffffff160217905550606082015181600301908051906020019061180a9291906119e1565b5060808201518160040160006101000a81548160ff02191690831515021790555090505060028360405161183e9190612058565b90815260200160405180910390208490806001815401808255809150506001900390600052602060002001600090919091909150908051906020019061188592919061195b565b506003846040516118969190612058565b9081526020016040518091039020339080600181540180825580915050600190039060005260206000200160009091909190916101000a81548173ffffffffffffffffffffffffffffffffffffffff021916908373ffffffffffffffffffffffffffffffffffffffff1602179055503373ffffffffffffffffffffffffffffffffffffffff167f450d722597fd8c8a8107abc6fe0f34f41e0feca7647c7648db895adb2967cf16858560405161194d9291906121a7565b60405180910390a250505050565b82805461196790612491565b90600052602060002090601f01602090048101928261198957600085556119d0565b82601f106119a257805160ff19168380011785556119d0565b828001600101855582156119d0579182015b828111156119cf5782518255916020019190600101906119b4565b5b5090506119dd9190611a6b565b5090565b828054828255906000526020600020908101928215611a5a579160200282015b82811115611a595782518260006101000a81548173ffffffffffffffffffffffffffffffffffffffff021916908373ffffffffffffffffffffffffffffffffffffffff16021790555091602001919060010190611a01565b5b509050611a679190611a6b565b5090565b5b80821115611a84576000816000905550600101611a6c565b5090565b6000611a9b611a9684612362565b612331565b905082815260208101848484011115611ab357600080fd5b611abe84828561244f565b509392505050565b600081359050611ad5816125aa565b92915050565b600082601f830112611aec57600080fd5b8135611afc848260208601611a88565b91505092915050565b600081359050611b14816125c1565b92915050565b600060208284031215611b2c57600080fd5b600082013567ffffffffffffffff811115611b4657600080fd5b611b5284828501611adb565b91505092915050565b600080600060608486031215611b7057600080fd5b600084013567ffffffffffffffff811115611b8a57600080fd5b611b9686828701611adb565b9350506020611ba786828701611ac6565b9250506040611bb886828701611b05565b9150509250925092565b60008060408385031215611bd557600080fd5b600083013567ffffffffffffffff811115611bef57600080fd5b611bfb85828601611adb565b925050602083013567ffffffffffffffff811115611c1857600080fd5b611c2485828601611adb565b9150509250929050565b60008060408385031215611c4157600080fd5b600083013567ffffffffffffffff811115611c5b57600080fd5b611c6785828601611adb565b9250506020611c7885828601611b05565b9150509250929050565b60008060008060808587031215611c9857600080fd5b600085013567ffffffffffffffff811115611cb257600080fd5b611cbe87828801611adb565b9450506020611ccf87828801611b05565b9350506040611ce087828801611b05565b9250506060611cf187828801611b05565b91505092959194509250565b6000611d098383611d15565b60208301905092915050565b611d1e81612407565b82525050565b611d2d81612407565b82525050565b6000611d3e826123b7565b611d4881856123da565b9350611d5383612392565b8060005b83811015611d84578151611d6b8882611cfd565b9750611d76836123cd565b925050600181019050611d57565b5085935050505092915050565b611d9a81612419565b82525050565b6000611dab826123c2565b611db581856123eb565b9350611dc581856020860161245e565b611dce81612599565b840191505092915050565b6000611de4826123c2565b611dee81856123fc565b9350611dfe81856020860161245e565b80840191505092915050565b60008154611e1781612491565b611e2181866123eb565b94506001821660008114611e3c5760018114611e4e57611e81565b60ff1983168652602086019350611e81565b611e57856123a2565b60005b83811015611e7957815481890152600182019150602081019050611e5a565b808801955050505b50505092915050565b60008154611e9781612491565b611ea181866123fc565b94506001821660008114611ebc5760018114611ecd57611f00565b60ff19831686528186019350611f00565b611ed6856123a2565b60005b83811015611ef857815481890152600182019150602081019050611ed9565b838801955050505b50505092915050565b6000611f166014836123eb565b91507f426174636820616c7265616479206578697374730000000000000000000000006000830152602082019050919050565b6000611f566013836123eb565b91507f4472756720616c726561647920657869737473000000000000000000000000006000830152602082019050919050565b6000611f966015836123eb565b91507f4e6f74207468652063757272656e74206f776e657200000000000000000000006000830152602082019050919050565b6000611fd66014836123eb565b91507f426174636820646f6573206e6f742065786973740000000000000000000000006000830152602082019050919050565b60006120166013836123eb565b91507f4472756720646f6573206e6f74206578697374000000000000000000000000006000830152602082019050919050565b61205281612445565b82525050565b60006120648284611dd9565b915081905092915050565b600061207b8284611e8a565b915081905092915050565b600060208201905061209b6000830184611d24565b92915050565b600060208201905081810360008301526120bb8184611d33565b905092915050565b600060208201905081810360008301526120dd8184611da0565b905092915050565b600060a08201905081810360008301526120ff8188611da0565b905061210e6020830187611d24565b61211b6040830186611d91565b6121286060830185611d91565b6121356080830184612049565b9695505050505050565b600060c08201905081810360008301526121598189611da0565b90506121686020830188611d91565b6121756040830187612049565b6121826060830186611d24565b61218f6080830185612049565b61219c60a0830184612049565b979650505050505050565b600060408201905081810360008301526121c18185611da0565b905081810360208301526121d58184611da0565b90509392505050565b600060808201905081810360008301526121f88187611da0565b9050818103602083015261220c8186611da0565b905061221b6040830185611d24565b6122286060830184611d91565b95945050505050565b6000604082019050818103600083015261224b8185611da0565b905061225a6020830184612049565b9392505050565b6000604082019050818103600083015261227b8185611e0a565b905061228a6020830184612049565b9392505050565b600060208201905081810360008301526122aa81611f09565b9050919050565b600060208201905081810360008301526122ca81611f49565b9050919050565b600060208201905081810360008301526122ea81611f89565b9050919050565b6000602082019050818103600083015261230a81611fc9565b9050919050565b6000602082019050818103600083015261232a81612009565b9050919050565b6000604051905081810181811067ffffffffffffffff821117156123585761235761256a565b5b8060405250919050565b600067ffffffffffffffff82111561237d5761237c61256a565b5b601f19601f8301169050602081019050919050565b6000819050602082019050919050565b60008190508160005260206000209050919050565b600081519050919050565b600081519050919050565b6000602082019050919050565b600082825260208201905092915050565b600082825260208201905092915050565b600081905092915050565b600061241282612425565b9050919050565b60008115159050919050565b600073ffffffffffffffffffffffffffffffffffffffff82169050919050565b6000819050919050565b82818337600083830152505050565b60005b8381101561247c578082015181840152602081019050612461565b8381111561248b576000848401525b50505050565b600060028204905060018216806124a957607f821691505b602082108114156124bd576124bc61253b565b5b50919050565b60006124ce82612445565b91507fffffffffffffffffffffffffffffffffffffffffffffffffffffffffffffffff8214156125015761250061250c565b5b600182019050919050565b7f4e487b7100000000000000000000000000000000000000000000000000000000600052601160045260246000fd5b7f4e487b7100000000000000000000000000000000000000000000000000000000600052602260045260246000fd5b7f4e487b7100000000000000000000000000000000000000000000000000000000600052604160045260246000fd5b6000601f19601f8301169050919050565b6125b381612407565b81146125be57600080fd5b50565b6125ca81612445565b81146125d557600080fd5b5056fea26469706673582212200580b0cff873ab683cfa53dc30055d6b6f879ed6caba8b5c1b5cece4fa74fd9864736f6c63430008000033",
  "immutableReferences": {},
  "source": "// SPDX-License-Identifier: MIT\npragma solidity ^0.8.0;\n\ncontract DrugTracking {\n    \n    struct Batch {\n        string batchId;\n        bool isFaulty;\n        uint256 supplyNumber;\n        address manufacturer;\n        uint256 manufactureDate;\n        uint256 expirationDate;\n    }\n    \n    struct Drug {\n        string serialNumber;\n        string batchId;\n        address currentOwner;\n        address[] previousOwners;\n        bool isVerified;\n    }\n\n    mapping(string => Batch) public batches; \n    mapping(string => Drug) public drugs;\n    mapping(string => string[]) public batchToDrugs;\n    mapping(string => address[]) public drugHistory;\n\n    event BatchCreated(string batchId, address indexed manufacturer, uint256 supplyNumber);\n    event DrugCreated(string serialNumber, string batchId, address indexed owner);\n    event DrugTransferred(string serialNumber, address indexed newOwner);\n    event BatchMarkedFaulty(string batchId);\n    event SupplyNumberAlert(string batchId, uint256 incorrectSupplyNumber);\n\n    modifier onlyBatchExists(string memory _batchId) {\n        require(batches[_batchId].manufacturer != address(0), \"Batch does not exist\");\n        _;\n    }\n\n    modifier onlyOwner(string memory _serialNumber) {\n        require(drugs[_serialNumber].currentOwner == msg.sender, \"Not the current owner\");\n        _;\n    }\n\n    modifier drugExists(string memory _serialNumber) {\n        require(drugs[_serialNumber].currentOwner != address(0), \"Drug does not exist\");\n        _;\n    }\n\n    function createBatch(\n        string memory _batchId, \n        uint256 _supplyNumber, \n        uint256 _manufactureDate, \n        uint256 _expirationDate\n    ) public {\n        require(batches[_batchId].manufacturer == address(0), \"Batch already exists\");\n        batches[_batchId] = Batch({\n            batchId: _batchId,\n            isFaulty: false,\n            supplyNumber: _supplyNumber,\n            manufacturer: msg.sender,\n            manufactureDate: _manufactureDate,\n            expirationDate: _expirationDate\n        });\n\n        emit BatchCreated(_batchId, msg.sender, _supplyNumber);\n    }\n\n    function createDrug(\n        string memory _serialNumber,\n        string memory _batchId\n    ) public onlyBatchExists(_batchId) {\n        require(drugs[_serialNumber].currentOwner == address(0), \"Drug already exists\");\n\n        address[] memory emptyArray;\n        drugs[_serialNumber] = Drug({\n            serialNumber: _serialNumber,\n            batchId: _batchId,\n            currentOwner: msg.sender,\n            previousOwners: emptyArray,\n            isVerified: false\n        });\n        batchToDrugs[_batchId].push(_serialNumber);\n        drugHistory[_serialNumber].push(msg.sender);\n        emit DrugCreated(_serialNumber, _batchId, msg.sender);\n    }\n\n    function transferDrug(string memory _serialNumber, address _newOwner, uint _supplyNumber) public onlyOwner(_serialNumber) {\n        Drug storage drug = drugs[_serialNumber];\n        Batch memory batch = batches[drug.batchId];\n\n        if (batch.supplyNumber != _supplyNumber) {\n            emit SupplyNumberAlert(drug.batchId, _supplyNumber);\n            return;\n        }\n        drug.previousOwners.push(drug.currentOwner);\n        drug.currentOwner = _newOwner;\n        drugHistory[_serialNumber].push(_newOwner);\n\n        emit DrugTransferred(_serialNumber, _newOwner);\n    }\n\n    function markBatchFaulty(string memory _batchId) public onlyBatchExists(_batchId) {\n        batches[_batchId].isFaulty = true;\n        emit BatchMarkedFaulty(_batchId);\n\n        for (uint i = 0; i < batchToDrugs[_batchId].length; i++) {\n            string memory drugSerial = batchToDrugs[_batchId][i];\n            drugs[drugSerial].isVerified = false; \n        }\n    } \n\n    function getDrugDetails(string memory _serialNumber) public view drugExists(_serialNumber) returns (\n        string memory batchId,\n        address currentOwner,\n        bool isVerified,\n        bool isBatchFaulty,\n        uint256 supplyNumber\n    ) {\n        Drug memory drug = drugs[_serialNumber];\n        Batch memory batch = batches[drug.batchId];\n        return (drug.batchId, drug.currentOwner, drug.isVerified, batch.isFaulty, batch.supplyNumber);\n    }\n\n    function getDrugHistory(string memory _serialNumber) public view drugExists(_serialNumber) returns (address[] memory) {\n        return drugHistory[_serialNumber];\n    }\n\n    function verifyDrug(string memory _serialNumber) public drugExists(_serialNumber) {\n        drugs[_serialNumber].isVerified = true;\n    }\n\n}",
  "sourcePath": "/Users/joana/Desktop/VeriPharma/contracts/DrugTracking.sol",
  "compiler": {
    "name": "solc",
    "version": "0.8.0+commit.c7dfd78e.Emscripten.clang"
  },
  "schemaVersion": "3.4.16",
  "updatedAt": "2024-10-12T13:25:32.916Z",
  "devdoc": {
    "kind": "dev",
    "methods": {},
    "version": 1
  },
  "userdoc": {
    "kind": "user",
    "methods": {},
    "version": 1
  }
}