{
  "contractName": "DrugTracking",
  "abi": [
    {
      "anonymous": false,
      "inputs": [
        {
          "indexed": false,
          "internalType": "string",
          "name": "batchId",
          "type": "string"
        },
        {
          "indexed": true,
          "internalType": "address",
          "name": "manufacturer",
          "type": "address"
        },
        {
          "indexed": false,
          "internalType": "uint256",
          "name": "supplyNumber",
          "type": "uint256"
        }
      ],
      "name": "BatchCreated",
      "type": "event"
    },
    {
      "anonymous": false,
      "inputs": [
        {
          "indexed": false,
          "internalType": "string",
          "name": "batchId",
          "type": "string"
        }
      ],
      "name": "BatchMarkedFaulty",
      "type": "event"
    },
    {
      "anonymous": false,
      "inputs": [
        {
          "indexed": false,
          "internalType": "string",
          "name": "serialNumber",
          "type": "string"
        },
        {
          "indexed": false,
          "internalType": "string",
          "name": "batchId",
          "type": "string"
        },
        {
          "indexed": true,
          "internalType": "address",
          "name": "owner",
          "type": "address"
        }
      ],
      "name": "DrugCreated",
      "type": "event"
    },
    {
      "anonymous": false,
      "inputs": [
        {
          "indexed": false,
          "internalType": "string",
          "name": "serialNumber",
          "type": "string"
        },
        {
          "indexed": true,
          "internalType": "address",
          "name": "newOwner",
          "type": "address"
        }
      ],
      "name": "DrugTransferred",
      "type": "event"
    },
    {
      "anonymous": false,
      "inputs": [
        {
          "indexed": false,
          "internalType": "string",
          "name": "batchId",
          "type": "string"
        },
        {
          "indexed": false,
          "internalType": "uint256",
          "name": "incorrectSupplyNumber",
          "type": "uint256"
        }
      ],
      "name": "SupplyNumberAlert",
      "type": "event"
    },
    {
      "inputs": [
        {
          "internalType": "string",
          "name": "",
          "type": "string"
        },
        {
          "internalType": "uint256",
          "name": "",
          "type": "uint256"
        }
      ],
      "name": "batchToDrugs",
      "outputs": [
        {
          "internalType": "string",
          "name": "",
          "type": "string"
        }
      ],
      "stateMutability": "view",
      "type": "function"
    },
    {
      "inputs": [
        {
          "internalType": "string",
          "name": "",
          "type": "string"
        }
      ],
      "name": "batches",
      "outputs": [
        {
          "internalType": "string",
          "name": "batchId",
          "type": "string"
        },
        {
          "internalType": "bool",
          "name": "isFaulty",
          "type": "bool"
        },
        {
          "internalType": "uint256",
          "name": "supplyNumber",
          "type": "uint256"
        },
        {
          "internalType": "address",
          "name": "manufacturer",
          "type": "address"
        },
        {
          "internalType": "uint256",
          "name": "manufactureDate",
          "type": "uint256"
        },
        {
          "internalType": "uint256",
          "name": "expirationDate",
          "type": "uint256"
        }
      ],
      "stateMutability": "view",
      "type": "function"
    },
    {
      "inputs": [
        {
          "internalType": "string",
          "name": "",
          "type": "string"
        },
        {
          "internalType": "uint256",
          "name": "",
          "type": "uint256"
        }
      ],
      "name": "drugHistory",
      "outputs": [
        {
          "internalType": "address",
          "name": "",
          "type": "address"
        }
      ],
      "stateMutability": "view",
      "type": "function"
    },
    {
      "inputs": [
        {
          "internalType": "string",
          "name": "",
          "type": "string"
        }
      ],
      "name": "drugs",
      "outputs": [
        {
          "internalType": "string",
          "name": "serialNumber",
          "type": "string"
        },
        {
          "internalType": "string",
          "name": "batchId",
          "type": "string"
        },
        {
          "internalType": "address",
          "name": "currentOwner",
          "type": "address"
        },
        {
          "internalType": "bool",
          "name": "isVerified",
          "type": "bool"
        },
        {
          "internalType": "bool",
          "name": "isAddedbyUser",
          "type": "bool"
        }
      ],
      "stateMutability": "view",
      "type": "function"
    },
    {
      "inputs": [
        {
          "internalType": "string",
          "name": "_batchId",
          "type": "string"
        },
        {
          "internalType": "uint256",
          "name": "_supplyNumber",
          "type": "uint256"
        },
        {
          "internalType": "uint256",
          "name": "_manufactureDate",
          "type": "uint256"
        },
        {
          "internalType": "uint256",
          "name": "_expirationDate",
          "type": "uint256"
        }
      ],
      "name": "createBatch",
      "outputs": [],
      "stateMutability": "nonpayable",
      "type": "function"
    },
    {
      "inputs": [
        {
          "internalType": "string",
          "name": "_serialNumber",
          "type": "string"
        },
        {
          "internalType": "string",
          "name": "_batchId",
          "type": "string"
        }
      ],
      "name": "createDrug",
      "outputs": [],
      "stateMutability": "nonpayable",
      "type": "function"
    },
    {
      "inputs": [
        {
          "internalType": "string",
          "name": "_serialNumber",
          "type": "string"
        },
        {
          "internalType": "address",
          "name": "_newOwner",
          "type": "address"
        },
        {
          "internalType": "uint256",
          "name": "_supplyNumber",
          "type": "uint256"
        }
      ],
      "name": "transferDrug",
      "outputs": [],
      "stateMutability": "nonpayable",
      "type": "function"
    },
    {
      "inputs": [
        {
          "internalType": "string",
          "name": "_batchId",
          "type": "string"
        }
      ],
      "name": "markBatchFaulty",
      "outputs": [],
      "stateMutability": "nonpayable",
      "type": "function"
    },
    {
      "inputs": [
        {
          "internalType": "string",
          "name": "_serialNumber",
          "type": "string"
        }
      ],
      "name": "markDrugFaulty",
      "outputs": [],
      "stateMutability": "nonpayable",
      "type": "function"
    },
    {
      "inputs": [
        {
          "internalType": "string",
          "name": "_serialNumber",
          "type": "string"
        }
      ],
      "name": "getDrugDetails",
      "outputs": [
        {
          "internalType": "string",
          "name": "batchId",
          "type": "string"
        },
        {
          "internalType": "address",
          "name": "currentOwner",
          "type": "address"
        },
        {
          "internalType": "bool",
          "name": "isVerified",
          "type": "bool"
        },
        {
          "internalType": "bool",
          "name": "isBatchFaulty",
          "type": "bool"
        },
        {
          "internalType": "uint256",
          "name": "supplyNumber",
          "type": "uint256"
        }
      ],
      "stateMutability": "view",
      "type": "function"
    },
    {
      "inputs": [
        {
          "internalType": "string",
          "name": "_serialNumber",
          "type": "string"
        }
      ],
      "name": "getDrugHistory",
      "outputs": [
        {
          "internalType": "address[]",
          "name": "",
          "type": "address[]"
        }
      ],
      "stateMutability": "view",
      "type": "function"
    },
    {
      "inputs": [
        {
          "internalType": "string",
          "name": "_serialNumber",
          "type": "string"
        }
      ],
      "name": "verifyDrug",
      "outputs": [],
      "stateMutability": "nonpayable",
      "type": "function"
    }
  ],
  "bytecode": "0x608060405234801561001057600080fd5b506128ee806100206000396000f3fe608060405234801561001057600080fd5b50600436106100b45760003560e01c80636dfefdab116100715780636dfefdab146101b55780637ef1446a146101d1578063a1c1743b14610206578063ad896f9714610222578063b009493d1461023e578063e40f874c14610272576100b4565b80631a197688146100b95780633b7b0a74146100e95780633f4ebcd114610105578063567e963614610135578063582548e314610169578063624926c514610185575b600080fd5b6100d360048036038101906100ce9190611f00565b61028e565b6040516100e09190612395565b60405180910390f35b61010360048036038101906100fe9190611dec565b61035d565b005b61011f600480360381019061011a9190611f00565b61044c565b60405161012c9190612358565b60405180910390f35b61014f600480360381019061014a9190611dec565b6104b0565b6040516101609594939291906123b7565b60405180910390f35b610183600480360381019061017e9190611dec565b610955565b005b61019f600480360381019061019a9190611dec565b610ba8565b6040516101ac9190612373565b60405180910390f35b6101cf60048036038101906101ca9190611dec565b610d07565b005b6101eb60048036038101906101e69190611dec565b610f96565b6040516101fd96959493929190612411565b60405180910390f35b610220600480360381019061021b9190611f54565b61109d565b005b61023c60048036038101906102379190611e2d565b6112ac565b005b61025860048036038101906102539190611dec565b6116be565b6040516102699594939291906124b0565b60405180910390f35b61028c60048036038101906102879190611e94565b611854565b005b60028280516020810182018051848252602083016020850120818352809550505050505081815481106102c057600080fd5b906000526020600020016000915091505080546102dc90612771565b80601f016020809104026020016040519081016040528092919081815260200182805461030890612771565b80156103555780601f1061032a57610100808354040283529160200191610355565b820191906000526020600020905b81548152906001019060200180831161033857829003601f168201915b505050505081565b80600073ffffffffffffffffffffffffffffffffffffffff16600182604051610386919061232a565b908152602001604051809103902060020160009054906101000a900473ffffffffffffffffffffffffffffffffffffffff1673ffffffffffffffffffffffffffffffffffffffff16141561040f576040517f08c379a0000000000000000000000000000000000000000000000000000000008152600401610406906125f1565b60405180910390fd5b60018083604051610420919061232a565b908152602001604051809103902060040160006101000a81548160ff0219169083151502179055505050565b600382805160208101820180518482526020830160208501208183528095505050505050818154811061047e57600080fd5b906000526020600020016000915091509054906101000a900473ffffffffffffffffffffffffffffffffffffffff1681565b606060008060008085600073ffffffffffffffffffffffffffffffffffffffff166001826040516104e1919061232a565b908152602001604051809103902060020160009054906101000a900473ffffffffffffffffffffffffffffffffffffffff1673ffffffffffffffffffffffffffffffffffffffff16141561056a576040517f08c379a0000000000000000000000000000000000000000000000000000000008152600401610561906125f1565b60405180910390fd5b600060018860405161057c919061232a565b90815260200160405180910390206040518060c00160405290816000820180546105a590612771565b80601f01602080910402602001604051908101604052809291908181526020018280546105d190612771565b801561061e5780601f106105f35761010080835404028352916020019161061e565b820191906000526020600020905b81548152906001019060200180831161060157829003601f168201915b5050505050815260200160018201805461063790612771565b80601f016020809104026020016040519081016040528092919081815260200182805461066390612771565b80156106b05780601f10610685576101008083540402835291602001916106b0565b820191906000526020600020905b81548152906001019060200180831161069357829003601f168201915b505050505081526020016002820160009054906101000a900473ffffffffffffffffffffffffffffffffffffffff1673ffffffffffffffffffffffffffffffffffffffff1673ffffffffffffffffffffffffffffffffffffffff1681526020016003820180548060200260200160405190810160405280929190818152602001828054801561079457602002820191906000526020600020905b8160009054906101000a900473ffffffffffffffffffffffffffffffffffffffff1673ffffffffffffffffffffffffffffffffffffffff168152602001906001019080831161074a575b505050505081526020016004820160009054906101000a900460ff161515151581526020016004820160019054906101000a900460ff161515151581525050905060008082602001516040516107ea919061232a565b90815260200160405180910390206040518060c001604052908160008201805461081390612771565b80601f016020809104026020016040519081016040528092919081815260200182805461083f90612771565b801561088c5780601f106108615761010080835404028352916020019161088c565b820191906000526020600020905b81548152906001019060200180831161086f57829003601f168201915b505050505081526020016001820160009054906101000a900460ff16151515158152602001600282015481526020016003820160009054906101000a900473ffffffffffffffffffffffffffffffffffffffff1673ffffffffffffffffffffffffffffffffffffffff1673ffffffffffffffffffffffffffffffffffffffff168152602001600482015481526020016005820154815250509050816020015182604001518360800151836020015184604001519750975097509750975050505091939590929450565b80600073ffffffffffffffffffffffffffffffffffffffff1660018260405161097e919061232a565b908152602001604051809103902060020160009054906101000a900473ffffffffffffffffffffffffffffffffffffffff1673ffffffffffffffffffffffffffffffffffffffff161415610a07576040517f08c379a00000000000000000000000000000000000000000000000000000000081526004016109fe906125f1565b60405180910390fd5b813373ffffffffffffffffffffffffffffffffffffffff16600182604051610a2f919061232a565b908152602001604051809103902060020160009054906101000a900473ffffffffffffffffffffffffffffffffffffffff1673ffffffffffffffffffffffffffffffffffffffff1614610ab7576040517f08c379a0000000000000000000000000000000000000000000000000000000008152600401610aae906125b1565b60405180910390fd5b6000600184604051610ac9919061232a565b908152602001604051809103902060040160006101000a81548160ff021916908315150217905550610ba3600184604051610b04919061232a565b90815260200160405180910390206001018054610b2090612771565b80601f0160208091040260200160405190810160405280929190818152602001828054610b4c90612771565b8015610b995780601f10610b6e57610100808354040283529160200191610b99565b820191906000526020600020905b815481529060010190602001808311610b7c57829003601f168201915b5050505050610d07565b505050565b606081600073ffffffffffffffffffffffffffffffffffffffff16600182604051610bd3919061232a565b908152602001604051809103902060020160009054906101000a900473ffffffffffffffffffffffffffffffffffffffff1673ffffffffffffffffffffffffffffffffffffffff161415610c5c576040517f08c379a0000000000000000000000000000000000000000000000000000000008152600401610c53906125f1565b60405180910390fd5b600383604051610c6c919061232a565b9081526020016040518091039020805480602002602001604051908101604052809291908181526020018280548015610cfa57602002820191906000526020600020905b8160009054906101000a900473ffffffffffffffffffffffffffffffffffffffff1673ffffffffffffffffffffffffffffffffffffffff1681526020019060010190808311610cb0575b5050505050915050919050565b80600073ffffffffffffffffffffffffffffffffffffffff16600082604051610d30919061232a565b908152602001604051809103902060030160009054906101000a900473ffffffffffffffffffffffffffffffffffffffff1673ffffffffffffffffffffffffffffffffffffffff161415610db9576040517f08c379a0000000000000000000000000000000000000000000000000000000008152600401610db0906125d1565b60405180910390fd5b6001600083604051610dcb919061232a565b908152602001604051809103902060010160006101000a81548160ff0219169083151502179055507f2782439fb34c673a7128d60c56de0ec1cf672ba71d7982612b566654722bc9c082604051610e229190612395565b60405180910390a160005b600283604051610e3d919061232a565b908152602001604051809103902080549050811015610f91576000600284604051610e68919061232a565b90815260200160405180910390208281548110610eae577f4e487b7100000000000000000000000000000000000000000000000000000000600052603260045260246000fd5b906000526020600020018054610ec390612771565b80601f0160208091040260200160405190810160405280929190818152602001828054610eef90612771565b8015610f3c5780601f10610f1157610100808354040283529160200191610f3c565b820191906000526020600020905b815481529060010190602001808311610f1f57829003601f168201915b505050505090506000600182604051610f55919061232a565b908152602001604051809103902060040160006101000a81548160ff021916908315150217905550508080610f89906127a3565b915050610e2d565b505050565b600081805160208101820180518482526020830160208501208183528095505050505050600091509050806000018054610fcf90612771565b80601f0160208091040260200160405190810160405280929190818152602001828054610ffb90612771565b80156110485780601f1061101d57610100808354040283529160200191611048565b820191906000526020600020905b81548152906001019060200180831161102b57829003601f168201915b5050505050908060010160009054906101000a900460ff16908060020154908060030160009054906101000a900473ffffffffffffffffffffffffffffffffffffffff16908060040154908060050154905086565b600073ffffffffffffffffffffffffffffffffffffffff166000856040516110c5919061232a565b908152602001604051809103902060030160009054906101000a900473ffffffffffffffffffffffffffffffffffffffff1673ffffffffffffffffffffffffffffffffffffffff161461114d576040517f08c379a000000000000000000000000000000000000000000000000000000000815260040161114490612571565b60405180910390fd5b6040518060c001604052808581526020016000151581526020018481526020013373ffffffffffffffffffffffffffffffffffffffff168152602001838152602001828152506000856040516111a3919061232a565b908152602001604051809103902060008201518160000190805190602001906111cd929190611c2d565b5060208201518160010160006101000a81548160ff0219169083151502179055506040820151816002015560608201518160030160006101000a81548173ffffffffffffffffffffffffffffffffffffffff021916908373ffffffffffffffffffffffffffffffffffffffff1602179055506080820151816004015560a082015181600501559050503373ffffffffffffffffffffffffffffffffffffffff167f30158d9cc309823571c26af1941cae20ea4cb3c58098610e77db88612e788df1858560405161129e929190612511565b60405180910390a250505050565b823373ffffffffffffffffffffffffffffffffffffffff166001826040516112d4919061232a565b908152602001604051809103902060020160009054906101000a900473ffffffffffffffffffffffffffffffffffffffff1673ffffffffffffffffffffffffffffffffffffffff161461135c576040517f08c379a0000000000000000000000000000000000000000000000000000000008152600401611353906125b1565b60405180910390fd5b600060018560405161136e919061232a565b90815260200160405180910390209050600080826001016040516113929190612341565b90815260200160405180910390206040518060c00160405290816000820180546113bb90612771565b80601f01602080910402602001604051908101604052809291908181526020018280546113e790612771565b80156114345780601f1061140957610100808354040283529160200191611434565b820191906000526020600020905b81548152906001019060200180831161141757829003601f168201915b505050505081526020016001820160009054906101000a900460ff16151515158152602001600282015481526020016003820160009054906101000a900473ffffffffffffffffffffffffffffffffffffffff1673ffffffffffffffffffffffffffffffffffffffff1673ffffffffffffffffffffffffffffffffffffffff1681526020016004820154815260200160058201548152505090508381604001511461151c577f19125b12f9152fb1dbc961776766cf947575362cabee477ec34eda0572f3c3c7826001018560405161150d929190612541565b60405180910390a150506116b8565b816003018260020160009054906101000a900473ffffffffffffffffffffffffffffffffffffffff169080600181540180825580915050600190039060005260206000200160009091909190916101000a81548173ffffffffffffffffffffffffffffffffffffffff021916908373ffffffffffffffffffffffffffffffffffffffff160217905550848260020160006101000a81548173ffffffffffffffffffffffffffffffffffffffff021916908373ffffffffffffffffffffffffffffffffffffffff1602179055506003866040516115f8919061232a565b9081526020016040518091039020859080600181540180825580915050600190039060005260206000200160009091909190916101000a81548173ffffffffffffffffffffffffffffffffffffffff021916908373ffffffffffffffffffffffffffffffffffffffff1602179055508473ffffffffffffffffffffffffffffffffffffffff167f3c9ab066ece03aac28323e5fced931adb5f619c054a18427eb3b86d3a902f048876040516116ad9190612395565b60405180910390a250505b50505050565b6001818051602081018201805184825260208301602085012081835280955050505050506000915090508060000180546116f790612771565b80601f016020809104026020016040519081016040528092919081815260200182805461172390612771565b80156117705780601f1061174557610100808354040283529160200191611770565b820191906000526020600020905b81548152906001019060200180831161175357829003601f168201915b50505050509080600101805461178590612771565b80601f01602080910402602001604051908101604052809291908181526020018280546117b190612771565b80156117fe5780601f106117d3576101008083540402835291602001916117fe565b820191906000526020600020905b8154815290600101906020018083116117e157829003601f168201915b5050505050908060020160009054906101000a900473ffffffffffffffffffffffffffffffffffffffff16908060040160009054906101000a900460ff16908060040160019054906101000a900460ff16905085565b80600073ffffffffffffffffffffffffffffffffffffffff1660008260405161187d919061232a565b908152602001604051809103902060030160009054906101000a900473ffffffffffffffffffffffffffffffffffffffff1673ffffffffffffffffffffffffffffffffffffffff161415611906576040517f08c379a00000000000000000000000000000000000000000000000000000000081526004016118fd906125d1565b60405180910390fd5b600073ffffffffffffffffffffffffffffffffffffffff1660018460405161192e919061232a565b908152602001604051809103902060020160009054906101000a900473ffffffffffffffffffffffffffffffffffffffff1673ffffffffffffffffffffffffffffffffffffffff16146119b6576040517f08c379a00000000000000000000000000000000000000000000000000000000081526004016119ad90612591565b60405180910390fd5b60606040518060c001604052808581526020018481526020013373ffffffffffffffffffffffffffffffffffffffff16815260200182815260200160001515815260200160001515815250600185604051611a11919061232a565b90815260200160405180910390206000820151816000019080519060200190611a3b929190611c2d565b506020820151816001019080519060200190611a58929190611c2d565b5060408201518160020160006101000a81548173ffffffffffffffffffffffffffffffffffffffff021916908373ffffffffffffffffffffffffffffffffffffffff1602179055506060820151816003019080519060200190611abc929190611cb3565b5060808201518160040160006101000a81548160ff02191690831515021790555060a08201518160040160016101000a81548160ff021916908315150217905550905050600283604051611b10919061232a565b908152602001604051809103902084908060018154018082558091505060019003906000526020600020016000909190919091509080519060200190611b57929190611c2d565b50600384604051611b68919061232a565b9081526020016040518091039020339080600181540180825580915050600190039060005260206000200160009091909190916101000a81548173ffffffffffffffffffffffffffffffffffffffff021916908373ffffffffffffffffffffffffffffffffffffffff1602179055503373ffffffffffffffffffffffffffffffffffffffff167f450d722597fd8c8a8107abc6fe0f34f41e0feca7647c7648db895adb2967cf168585604051611c1f929190612479565b60405180910390a250505050565b828054611c3990612771565b90600052602060002090601f016020900481019282611c5b5760008555611ca2565b82601f10611c7457805160ff1916838001178555611ca2565b82800160010185558215611ca2579182015b82811115611ca1578251825591602001919060010190611c86565b5b509050611caf9190611d3d565b5090565b828054828255906000526020600020908101928215611d2c579160200282015b82811115611d2b5782518260006101000a81548173ffffffffffffffffffffffffffffffffffffffff021916908373ffffffffffffffffffffffffffffffffffffffff16021790555091602001919060010190611cd3565b5b509050611d399190611d3d565b5090565b5b80821115611d56576000816000905550600101611d3e565b5090565b6000611d6d611d6884612642565b612611565b905082815260208101848484011115611d8557600080fd5b611d9084828561272f565b509392505050565b600081359050611da78161288a565b92915050565b600082601f830112611dbe57600080fd5b8135611dce848260208601611d5a565b91505092915050565b600081359050611de6816128a1565b92915050565b600060208284031215611dfe57600080fd5b600082013567ffffffffffffffff811115611e1857600080fd5b611e2484828501611dad565b91505092915050565b600080600060608486031215611e4257600080fd5b600084013567ffffffffffffffff811115611e5c57600080fd5b611e6886828701611dad565b9350506020611e7986828701611d98565b9250506040611e8a86828701611dd7565b9150509250925092565b60008060408385031215611ea757600080fd5b600083013567ffffffffffffffff811115611ec157600080fd5b611ecd85828601611dad565b925050602083013567ffffffffffffffff811115611eea57600080fd5b611ef685828601611dad565b9150509250929050565b60008060408385031215611f1357600080fd5b600083013567ffffffffffffffff811115611f2d57600080fd5b611f3985828601611dad565b9250506020611f4a85828601611dd7565b9150509250929050565b60008060008060808587031215611f6a57600080fd5b600085013567ffffffffffffffff811115611f8457600080fd5b611f9087828801611dad565b9450506020611fa187828801611dd7565b9350506040611fb287828801611dd7565b9250506060611fc387828801611dd7565b91505092959194509250565b6000611fdb8383611fe7565b60208301905092915050565b611ff0816126e7565b82525050565b611fff816126e7565b82525050565b600061201082612697565b61201a81856126ba565b935061202583612672565b8060005b8381101561205657815161203d8882611fcf565b9750612048836126ad565b925050600181019050612029565b5085935050505092915050565b61206c816126f9565b82525050565b600061207d826126a2565b61208781856126cb565b935061209781856020860161273e565b6120a081612879565b840191505092915050565b60006120b6826126a2565b6120c081856126dc565b93506120d081856020860161273e565b80840191505092915050565b600081546120e981612771565b6120f381866126cb565b9450600182166000811461210e576001811461212057612153565b60ff1983168652602086019350612153565b61212985612682565b60005b8381101561214b5781548189015260018201915060208101905061212c565b808801955050505b50505092915050565b6000815461216981612771565b61217381866126dc565b9450600182166000811461218e576001811461219f576121d2565b60ff198316865281860193506121d2565b6121a885612682565b60005b838110156121ca578154818901526001820191506020810190506121ab565b838801955050505b50505092915050565b60006121e86014836126cb565b91507f426174636820616c7265616479206578697374730000000000000000000000006000830152602082019050919050565b60006122286013836126cb565b91507f4472756720616c726561647920657869737473000000000000000000000000006000830152602082019050919050565b60006122686015836126cb565b91507f4e6f74207468652063757272656e74206f776e657200000000000000000000006000830152602082019050919050565b60006122a86014836126cb565b91507f426174636820646f6573206e6f742065786973740000000000000000000000006000830152602082019050919050565b60006122e86013836126cb565b91507f4472756720646f6573206e6f74206578697374000000000000000000000000006000830152602082019050919050565b61232481612725565b82525050565b600061233682846120ab565b915081905092915050565b600061234d828461215c565b915081905092915050565b600060208201905061236d6000830184611ff6565b92915050565b6000602082019050818103600083015261238d8184612005565b905092915050565b600060208201905081810360008301526123af8184612072565b905092915050565b600060a08201905081810360008301526123d18188612072565b90506123e06020830187611ff6565b6123ed6040830186612063565b6123fa6060830185612063565b612407608083018461231b565b9695505050505050565b600060c082019050818103600083015261242b8189612072565b905061243a6020830188612063565b612447604083018761231b565b6124546060830186611ff6565b612461608083018561231b565b61246e60a083018461231b565b979650505050505050565b600060408201905081810360008301526124938185612072565b905081810360208301526124a78184612072565b90509392505050565b600060a08201905081810360008301526124ca8188612072565b905081810360208301526124de8187612072565b90506124ed6040830186611ff6565b6124fa6060830185612063565b6125076080830184612063565b9695505050505050565b6000604082019050818103600083015261252b8185612072565b905061253a602083018461231b565b9392505050565b6000604082019050818103600083015261255b81856120dc565b905061256a602083018461231b565b9392505050565b6000602082019050818103600083015261258a816121db565b9050919050565b600060208201905081810360008301526125aa8161221b565b9050919050565b600060208201905081810360008301526125ca8161225b565b9050919050565b600060208201905081810360008301526125ea8161229b565b9050919050565b6000602082019050818103600083015261260a816122db565b9050919050565b6000604051905081810181811067ffffffffffffffff821117156126385761263761284a565b5b8060405250919050565b600067ffffffffffffffff82111561265d5761265c61284a565b5b601f19601f8301169050602081019050919050565b6000819050602082019050919050565b60008190508160005260206000209050919050565b600081519050919050565b600081519050919050565b6000602082019050919050565b600082825260208201905092915050565b600082825260208201905092915050565b600081905092915050565b60006126f282612705565b9050919050565b60008115159050919050565b600073ffffffffffffffffffffffffffffffffffffffff82169050919050565b6000819050919050565b82818337600083830152505050565b60005b8381101561275c578082015181840152602081019050612741565b8381111561276b576000848401525b50505050565b6000600282049050600182168061278957607f821691505b6020821081141561279d5761279c61281b565b5b50919050565b60006127ae82612725565b91507fffffffffffffffffffffffffffffffffffffffffffffffffffffffffffffffff8214156127e1576127e06127ec565b5b600182019050919050565b7f4e487b7100000000000000000000000000000000000000000000000000000000600052601160045260246000fd5b7f4e487b7100000000000000000000000000000000000000000000000000000000600052602260045260246000fd5b7f4e487b7100000000000000000000000000000000000000000000000000000000600052604160045260246000fd5b6000601f19601f8301169050919050565b612893816126e7565b811461289e57600080fd5b50565b6128aa81612725565b81146128b557600080fd5b5056fea2646970667358221220d47d2d23bdf43f93f2ae44c410c3808930448229f3c5f0ec25785471177d08ed64736f6c63430008000033",
  "immutableReferences": {},
  "source": "// SPDX-License-Identifier: MIT\npragma solidity ^0.8.0;\n\ncontract DrugTracking {\n    \n    struct Batch {\n        string batchId;\n        bool isFaulty;\n        uint256 supplyNumber;\n        address manufacturer;\n        uint256 manufactureDate;\n        uint256 expirationDate;\n    }\n    \n    struct Drug {\n        string serialNumber;\n        string batchId;\n        address currentOwner;\n        address[] previousOwners;\n        bool isVerified;\n        bool isAddedbyUser;\n    }\n\n    mapping(string => Batch) public batches; \n    mapping(string => Drug) public drugs;\n    mapping(string => string[]) public batchToDrugs;\n    mapping(string => address[]) public drugHistory;\n\n    event BatchCreated(string batchId, address indexed manufacturer, uint256 supplyNumber);\n    event DrugCreated(string serialNumber, string batchId, address indexed owner);\n    event DrugTransferred(string serialNumber, address indexed newOwner);\n    event BatchMarkedFaulty(string batchId);\n    event SupplyNumberAlert(string batchId, uint256 incorrectSupplyNumber);\n\n    modifier onlyBatchExists(string memory _batchId) {\n        require(batches[_batchId].manufacturer != address(0), \"Batch does not exist\");\n        _;\n    }\n\n    modifier onlyOwner(string memory _serialNumber) {\n        require(drugs[_serialNumber].currentOwner == msg.sender, \"Not the current owner\");\n        _;\n    }\n\n    modifier drugExists(string memory _serialNumber) {\n        require(drugs[_serialNumber].currentOwner != address(0), \"Drug does not exist\");\n        _;\n    }\n\n    function createBatch(\n        string memory _batchId, \n        uint256 _supplyNumber, \n        uint256 _manufactureDate, \n        uint256 _expirationDate\n    ) public {\n        require(batches[_batchId].manufacturer == address(0), \"Batch already exists\");\n        batches[_batchId] = Batch({\n            batchId: _batchId,\n            isFaulty: false,\n            supplyNumber: _supplyNumber,\n            manufacturer: msg.sender,\n            manufactureDate: _manufactureDate,\n            expirationDate: _expirationDate\n        });\n\n        emit BatchCreated(_batchId, msg.sender, _supplyNumber);\n    }\n\n    function createDrug(\n        string memory _serialNumber,\n        string memory _batchId\n    ) public onlyBatchExists(_batchId) {\n        require(drugs[_serialNumber].currentOwner == address(0), \"Drug already exists\");\n\n        address[] memory emptyArray;\n        drugs[_serialNumber] = Drug({\n            serialNumber: _serialNumber,\n            batchId: _batchId,\n            currentOwner: msg.sender,\n            previousOwners: emptyArray,\n            isVerified: false,\n            isAddedbyUser: false\n        });\n        batchToDrugs[_batchId].push(_serialNumber);\n        drugHistory[_serialNumber].push(msg.sender);\n        emit DrugCreated(_serialNumber, _batchId, msg.sender);\n    }\n\n    function transferDrug(string memory _serialNumber, address _newOwner, uint _supplyNumber) public onlyOwner(_serialNumber) {\n        Drug storage drug = drugs[_serialNumber];\n        Batch memory batch = batches[drug.batchId];\n\n        if (batch.supplyNumber != _supplyNumber) {\n            emit SupplyNumberAlert(drug.batchId, _supplyNumber);\n            return;\n        }\n        drug.previousOwners.push(drug.currentOwner);\n        drug.currentOwner = _newOwner;\n        drugHistory[_serialNumber].push(_newOwner);\n\n        emit DrugTransferred(_serialNumber, _newOwner);\n    }\n\n    function markBatchFaulty(string memory _batchId) public onlyBatchExists(_batchId) {\n        batches[_batchId].isFaulty = true;\n        emit BatchMarkedFaulty(_batchId);\n\n        for (uint i = 0; i < batchToDrugs[_batchId].length; i++) {\n            string memory drugSerial = batchToDrugs[_batchId][i];\n            drugs[drugSerial].isVerified = false; \n        }\n    } \n\n    function markDrugFaulty(string memory _serialNumber) public drugExists(_serialNumber) onlyOwner(_serialNumber) {\n        drugs[_serialNumber].isVerified = false;\n        markBatchFaulty(drugs[_serialNumber].batchId);\n    }\n\n    function getDrugDetails(string memory _serialNumber) public view drugExists(_serialNumber) returns (\n        string memory batchId,\n        address currentOwner,\n        bool isVerified,\n        bool isBatchFaulty,\n        uint256 supplyNumber\n    ) {\n        Drug memory drug = drugs[_serialNumber];\n        Batch memory batch = batches[drug.batchId];\n        return (drug.batchId, drug.currentOwner, drug.isVerified, batch.isFaulty, batch.supplyNumber);\n    }\n\n    function getDrugHistory(string memory _serialNumber) public view drugExists(_serialNumber) returns (address[] memory) {\n        return drugHistory[_serialNumber];\n    }\n\n    function verifyDrug(string memory _serialNumber) public drugExists(_serialNumber) {\n        drugs[_serialNumber].isVerified = true;\n    }\n\n}",
  "sourcePath": "/Users/joana/Desktop/VeriPharma/contracts/DrugTracking.sol",
  "compiler": {
    "name": "solc",
    "version": "0.8.0+commit.c7dfd78e.Emscripten.clang"
  },
  "schemaVersion": "3.4.16",
  "updatedAt": "2024-10-12T18:53:50.308Z",
  "devdoc": {
    "kind": "dev",
    "methods": {},
    "version": 1
  },
  "userdoc": {
    "kind": "user",
    "methods": {},
    "version": 1
  }
}