{
  "contractName": "EventLogging",
  "abi": [
    {
      "anonymous": false,
      "inputs": [
        {
          "indexed": false,
          "internalType": "string",
          "name": "batchOrSerialId",
          "type": "string"
        },
        {
          "indexed": false,
          "internalType": "string",
          "name": "eventType",
          "type": "string"
        },
        {
          "indexed": true,
          "internalType": "address",
          "name": "eventOwner",
          "type": "address"
        },
        {
          "indexed": false,
          "internalType": "uint256",
          "name": "timestamp",
          "type": "uint256"
        },
        {
          "indexed": false,
          "internalType": "string",
          "name": "details",
          "type": "string"
        },
        {
          "indexed": false,
          "internalType": "uint256",
          "name": "supplyNumber",
          "type": "uint256"
        }
      ],
      "name": "EventLogged",
      "type": "event"
    },
    {
      "inputs": [
        {
          "internalType": "string",
          "name": "",
          "type": "string"
        },
        {
          "internalType": "uint256",
          "name": "",
          "type": "uint256"
        }
      ],
      "name": "eventsLog",
      "outputs": [
        {
          "internalType": "string",
          "name": "batchOrSerialId",
          "type": "string"
        },
        {
          "internalType": "string",
          "name": "eventType",
          "type": "string"
        },
        {
          "internalType": "address",
          "name": "eventOwner",
          "type": "address"
        },
        {
          "internalType": "uint256",
          "name": "timestamp",
          "type": "uint256"
        },
        {
          "internalType": "string",
          "name": "details",
          "type": "string"
        },
        {
          "internalType": "uint256",
          "name": "supplyNumber",
          "type": "uint256"
        }
      ],
      "stateMutability": "view",
      "type": "function"
    },
    {
      "inputs": [
        {
          "internalType": "string",
          "name": "_batchOrSerialId",
          "type": "string"
        },
        {
          "internalType": "string",
          "name": "_eventType",
          "type": "string"
        },
        {
          "internalType": "string",
          "name": "_details",
          "type": "string"
        },
        {
          "internalType": "uint256",
          "name": "_supplyNumber",
          "type": "uint256"
        }
      ],
      "name": "logEvent",
      "outputs": [],
      "stateMutability": "nonpayable",
      "type": "function"
    },
    {
      "inputs": [
        {
          "internalType": "string",
          "name": "_batchOrSerialId",
          "type": "string"
        }
      ],
      "name": "getEvents",
      "outputs": [
        {
          "components": [
            {
              "internalType": "string",
              "name": "batchOrSerialId",
              "type": "string"
            },
            {
              "internalType": "string",
              "name": "eventType",
              "type": "string"
            },
            {
              "internalType": "address",
              "name": "eventOwner",
              "type": "address"
            },
            {
              "internalType": "uint256",
              "name": "timestamp",
              "type": "uint256"
            },
            {
              "internalType": "string",
              "name": "details",
              "type": "string"
            },
            {
              "internalType": "uint256",
              "name": "supplyNumber",
              "type": "uint256"
            }
          ],
          "internalType": "struct EventLogging.Event[]",
          "name": "",
          "type": "tuple[]"
        }
      ],
      "stateMutability": "view",
      "type": "function"
    }
  ],
  "bytecode": "0x608060405234801561001057600080fd5b50610edf806100206000396000f3fe608060405234801561001057600080fd5b50600436106100415760003560e01c806389398db714610046578063999b74331461007b578063f80e1a3c14610097575b600080fd5b610060600480360381019061005b9190610937565b6100c7565b60405161007296959493929190610bc3565b60405180910390f35b6100956004803603810190610090919061088c565b6102ee565b005b6100b160048036038101906100ac919061084b565b61048e565b6040516100be9190610ba1565b60405180910390f35b60008280516020810182018051848252602083016020850120818352809550505050505081815481106100f957600080fd5b90600052602060002090600602016000915091505080600001805461011d90610df1565b80601f016020809104026020016040519081016040528092919081815260200182805461014990610df1565b80156101965780601f1061016b57610100808354040283529160200191610196565b820191906000526020600020905b81548152906001019060200180831161017957829003601f168201915b5050505050908060010180546101ab90610df1565b80601f01602080910402602001604051908101604052809291908181526020018280546101d790610df1565b80156102245780601f106101f957610100808354040283529160200191610224565b820191906000526020600020905b81548152906001019060200180831161020757829003601f168201915b5050505050908060020160009054906101000a900473ffffffffffffffffffffffffffffffffffffffff169080600301549080600401805461026590610df1565b80601f016020809104026020016040519081016040528092919081815260200182805461029190610df1565b80156102de5780601f106102b3576101008083540402835291602001916102de565b820191906000526020600020905b8154815290600101906020018083116102c157829003601f168201915b5050505050908060050154905086565b60006040518060c001604052808681526020018581526020013373ffffffffffffffffffffffffffffffffffffffff1681526020014281526020018481526020018381525090506000856040516103459190610b8a565b9081526020016040518091039020819080600181540180825580915050600190039060005260206000209060060201600090919091909150600082015181600001908051906020019061039992919061072b565b5060208201518160010190805190602001906103b692919061072b565b5060408201518160020160006101000a81548173ffffffffffffffffffffffffffffffffffffffff021916908373ffffffffffffffffffffffffffffffffffffffff16021790555060608201518160030155608082015181600401908051906020019061042492919061072b565b5060a0820151816005015550503373ffffffffffffffffffffffffffffffffffffffff167f7baa35a8f6881e436f506974defa03282f2a96e92681f2af3a3ca75bd99c2acc868642878760405161047f959493929190610c39565b60405180910390a25050505050565b60606000826040516104a09190610b8a565b9081526020016040518091039020805480602002602001604051908101604052809291908181526020016000905b8282101561072057838290600052602060002090600602016040518060c001604052908160008201805461050190610df1565b80601f016020809104026020016040519081016040528092919081815260200182805461052d90610df1565b801561057a5780601f1061054f5761010080835404028352916020019161057a565b820191906000526020600020905b81548152906001019060200180831161055d57829003601f168201915b5050505050815260200160018201805461059390610df1565b80601f01602080910402602001604051908101604052809291908181526020018280546105bf90610df1565b801561060c5780601f106105e15761010080835404028352916020019161060c565b820191906000526020600020905b8154815290600101906020018083116105ef57829003601f168201915b505050505081526020016002820160009054906101000a900473ffffffffffffffffffffffffffffffffffffffff1673ffffffffffffffffffffffffffffffffffffffff1673ffffffffffffffffffffffffffffffffffffffff1681526020016003820154815260200160048201805461068590610df1565b80601f01602080910402602001604051908101604052809291908181526020018280546106b190610df1565b80156106fe5780601f106106d3576101008083540402835291602001916106fe565b820191906000526020600020905b8154815290600101906020018083116106e157829003601f168201915b50505050508152602001600582015481525050815260200190600101906104ce565b505050509050919050565b82805461073790610df1565b90600052602060002090601f01602090048101928261075957600085556107a0565b82601f1061077257805160ff19168380011785556107a0565b828001600101855582156107a0579182015b8281111561079f578251825591602001919060010190610784565b5b5090506107ad91906107b1565b5090565b5b808211156107ca5760008160009055506001016107b2565b5090565b60006107e16107dc84610cd2565b610ca1565b9050828152602081018484840111156107f957600080fd5b610804848285610daf565b509392505050565b600082601f83011261081d57600080fd5b813561082d8482602086016107ce565b91505092915050565b60008135905061084581610e92565b92915050565b60006020828403121561085d57600080fd5b600082013567ffffffffffffffff81111561087757600080fd5b6108838482850161080c565b91505092915050565b600080600080608085870312156108a257600080fd5b600085013567ffffffffffffffff8111156108bc57600080fd5b6108c88782880161080c565b945050602085013567ffffffffffffffff8111156108e557600080fd5b6108f18782880161080c565b935050604085013567ffffffffffffffff81111561090e57600080fd5b61091a8782880161080c565b925050606061092b87828801610836565b91505092959194509250565b6000806040838503121561094a57600080fd5b600083013567ffffffffffffffff81111561096457600080fd5b6109708582860161080c565b925050602061098185828601610836565b9150509250929050565b60006109978383610ad5565b905092915050565b6109a881610d73565b82525050565b6109b781610d73565b82525050565b60006109c882610d12565b6109d28185610d35565b9350836020820285016109e485610d02565b8060005b85811015610a205784840389528151610a01858261098b565b9450610a0c83610d28565b925060208a019950506001810190506109e8565b50829750879550505050505092915050565b6000610a3d82610d1d565b610a478185610d46565b9350610a57818560208601610dbe565b610a6081610e81565b840191505092915050565b6000610a7682610d1d565b610a808185610d57565b9350610a90818560208601610dbe565b610a9981610e81565b840191505092915050565b6000610aaf82610d1d565b610ab98185610d68565b9350610ac9818560208601610dbe565b80840191505092915050565b600060c0830160008301518482036000860152610af28282610a32565b91505060208301518482036020860152610b0c8282610a32565b9150506040830151610b21604086018261099f565b506060830151610b346060860182610b6c565b5060808301518482036080860152610b4c8282610a32565b91505060a0830151610b6160a0860182610b6c565b508091505092915050565b610b7581610da5565b82525050565b610b8481610da5565b82525050565b6000610b968284610aa4565b915081905092915050565b60006020820190508181036000830152610bbb81846109bd565b905092915050565b600060c0820190508181036000830152610bdd8189610a6b565b90508181036020830152610bf18188610a6b565b9050610c0060408301876109ae565b610c0d6060830186610b7b565b8181036080830152610c1f8185610a6b565b9050610c2e60a0830184610b7b565b979650505050505050565b600060a0820190508181036000830152610c538188610a6b565b90508181036020830152610c678187610a6b565b9050610c766040830186610b7b565b8181036060830152610c888185610a6b565b9050610c976080830184610b7b565b9695505050505050565b6000604051905081810181811067ffffffffffffffff82111715610cc857610cc7610e52565b5b8060405250919050565b600067ffffffffffffffff821115610ced57610cec610e52565b5b601f19601f8301169050602081019050919050565b6000819050602082019050919050565b600081519050919050565b600081519050919050565b6000602082019050919050565b600082825260208201905092915050565b600082825260208201905092915050565b600082825260208201905092915050565b600081905092915050565b6000610d7e82610d85565b9050919050565b600073ffffffffffffffffffffffffffffffffffffffff82169050919050565b6000819050919050565b82818337600083830152505050565b60005b83811015610ddc578082015181840152602081019050610dc1565b83811115610deb576000848401525b50505050565b60006002820490506001821680610e0957607f821691505b60208210811415610e1d57610e1c610e23565b5b50919050565b7f4e487b7100000000000000000000000000000000000000000000000000000000600052602260045260246000fd5b7f4e487b7100000000000000000000000000000000000000000000000000000000600052604160045260246000fd5b6000601f19601f8301169050919050565b610e9b81610da5565b8114610ea657600080fd5b5056fea2646970667358221220d432f2a8f82a6e6d5c08a594b642573bf1c82b23669096f61eb022467ba5467f64736f6c63430008000033",
  "immutableReferences": {},
  "source": "// SPDX-License-Identifier: MIT.\npragma solidity ^0.8.0;\n\ncontract EventLogging {\n    struct Event {\n        string batchOrSerialId;\n        string eventType;\n        address eventOwner;\n        uint256 timestamp;\n        string details;\n        uint256 supplyNumber;\n    }\n\n    mapping(string => Event[]) public eventsLog;\n\n    event EventLogged(string batchOrSerialId, string eventType, address indexed eventOwner, uint256 timestamp, string details, uint256 supplyNumber);\n\n    function logEvent(string memory _batchOrSerialId, string memory _eventType, string memory _details, uint256 _supplyNumber) public {\n        Event memory newEvent = Event({\n            batchOrSerialId: _batchOrSerialId,\n            eventType: _eventType,\n            eventOwner: msg.sender,\n            timestamp: block.timestamp,\n            details: _details,\n            supplyNumber: _supplyNumber\n        });\n        eventsLog[_batchOrSerialId].push(newEvent);\n        emit EventLogged(_batchOrSerialId, _eventType, msg.sender, block.timestamp, _details, _supplyNumber);\n    }\n\n    function getEvents(string memory _batchOrSerialId) public view returns (Event[] memory) {\n        return eventsLog[_batchOrSerialId];\n    }\n    \n}",
  "sourcePath": "/Users/joana/Desktop/VeriPharma/contracts/EventLogging.sol",
  "compiler": {
    "name": "solc",
    "version": "0.8.0+commit.c7dfd78e.Emscripten.clang"
  },
  "schemaVersion": "3.4.16",
  "updatedAt": "2024-10-12T13:25:32.923Z",
  "devdoc": {
    "kind": "dev",
    "methods": {},
    "version": 1
  },
  "userdoc": {
    "kind": "user",
    "methods": {},
    "version": 1
  }
}