{
  "contractName": "Registration",
  "abi": [
    {
      "anonymous": false,
      "inputs": [
        {
          "indexed": false,
          "internalType": "address",
          "name": "stakeholder",
          "type": "address"
        },
        {
          "indexed": false,
          "internalType": "string",
          "name": "role",
          "type": "string"
        }
      ],
      "name": "StakeholderRegistered",
      "type": "event"
    },
    {
      "inputs": [
        {
          "internalType": "uint256",
          "name": "",
          "type": "uint256"
        }
      ],
      "name": "stakeholderList",
      "outputs": [
        {
          "internalType": "address",
          "name": "",
          "type": "address"
        }
      ],
      "stateMutability": "view",
      "type": "function",
      "constant": true
    },
    {
      "inputs": [
        {
          "internalType": "address",
          "name": "",
          "type": "address"
        }
      ],
      "name": "stakeholders",
      "outputs": [
        {
          "internalType": "address",
          "name": "stakeholderAddress",
          "type": "address"
        },
        {
          "internalType": "string",
          "name": "role",
          "type": "string"
        },
        {
          "internalType": "bool",
          "name": "isRegistered",
          "type": "bool"
        }
      ],
      "stateMutability": "view",
      "type": "function",
      "constant": true
    },
    {
      "inputs": [
        {
          "internalType": "address",
          "name": "_stakeholderAddress",
          "type": "address"
        },
        {
          "internalType": "string",
          "name": "_role",
          "type": "string"
        }
      ],
      "name": "registerStakeholder",
      "outputs": [],
      "stateMutability": "nonpayable",
      "type": "function"
    },
    {
      "inputs": [
        {
          "internalType": "address",
          "name": "_stakeholderAddress",
          "type": "address"
        }
      ],
      "name": "getStakeholderDetails",
      "outputs": [
        {
          "internalType": "string",
          "name": "role",
          "type": "string"
        },
        {
          "internalType": "bool",
          "name": "registered",
          "type": "bool"
        }
      ],
      "stateMutability": "view",
      "type": "function",
      "constant": true
    },
    {
      "inputs": [
        {
          "internalType": "address",
          "name": "_stakeholderAddress",
          "type": "address"
        }
      ],
      "name": "isRegistered",
      "outputs": [
        {
          "internalType": "bool",
          "name": "",
          "type": "bool"
        }
      ],
      "stateMutability": "view",
      "type": "function",
      "constant": true
    },
    {
      "inputs": [],
      "name": "getStakeholders",
      "outputs": [
        {
          "internalType": "address[]",
          "name": "",
          "type": "address[]"
        }
      ],
      "stateMutability": "view",
      "type": "function",
      "constant": true
    }
  ],
  "bytecode": "0x608060405260405180608001604052806040518060400160405280600e81526020017f504841524d415f434f4d50414e5900000000000000000000000000000000000081525081526020016040518060400160405280600c81526020017f4d414e554641435455524552000000000000000000000000000000000000000081525081526020016040518060400160405280600881526020017f52455441494c455200000000000000000000000000000000000000000000000081525081526020016040518060400160405280600881526020017f454e445f5553455200000000000000000000000000000000000000000000000081525081525060029060046200010b92919062000120565b503480156200011957600080fd5b506200030a565b82805482825590600052602060002090810192821562000174579160200282015b82811115620001735782518290805190602001906200016292919062000187565b509160200191906001019062000141565b5b50905062000183919062000218565b5090565b8280546200019590620002a5565b90600052602060002090601f016020900481019282620001b9576000855562000205565b82601f10620001d457805160ff191683800117855562000205565b8280016001018555821562000205579182015b8281111562000204578251825591602001919060010190620001e7565b5b50905062000214919062000240565b5090565b5b808211156200023c57600081816200023291906200025f565b5060010162000219565b5090565b5b808211156200025b57600081600090555060010162000241565b5090565b5080546200026d90620002a5565b6000825580601f10620002815750620002a2565b601f016020900490600052602060002090810190620002a1919062000240565b5b50565b60006002820490506001821680620002be57607f821691505b60208210811415620002d557620002d4620002db565b5b50919050565b7f4e487b7100000000000000000000000000000000000000000000000000000000600052602260045260246000fd5b6110e7806200031a6000396000f3fe608060405234801561001057600080fd5b50600436106100625760003560e01c8063ae51cef914610067578063b699224714610098578063c07cfca9146100b6578063c3c5a547146100e8578063ca35918d14610118578063e320f57614610134575b600080fd5b610081600480360381019061007c9190610994565b610164565b60405161008f929190610d7a565b60405180910390f35b6100a061031b565b6040516100ad9190610d3d565b60405180910390f35b6100d060048036038101906100cb9190610994565b6103a9565b6040516100df93929190610cff565b60405180910390f35b61010260048036038101906100fd9190610994565b610488565b60405161010f9190610d5f565b60405180910390f35b610132600480360381019061012d91906109bd565b6104e0565b005b61014e60048036038101906101499190610a11565b610750565b60405161015b9190610cb4565b60405180910390f35b606060008060008473ffffffffffffffffffffffffffffffffffffffff1673ffffffffffffffffffffffffffffffffffffffff16815260200190815260200160002060020160009054906101000a900460ff166101f6576040517f08c379a00000000000000000000000000000000000000000000000000000000081526004016101ed90610dca565b60405180910390fd5b6000808473ffffffffffffffffffffffffffffffffffffffff1673ffffffffffffffffffffffffffffffffffffffff1681526020019081526020016000206001016000808573ffffffffffffffffffffffffffffffffffffffff1673ffffffffffffffffffffffffffffffffffffffff16815260200190815260200160002060020160009054906101000a900460ff1681805461029290610f6a565b80601f01602080910402602001604051908101604052809291908181526020018280546102be90610f6a565b801561030b5780601f106102e05761010080835404028352916020019161030b565b820191906000526020600020905b8154815290600101906020018083116102ee57829003601f168201915b5050505050915091509150915091565b6060600180548060200260200160405190810160405280929190818152602001828054801561039f57602002820191906000526020600020905b8160009054906101000a900473ffffffffffffffffffffffffffffffffffffffff1673ffffffffffffffffffffffffffffffffffffffff1681526020019060010190808311610355575b5050505050905090565b60006020528060005260406000206000915090508060000160009054906101000a900473ffffffffffffffffffffffffffffffffffffffff16908060010180546103f290610f6a565b80601f016020809104026020016040519081016040528092919081815260200182805461041e90610f6a565b801561046b5780601f106104405761010080835404028352916020019161046b565b820191906000526020600020905b81548152906001019060200180831161044e57829003601f168201915b5050505050908060020160009054906101000a900460ff16905083565b60008060008373ffffffffffffffffffffffffffffffffffffffff1673ffffffffffffffffffffffffffffffffffffffff16815260200190815260200160002060020160009054906101000a900460ff169050919050565b6000808373ffffffffffffffffffffffffffffffffffffffff1673ffffffffffffffffffffffffffffffffffffffff16815260200190815260200160002060020160009054906101000a900460ff161561056f576040517f08c379a000000000000000000000000000000000000000000000000000000000815260040161056690610daa565b60405180910390fd5b6105788161078f565b6105b7576040517f08c379a00000000000000000000000000000000000000000000000000000000081526004016105ae90610dea565b60405180910390fd5b60405180606001604052808373ffffffffffffffffffffffffffffffffffffffff168152602001828152602001600115158152506000808473ffffffffffffffffffffffffffffffffffffffff1673ffffffffffffffffffffffffffffffffffffffff16815260200190815260200160002060008201518160000160006101000a81548173ffffffffffffffffffffffffffffffffffffffff021916908373ffffffffffffffffffffffffffffffffffffffff160217905550602082015181600101908051906020019061068c92919061085f565b5060408201518160020160006101000a81548160ff0219169083151502179055509050506001829080600181540180825580915050600190039060005260206000200160009091909190916101000a81548173ffffffffffffffffffffffffffffffffffffffff021916908373ffffffffffffffffffffffffffffffffffffffff1602179055507ffb8c88632fd72badcd6d52fac5bfb4fadcb7c7eec796b3ade03fb0c48c82e42c8282604051610744929190610ccf565b60405180910390a15050565b6001818154811061076057600080fd5b906000526020600020016000915054906101000a900473ffffffffffffffffffffffffffffffffffffffff1681565b600080600090505b600481101561085457826040516020016107b19190610c86565b6040516020818303038152906040528051906020012060028281548110610801577f4e487b7100000000000000000000000000000000000000000000000000000000600052603260045260246000fd5b9060005260206000200160405160200161081b9190610c9d565b60405160208183030381529060405280519060200120141561084157600191505061085a565b808061084c90610f9c565b915050610797565b50600090505b919050565b82805461086b90610f6a565b90600052602060002090601f01602090048101928261088d57600085556108d4565b82601f106108a657805160ff19168380011785556108d4565b828001600101855582156108d4579182015b828111156108d35782518255916020019190600101906108b8565b5b5090506108e191906108e5565b5090565b5b808211156108fe5760008160009055506001016108e6565b5090565b600061091561091084610e3b565b610e0a565b90508281526020810184848401111561092d57600080fd5b610938848285610f28565b509392505050565b60008135905061094f81611083565b92915050565b600082601f83011261096657600080fd5b8135610976848260208601610902565b91505092915050565b60008135905061098e8161109a565b92915050565b6000602082840312156109a657600080fd5b60006109b484828501610940565b91505092915050565b600080604083850312156109d057600080fd5b60006109de85828601610940565b925050602083013567ffffffffffffffff8111156109fb57600080fd5b610a0785828601610955565b9150509250929050565b600060208284031215610a2357600080fd5b6000610a318482850161097f565b91505092915050565b6000610a468383610a52565b60208301905092915050565b610a5b81610ee0565b82525050565b610a6a81610ee0565b82525050565b6000610a7b82610e90565b610a858185610eb3565b9350610a9083610e6b565b8060005b83811015610ac1578151610aa88882610a3a565b9750610ab383610ea6565b925050600181019050610a94565b5085935050505092915050565b610ad781610ef2565b82525050565b6000610ae882610e9b565b610af28185610ec4565b9350610b02818560208601610f37565b610b0b81611072565b840191505092915050565b6000610b2182610e9b565b610b2b8185610ed5565b9350610b3b818560208601610f37565b80840191505092915050565b60008154610b5481610f6a565b610b5e8186610ed5565b94506001821660008114610b795760018114610b8a57610bbd565b60ff19831686528186019350610bbd565b610b9385610e7b565b60005b83811015610bb557815481890152600182019150602081019050610b96565b838801955050505b50505092915050565b6000610bd3601283610ec4565b91507f416c7265616479207265676973746572656400000000000000000000000000006000830152602082019050919050565b6000610c13601583610ec4565b91507f5374616b65686f6c646572206e6f7420666f756e6400000000000000000000006000830152602082019050919050565b6000610c53600c83610ec4565b91507f496e76616c696420726f6c6500000000000000000000000000000000000000006000830152602082019050919050565b6000610c928284610b16565b915081905092915050565b6000610ca98284610b47565b915081905092915050565b6000602082019050610cc96000830184610a61565b92915050565b6000604082019050610ce46000830185610a61565b8181036020830152610cf68184610add565b90509392505050565b6000606082019050610d146000830186610a61565b8181036020830152610d268185610add565b9050610d356040830184610ace565b949350505050565b60006020820190508181036000830152610d578184610a70565b905092915050565b6000602082019050610d746000830184610ace565b92915050565b60006040820190508181036000830152610d948185610add565b9050610da36020830184610ace565b9392505050565b60006020820190508181036000830152610dc381610bc6565b9050919050565b60006020820190508181036000830152610de381610c06565b9050919050565b60006020820190508181036000830152610e0381610c46565b9050919050565b6000604051905081810181811067ffffffffffffffff82111715610e3157610e30611043565b5b8060405250919050565b600067ffffffffffffffff821115610e5657610e55611043565b5b601f19601f8301169050602081019050919050565b6000819050602082019050919050565b60008190508160005260206000209050919050565b600081519050919050565b600081519050919050565b6000602082019050919050565b600082825260208201905092915050565b600082825260208201905092915050565b600081905092915050565b6000610eeb82610efe565b9050919050565b60008115159050919050565b600073ffffffffffffffffffffffffffffffffffffffff82169050919050565b6000819050919050565b82818337600083830152505050565b60005b83811015610f55578082015181840152602081019050610f3a565b83811115610f64576000848401525b50505050565b60006002820490506001821680610f8257607f821691505b60208210811415610f9657610f95611014565b5b50919050565b6000610fa782610f1e565b91507fffffffffffffffffffffffffffffffffffffffffffffffffffffffffffffffff821415610fda57610fd9610fe5565b5b600182019050919050565b7f4e487b7100000000000000000000000000000000000000000000000000000000600052601160045260246000fd5b7f4e487b7100000000000000000000000000000000000000000000000000000000600052602260045260246000fd5b7f4e487b7100000000000000000000000000000000000000000000000000000000600052604160045260246000fd5b6000601f19601f8301169050919050565b61108c81610ee0565b811461109757600080fd5b50565b6110a381610f1e565b81146110ae57600080fd5b5056fea2646970667358221220fa6a3cf31e2721b26268401155474edc1059604fd4885ad3ef429f4a5c43a4b164736f6c63430008000033",
  "immutableReferences": {},
  "source": "// SPDX-License-Identifier: MIT\npragma solidity ^0.8.0;\n\ncontract Registration {\n\n    struct Stakeholder {\n        address stakeholderAddress;\n        string role;\n        bool isRegistered;\n    }\n\n    mapping(address => Stakeholder) public stakeholders;\n    address[] public stakeholderList;\n\n    string[] private validRoles = [\"PHARMA_COMPANY\", \"MANUFACTURER\", \"RETAILER\", \"END_USER\"];\n\n    event StakeholderRegistered(address stakeholder, string role);\n\n    modifier onlyRegistered() {\n        require(stakeholders[msg.sender].isRegistered, \"Not registered\");\n        _;\n    }\n\n    function isValidRole(string memory _role) private view returns (bool) {\n        for (uint256 i = 0; i < 4; i++) {\n            /*\n            he code is checking if the _role (the input role) matches \n            any of the strings stored in the validRoles array by comparing \n            their keccak256 hashes. Since comparing hashes is much faster and secure than comparing strings directly, this is a common pattern in Solidity for string comparisons.\n            */\n            if (keccak256(abi.encodePacked(validRoles[i])) == keccak256(abi.encodePacked(_role))) {\n                return true;\n            }\n        }\n        return false;\n    }\n\n    function registerStakeholder(address _stakeholderAddress, string memory _role) public {\n        require(!stakeholders[_stakeholderAddress].isRegistered, \"Already registered\");\n        require(isValidRole(_role), \"Invalid role\");\n\n        stakeholders[_stakeholderAddress] = Stakeholder({\n            stakeholderAddress: _stakeholderAddress,\n            role: _role,\n            isRegistered: true\n        });\n        stakeholderList.push(_stakeholderAddress);\n        emit StakeholderRegistered(_stakeholderAddress, _role);\n    }\n\n   function getStakeholderDetails(address _stakeholderAddress) public view returns (string memory role, bool registered) {\n    require(stakeholders[_stakeholderAddress].isRegistered, \"Stakeholder not found\");\n    return (stakeholders[_stakeholderAddress].role, stakeholders[_stakeholderAddress].isRegistered);\n}\n\n    function isRegistered(address _stakeholderAddress) public view returns (bool) {\n        return stakeholders[_stakeholderAddress].isRegistered;\n    }\n\n    function getStakeholders() public view returns (address[] memory) {\n        return stakeholderList;\n    }\n\n}",
  "sourcePath": "/Users/joana/Desktop/VeriPharma/contracts/Registration.sol",
  "compiler": {
    "name": "solc",
    "version": "0.8.0+commit.c7dfd78e.Emscripten.clang"
  },
  "schemaVersion": "3.4.16",
  "updatedAt": "2024-10-12T14:07:49.934Z",
  "networkType": "ethereum",
  "devdoc": {
    "kind": "dev",
    "methods": {},
    "version": 1
  },
  "userdoc": {
    "kind": "user",
    "methods": {},
    "version": 1
  }
}