{
  "_format": "hh-sol-artifact-1",
  "contractName": "DrugVerification",
  "sourceName": "contracts/DrugVerification.sol",
  "abi": [
    {
      "anonymous": false,
      "inputs": [
        {
          "indexed": false,
          "internalType": "string",
          "name": "batchId",
          "type": "string"
        },
        {
          "indexed": false,
          "internalType": "bool",
          "name": "isFlagged",
          "type": "bool"
        }
      ],
      "name": "BatchFlagged",
      "type": "event"
    },
    {
      "anonymous": false,
      "inputs": [
        {
          "indexed": false,
          "internalType": "string",
          "name": "batchId",
          "type": "string"
        },
        {
          "indexed": false,
          "internalType": "bool",
          "name": "isVerified",
          "type": "bool"
        }
      ],
      "name": "BatchVerified",
      "type": "event"
    },
    {
      "anonymous": false,
      "inputs": [
        {
          "indexed": false,
          "internalType": "string",
          "name": "serialNumber",
          "type": "string"
        },
        {
          "indexed": false,
          "internalType": "bool",
          "name": "isFlagged",
          "type": "bool"
        }
      ],
      "name": "DrugFlagged",
      "type": "event"
    },
    {
      "anonymous": false,
      "inputs": [
        {
          "indexed": false,
          "internalType": "string",
          "name": "batchId",
          "type": "string"
        },
        {
          "indexed": false,
          "internalType": "uint256",
          "name": "incorrectSupplyNumber",
          "type": "uint256"
        }
      ],
      "name": "SupplyNumberAlert",
      "type": "event"
    },
    {
      "inputs": [
        {
          "internalType": "string",
          "name": "_batchId",
          "type": "string"
        },
        {
          "internalType": "uint256",
          "name": "_incorrectSupplyNumber",
          "type": "uint256"
        }
      ],
      "name": "alertSupplyNumberDiscrepancy",
      "outputs": [],
      "stateMutability": "nonpayable",
      "type": "function"
    },
    {
      "inputs": [
        {
          "internalType": "string",
          "name": "_batchId",
          "type": "string"
        }
      ],
      "name": "flagBatch",
      "outputs": [],
      "stateMutability": "nonpayable",
      "type": "function"
    },
    {
      "inputs": [
        {
          "internalType": "string",
          "name": "_serialNumber",
          "type": "string"
        }
      ],
      "name": "flagDrug",
      "outputs": [],
      "stateMutability": "nonpayable",
      "type": "function"
    },
    {
      "inputs": [
        {
          "internalType": "string",
          "name": "",
          "type": "string"
        }
      ],
      "name": "flaggedBatches",
      "outputs": [
        {
          "internalType": "bool",
          "name": "",
          "type": "bool"
        }
      ],
      "stateMutability": "view",
      "type": "function"
    },
    {
      "inputs": [
        {
          "internalType": "string",
          "name": "",
          "type": "string"
        }
      ],
      "name": "flaggedDrugs",
      "outputs": [
        {
          "internalType": "bool",
          "name": "",
          "type": "bool"
        }
      ],
      "stateMutability": "view",
      "type": "function"
    },
    {
      "inputs": [
        {
          "internalType": "string",
          "name": "_batchId",
          "type": "string"
        }
      ],
      "name": "isBatchFlagged",
      "outputs": [
        {
          "internalType": "bool",
          "name": "",
          "type": "bool"
        }
      ],
      "stateMutability": "view",
      "type": "function"
    },
    {
      "inputs": [
        {
          "internalType": "string",
          "name": "_batchId",
          "type": "string"
        }
      ],
      "name": "isBatchVerified",
      "outputs": [
        {
          "internalType": "bool",
          "name": "",
          "type": "bool"
        }
      ],
      "stateMutability": "view",
      "type": "function"
    },
    {
      "inputs": [
        {
          "internalType": "string",
          "name": "_serialNumber",
          "type": "string"
        }
      ],
      "name": "isDrugFlagged",
      "outputs": [
        {
          "internalType": "bool",
          "name": "",
          "type": "bool"
        }
      ],
      "stateMutability": "view",
      "type": "function"
    },
    {
      "inputs": [
        {
          "internalType": "string",
          "name": "",
          "type": "string"
        }
      ],
      "name": "verifiedBatches",
      "outputs": [
        {
          "internalType": "bool",
          "name": "",
          "type": "bool"
        }
      ],
      "stateMutability": "view",
      "type": "function"
    },
    {
      "inputs": [
        {
          "internalType": "string",
          "name": "",
          "type": "string"
        }
      ],
      "name": "verifiedDrugs",
      "outputs": [
        {
          "internalType": "bool",
          "name": "",
          "type": "bool"
        }
      ],
      "stateMutability": "view",
      "type": "function"
    },
    {
      "inputs": [
        {
          "internalType": "string",
          "name": "_batchId",
          "type": "string"
        }
      ],
      "name": "verifyBatch",
      "outputs": [],
      "stateMutability": "nonpayable",
      "type": "function"
    }
  ],
  "bytecode": "0x608060405234801561001057600080fd5b50610cb7806100206000396000f3fe608060405234801561001057600080fd5b50600436106100a95760003560e01c80639bcb939b116100715780639bcb939b1461019e578063af9c8da3146101ba578063b2721e0f146101d6578063bccb56a0146101f2578063e906dc4214610222578063ed0a71001461023e576100a9565b80633d127864146100ae5780633e2cefe5146100de5780634048e6d01461010e578063466997261461013e5780636fcde51d1461016e575b600080fd5b6100c860048036038101906100c39190610957565b61026e565b6040516100d591906109bb565b60405180910390f35b6100f860048036038101906100f39190610957565b610343565b60405161010591906109bb565b60405180910390f35b61012860048036038101906101239190610957565b610379565b60405161013591906109bb565b60405180910390f35b61015860048036038101906101539190610957565b61044e565b60405161016591906109bb565b60405180910390f35b61018860048036038101906101839190610957565b610523565b60405161019591906109bb565b60405180910390f35b6101b860048036038101906101b39190610957565b610559565b005b6101d460048036038101906101cf9190610a0c565b6105cc565b005b6101f060048036038101906101eb9190610957565b610609565b005b61020c60048036038101906102079190610957565b61071d565b60405161021991906109bb565b60405180910390f35b61023c60048036038101906102379190610957565b610753565b005b61025860048036038101906102539190610957565b6107c7565b60405161026591906109bb565b60405180910390f35b6000816002816040516102819190610ad9565b908152602001604051809103902060009054906101000a900460ff16806102d057506003816040516102b39190610ad9565b908152602001604051809103902060009054906101000a900460ff165b61030f576040517f08c379a000000000000000000000000000000000000000000000000000000000815260040161030690610b4d565b60405180910390fd5b60038360405161031f9190610ad9565b908152602001604051809103902060009054906101000a900460ff16915050919050565b6003818051602081018201805184825260208301602085012081835280955050505050506000915054906101000a900460ff1681565b60008160008160405161038c9190610ad9565b908152602001604051809103902060009054906101000a900460ff16806103db57506001816040516103be9190610ad9565b908152602001604051809103902060009054906101000a900460ff165b61041a576040517f08c379a000000000000000000000000000000000000000000000000000000000815260040161041190610bb9565b60405180910390fd5b60008360405161042a9190610ad9565b908152602001604051809103902060009054906101000a900460ff16915050919050565b6000816000816040516104619190610ad9565b908152602001604051809103902060009054906101000a900460ff16806104b057506001816040516104939190610ad9565b908152602001604051809103902060009054906101000a900460ff165b6104ef576040517f08c379a00000000000000000000000000000000000000000000000000000000081526004016104e690610bb9565b60405180910390fd5b6001836040516104ff9190610ad9565b908152602001604051809103902060009054906101000a900460ff16915050919050565b6000818051602081018201805184825260208301602085012081835280955050505050506000915054906101000a900460ff1681565b6001808260405161056a9190610ad9565b908152602001604051809103902060006101000a81548160ff0219169083151502179055507f3f6f555b2a33cc75af5766fee6646ea4b5016b2726c3dd25594457b843448d308160016040516105c1929190610c12565b60405180910390a150565b7f19125b12f9152fb1dbc961776766cf947575362cabee477ec34eda0572f3c3c782826040516105fd929190610c51565b60405180910390a15050565b8060028160405161061a9190610ad9565b908152602001604051809103902060009054906101000a900460ff1680610669575060038160405161064c9190610ad9565b908152602001604051809103902060009054906101000a900460ff165b6106a8576040517f08c379a000000000000000000000000000000000000000000000000000000000815260040161069f90610b4d565b60405180910390fd5b60016003836040516106ba9190610ad9565b908152602001604051809103902060006101000a81548160ff0219169083151502179055507fa11ec991167eea449b8e754aee3a548f625c870cdfb59ad0481edc5ff1ac12b5826001604051610711929190610c12565b60405180910390a15050565b6001818051602081018201805184825260208301602085012081835280955050505050506000915054906101000a900460ff1681565b60016000826040516107659190610ad9565b908152602001604051809103902060006101000a81548160ff0219169083151502179055507f03597dc9f270e6a92ae04f0d2465d7df0ee3de0c944d5ab75be4403357d649498160016040516107bc929190610c12565b60405180910390a150565b6002818051602081018201805184825260208301602085012081835280955050505050506000915054906101000a900460ff1681565b6000604051905090565b600080fd5b600080fd5b600080fd5b600080fd5b6000601f19601f8301169050919050565b7f4e487b7100000000000000000000000000000000000000000000000000000000600052604160045260246000fd5b6108648261081b565b810181811067ffffffffffffffff821117156108835761088261082c565b5b80604052505050565b60006108966107fd565b90506108a2828261085b565b919050565b600067ffffffffffffffff8211156108c2576108c161082c565b5b6108cb8261081b565b9050602081019050919050565b82818337600083830152505050565b60006108fa6108f5846108a7565b61088c565b90508281526020810184848401111561091657610915610816565b5b6109218482856108d8565b509392505050565b600082601f83011261093e5761093d610811565b5b813561094e8482602086016108e7565b91505092915050565b60006020828403121561096d5761096c610807565b5b600082013567ffffffffffffffff81111561098b5761098a61080c565b5b61099784828501610929565b91505092915050565b60008115159050919050565b6109b5816109a0565b82525050565b60006020820190506109d060008301846109ac565b92915050565b6000819050919050565b6109e9816109d6565b81146109f457600080fd5b50565b600081359050610a06816109e0565b92915050565b60008060408385031215610a2357610a22610807565b5b600083013567ffffffffffffffff811115610a4157610a4061080c565b5b610a4d85828601610929565b9250506020610a5e858286016109f7565b9150509250929050565b600081519050919050565b600081905092915050565b60005b83811015610a9c578082015181840152602081019050610a81565b60008484015250505050565b6000610ab382610a68565b610abd8185610a73565b9350610acd818560208601610a7e565b80840191505092915050565b6000610ae58284610aa8565b915081905092915050565b600082825260208201905092915050565b7f44727567206e6f7420666f756e64000000000000000000000000000000000000600082015250565b6000610b37600e83610af0565b9150610b4282610b01565b602082019050919050565b60006020820190508181036000830152610b6681610b2a565b9050919050565b7f4261746368206e6f7420666f756e640000000000000000000000000000000000600082015250565b6000610ba3600f83610af0565b9150610bae82610b6d565b602082019050919050565b60006020820190508181036000830152610bd281610b96565b9050919050565b6000610be482610a68565b610bee8185610af0565b9350610bfe818560208601610a7e565b610c078161081b565b840191505092915050565b60006040820190508181036000830152610c2c8185610bd9565b9050610c3b60208301846109ac565b9392505050565b610c4b816109d6565b82525050565b60006040820190508181036000830152610c6b8185610bd9565b9050610c7a6020830184610c42565b939250505056fea2646970667358221220edbd7bf18b37e3b62265bf067fc9ad2f088484f6889dd71dfbadb5ab95f8525664736f6c63430008140033",
  "linkReferences": {},
  "deployedLinkReferences": {}
}