{
  "_format": "hh-sol-artifact-1",
  "contractName": "DrugTracking",
  "sourceName": "contracts/DrugTracking.sol",
  "abi": [
    {
      "anonymous": false,
      "inputs": [
        {
          "indexed": false,
          "internalType": "string",
          "name": "batchId",
          "type": "string"
        },
        {
          "indexed": true,
          "internalType": "address",
          "name": "manufacturer",
          "type": "address"
        },
        {
          "indexed": false,
          "internalType": "uint256",
          "name": "supplyNumber",
          "type": "uint256"
        }
      ],
      "name": "BatchCreated",
      "type": "event"
    },
    {
      "anonymous": false,
      "inputs": [
        {
          "indexed": false,
          "internalType": "string",
          "name": "batchId",
          "type": "string"
        }
      ],
      "name": "BatchMarkedFaulty",
      "type": "event"
    },
    {
      "anonymous": false,
      "inputs": [
        {
          "indexed": false,
          "internalType": "string",
          "name": "serialNumber",
          "type": "string"
        },
        {
          "indexed": false,
          "internalType": "string",
          "name": "batchId",
          "type": "string"
        },
        {
          "indexed": true,
          "internalType": "address",
          "name": "owner",
          "type": "address"
        }
      ],
      "name": "DrugCreated",
      "type": "event"
    },
    {
      "anonymous": false,
      "inputs": [
        {
          "indexed": false,
          "internalType": "string",
          "name": "serialNumber",
          "type": "string"
        },
        {
          "indexed": true,
          "internalType": "address",
          "name": "newOwner",
          "type": "address"
        }
      ],
      "name": "DrugTransferred",
      "type": "event"
    },
    {
      "anonymous": false,
      "inputs": [
        {
          "indexed": false,
          "internalType": "string",
          "name": "batchId",
          "type": "string"
        },
        {
          "indexed": false,
          "internalType": "uint256",
          "name": "incorrectSupplyNumber",
          "type": "uint256"
        }
      ],
      "name": "SupplyNumberAlert",
      "type": "event"
    },
    {
      "inputs": [
        {
          "internalType": "string",
          "name": "",
          "type": "string"
        },
        {
          "internalType": "uint256",
          "name": "",
          "type": "uint256"
        }
      ],
      "name": "batchToDrugs",
      "outputs": [
        {
          "internalType": "string",
          "name": "",
          "type": "string"
        }
      ],
      "stateMutability": "view",
      "type": "function"
    },
    {
      "inputs": [
        {
          "internalType": "string",
          "name": "",
          "type": "string"
        }
      ],
      "name": "batches",
      "outputs": [
        {
          "internalType": "string",
          "name": "batchId",
          "type": "string"
        },
        {
          "internalType": "bool",
          "name": "isFaulty",
          "type": "bool"
        },
        {
          "internalType": "uint256",
          "name": "supplyNumber",
          "type": "uint256"
        },
        {
          "internalType": "address",
          "name": "manufacturer",
          "type": "address"
        },
        {
          "internalType": "uint256",
          "name": "manufactureDate",
          "type": "uint256"
        },
        {
          "internalType": "uint256",
          "name": "expirationDate",
          "type": "uint256"
        }
      ],
      "stateMutability": "view",
      "type": "function"
    },
    {
      "inputs": [
        {
          "internalType": "string",
          "name": "_batchId",
          "type": "string"
        },
        {
          "internalType": "uint256",
          "name": "_supplyNumber",
          "type": "uint256"
        },
        {
          "internalType": "uint256",
          "name": "_manufactureDate",
          "type": "uint256"
        },
        {
          "internalType": "uint256",
          "name": "_expirationDate",
          "type": "uint256"
        }
      ],
      "name": "createBatch",
      "outputs": [],
      "stateMutability": "nonpayable",
      "type": "function"
    },
    {
      "inputs": [
        {
          "internalType": "string",
          "name": "_serialNumber",
          "type": "string"
        },
        {
          "internalType": "string",
          "name": "_batchId",
          "type": "string"
        }
      ],
      "name": "createDrug",
      "outputs": [],
      "stateMutability": "nonpayable",
      "type": "function"
    },
    {
      "inputs": [
        {
          "internalType": "string",
          "name": "",
          "type": "string"
        },
        {
          "internalType": "uint256",
          "name": "",
          "type": "uint256"
        }
      ],
      "name": "drugHistory",
      "outputs": [
        {
          "internalType": "address",
          "name": "",
          "type": "address"
        }
      ],
      "stateMutability": "view",
      "type": "function"
    },
    {
      "inputs": [
        {
          "internalType": "string",
          "name": "",
          "type": "string"
        }
      ],
      "name": "drugs",
      "outputs": [
        {
          "internalType": "string",
          "name": "serialNumber",
          "type": "string"
        },
        {
          "internalType": "string",
          "name": "batchId",
          "type": "string"
        },
        {
          "internalType": "address",
          "name": "currentOwner",
          "type": "address"
        },
        {
          "internalType": "bool",
          "name": "isVerified",
          "type": "bool"
        },
        {
          "internalType": "bool",
          "name": "isAddedbyUser",
          "type": "bool"
        }
      ],
      "stateMutability": "view",
      "type": "function"
    },
    {
      "inputs": [
        {
          "internalType": "string",
          "name": "_serialNumber",
          "type": "string"
        }
      ],
      "name": "getDrugDetails",
      "outputs": [
        {
          "internalType": "string",
          "name": "batchId",
          "type": "string"
        },
        {
          "internalType": "address",
          "name": "currentOwner",
          "type": "address"
        },
        {
          "internalType": "bool",
          "name": "isVerified",
          "type": "bool"
        },
        {
          "internalType": "bool",
          "name": "isBatchFaulty",
          "type": "bool"
        },
        {
          "internalType": "uint256",
          "name": "supplyNumber",
          "type": "uint256"
        }
      ],
      "stateMutability": "view",
      "type": "function"
    },
    {
      "inputs": [
        {
          "internalType": "string",
          "name": "_serialNumber",
          "type": "string"
        }
      ],
      "name": "getDrugHistory",
      "outputs": [
        {
          "internalType": "address[]",
          "name": "",
          "type": "address[]"
        }
      ],
      "stateMutability": "view",
      "type": "function"
    },
    {
      "inputs": [
        {
          "internalType": "string",
          "name": "_serialNumber",
          "type": "string"
        }
      ],
      "name": "isOwner",
      "outputs": [
        {
          "internalType": "bool",
          "name": "",
          "type": "bool"
        }
      ],
      "stateMutability": "view",
      "type": "function"
    },
    {
      "inputs": [
        {
          "internalType": "string",
          "name": "_batchId",
          "type": "string"
        }
      ],
      "name": "markBatchFaulty",
      "outputs": [],
      "stateMutability": "nonpayable",
      "type": "function"
    },
    {
      "inputs": [
        {
          "internalType": "string",
          "name": "_serialNumber",
          "type": "string"
        }
      ],
      "name": "markDrugFaulty",
      "outputs": [],
      "stateMutability": "nonpayable",
      "type": "function"
    },
    {
      "inputs": [
        {
          "internalType": "string",
          "name": "_serialNumber",
          "type": "string"
        },
        {
          "internalType": "address",
          "name": "_newOwner",
          "type": "address"
        },
        {
          "internalType": "uint256",
          "name": "_supplyNumber",
          "type": "uint256"
        }
      ],
      "name": "transferDrug",
      "outputs": [],
      "stateMutability": "nonpayable",
      "type": "function"
    },
    {
      "inputs": [
        {
          "internalType": "string",
          "name": "_serialNumber",
          "type": "string"
        }
      ],
      "name": "verifyDrug",
      "outputs": [],
      "stateMutability": "nonpayable",
      "type": "function"
    }
  ],
  "bytecode": "0x608060405234801561001057600080fd5b50612cbc806100206000396000f3fe608060405234801561001057600080fd5b50600436106100cf5760003560e01c80636dfefdab1161008c578063ad896f9711610066578063ad896f971461023d578063b009493d14610259578063b85e943d1461028d578063e40f874c146102bd576100cf565b80636dfefdab146101d05780637ef1446a146101ec578063a1c1743b14610221576100cf565b80631a197688146100d45780633b7b0a74146101045780633f4ebcd114610120578063567e963614610150578063582548e314610184578063624926c5146101a0575b600080fd5b6100ee60048036038101906100e99190611f5e565b6102d9565b6040516100fb9190612039565b60405180910390f35b61011e6004803603810190610119919061205b565b6103a8565b005b61013a60048036038101906101359190611f5e565b610496565b60405161014791906120e5565b60405180910390f35b61016a6004803603810190610165919061205b565b6104fa565b60405161017b95949392919061212a565b60405180910390f35b61019e6004803603810190610199919061205b565b61099e565b005b6101ba60048036038101906101b5919061205b565b610bf0565b6040516101c79190612242565b60405180910390f35b6101ea60048036038101906101e5919061205b565b610d4e565b005b6102066004803603810190610201919061205b565b610fb6565b60405161021896959493929190612264565b60405180910390f35b61023b600480360381019061023691906122cc565b6110bd565b005b6102576004803603810190610252919061237b565b6112c5565b005b610273600480360381019061026e919061205b565b6116d7565b6040516102849594939291906123ea565b60405180910390f35b6102a760048036038101906102a2919061205b565b61186d565b6040516102b4919061244b565b60405180910390f35b6102d760048036038101906102d29190612466565b611964565b005b600282805160208101820180518482526020830160208501208183528095505050505050818154811061030b57600080fd5b906000526020600020016000915091505080546103279061250d565b80601f01602080910402602001604051908101604052809291908181526020018280546103539061250d565b80156103a05780601f10610375576101008083540402835291602001916103a0565b820191906000526020600020905b81548152906001019060200180831161038357829003601f168201915b505050505081565b80600073ffffffffffffffffffffffffffffffffffffffff166001826040516103d1919061257a565b908152602001604051809103902060020160009054906101000a900473ffffffffffffffffffffffffffffffffffffffff1673ffffffffffffffffffffffffffffffffffffffff1603610459576040517f08c379a0000000000000000000000000000000000000000000000000000000008152600401610450906125dd565b60405180910390fd5b6001808360405161046a919061257a565b908152602001604051809103902060040160006101000a81548160ff0219169083151502179055505050565b60038280516020810182018051848252602083016020850120818352809550505050505081815481106104c857600080fd5b906000526020600020016000915091509054906101000a900473ffffffffffffffffffffffffffffffffffffffff1681565b606060008060008085600073ffffffffffffffffffffffffffffffffffffffff1660018260405161052b919061257a565b908152602001604051809103902060020160009054906101000a900473ffffffffffffffffffffffffffffffffffffffff1673ffffffffffffffffffffffffffffffffffffffff16036105b3576040517f08c379a00000000000000000000000000000000000000000000000000000000081526004016105aa906125dd565b60405180910390fd5b60006001886040516105c5919061257a565b90815260200160405180910390206040518060c00160405290816000820180546105ee9061250d565b80601f016020809104026020016040519081016040528092919081815260200182805461061a9061250d565b80156106675780601f1061063c57610100808354040283529160200191610667565b820191906000526020600020905b81548152906001019060200180831161064a57829003601f168201915b505050505081526020016001820180546106809061250d565b80601f01602080910402602001604051908101604052809291908181526020018280546106ac9061250d565b80156106f95780601f106106ce576101008083540402835291602001916106f9565b820191906000526020600020905b8154815290600101906020018083116106dc57829003601f168201915b505050505081526020016002820160009054906101000a900473ffffffffffffffffffffffffffffffffffffffff1673ffffffffffffffffffffffffffffffffffffffff1673ffffffffffffffffffffffffffffffffffffffff168152602001600382018054806020026020016040519081016040528092919081815260200182805480156107dd57602002820191906000526020600020905b8160009054906101000a900473ffffffffffffffffffffffffffffffffffffffff1673ffffffffffffffffffffffffffffffffffffffff1681526020019060010190808311610793575b505050505081526020016004820160009054906101000a900460ff161515151581526020016004820160019054906101000a900460ff16151515158152505090506000808260200151604051610833919061257a565b90815260200160405180910390206040518060c001604052908160008201805461085c9061250d565b80601f01602080910402602001604051908101604052809291908181526020018280546108889061250d565b80156108d55780601f106108aa576101008083540402835291602001916108d5565b820191906000526020600020905b8154815290600101906020018083116108b857829003601f168201915b505050505081526020016001820160009054906101000a900460ff16151515158152602001600282015481526020016003820160009054906101000a900473ffffffffffffffffffffffffffffffffffffffff1673ffffffffffffffffffffffffffffffffffffffff1673ffffffffffffffffffffffffffffffffffffffff168152602001600482015481526020016005820154815250509050816020015182604001518360800151836020015184604001519750975097509750975050505091939590929450565b80600073ffffffffffffffffffffffffffffffffffffffff166001826040516109c7919061257a565b908152602001604051809103902060020160009054906101000a900473ffffffffffffffffffffffffffffffffffffffff1673ffffffffffffffffffffffffffffffffffffffff1603610a4f576040517f08c379a0000000000000000000000000000000000000000000000000000000008152600401610a46906125dd565b60405180910390fd5b813373ffffffffffffffffffffffffffffffffffffffff16600182604051610a77919061257a565b908152602001604051809103902060020160009054906101000a900473ffffffffffffffffffffffffffffffffffffffff1673ffffffffffffffffffffffffffffffffffffffff1614610aff576040517f08c379a0000000000000000000000000000000000000000000000000000000008152600401610af690612649565b60405180910390fd5b6000600184604051610b11919061257a565b908152602001604051809103902060040160006101000a81548160ff021916908315150217905550610beb600184604051610b4c919061257a565b90815260200160405180910390206001018054610b689061250d565b80601f0160208091040260200160405190810160405280929190818152602001828054610b949061250d565b8015610be15780601f10610bb657610100808354040283529160200191610be1565b820191906000526020600020905b815481529060010190602001808311610bc457829003601f168201915b5050505050610d4e565b505050565b606081600073ffffffffffffffffffffffffffffffffffffffff16600182604051610c1b919061257a565b908152602001604051809103902060020160009054906101000a900473ffffffffffffffffffffffffffffffffffffffff1673ffffffffffffffffffffffffffffffffffffffff1603610ca3576040517f08c379a0000000000000000000000000000000000000000000000000000000008152600401610c9a906125dd565b60405180910390fd5b600383604051610cb3919061257a565b9081526020016040518091039020805480602002602001604051908101604052809291908181526020018280548015610d4157602002820191906000526020600020905b8160009054906101000a900473ffffffffffffffffffffffffffffffffffffffff1673ffffffffffffffffffffffffffffffffffffffff1681526020019060010190808311610cf7575b5050505050915050919050565b80600073ffffffffffffffffffffffffffffffffffffffff16600082604051610d77919061257a565b908152602001604051809103902060030160009054906101000a900473ffffffffffffffffffffffffffffffffffffffff1673ffffffffffffffffffffffffffffffffffffffff1603610dff576040517f08c379a0000000000000000000000000000000000000000000000000000000008152600401610df6906126b5565b60405180910390fd5b6001600083604051610e11919061257a565b908152602001604051809103902060010160006101000a81548160ff0219169083151502179055507f2782439fb34c673a7128d60c56de0ec1cf672ba71d7982612b566654722bc9c082604051610e689190612039565b60405180910390a160005b600283604051610e83919061257a565b908152602001604051809103902080549050811015610fb1576000600284604051610eae919061257a565b90815260200160405180910390208281548110610ece57610ecd6126d5565b5b906000526020600020018054610ee39061250d565b80601f0160208091040260200160405190810160405280929190818152602001828054610f0f9061250d565b8015610f5c5780601f10610f3157610100808354040283529160200191610f5c565b820191906000526020600020905b815481529060010190602001808311610f3f57829003601f168201915b505050505090506000600182604051610f75919061257a565b908152602001604051809103902060040160006101000a81548160ff021916908315150217905550508080610fa990612733565b915050610e73565b505050565b600081805160208101820180518482526020830160208501208183528095505050505050600091509050806000018054610fef9061250d565b80601f016020809104026020016040519081016040528092919081815260200182805461101b9061250d565b80156110685780601f1061103d57610100808354040283529160200191611068565b820191906000526020600020905b81548152906001019060200180831161104b57829003601f168201915b5050505050908060010160009054906101000a900460ff16908060020154908060030160009054906101000a900473ffffffffffffffffffffffffffffffffffffffff16908060040154908060050154905086565b600073ffffffffffffffffffffffffffffffffffffffff166000856040516110e5919061257a565b908152602001604051809103902060030160009054906101000a900473ffffffffffffffffffffffffffffffffffffffff1673ffffffffffffffffffffffffffffffffffffffff161461116d576040517f08c379a0000000000000000000000000000000000000000000000000000000008152600401611164906127c7565b60405180910390fd5b6040518060c001604052808581526020016000151581526020018481526020013373ffffffffffffffffffffffffffffffffffffffff168152602001838152602001828152506000856040516111c3919061257a565b908152602001604051809103902060008201518160000190816111e69190612993565b5060208201518160010160006101000a81548160ff0219169083151502179055506040820151816002015560608201518160030160006101000a81548173ffffffffffffffffffffffffffffffffffffffff021916908373ffffffffffffffffffffffffffffffffffffffff1602179055506080820151816004015560a082015181600501559050503373ffffffffffffffffffffffffffffffffffffffff167f30158d9cc309823571c26af1941cae20ea4cb3c58098610e77db88612e788df185856040516112b7929190612a65565b60405180910390a250505050565b823373ffffffffffffffffffffffffffffffffffffffff166001826040516112ed919061257a565b908152602001604051809103902060020160009054906101000a900473ffffffffffffffffffffffffffffffffffffffff1673ffffffffffffffffffffffffffffffffffffffff1614611375576040517f08c379a000000000000000000000000000000000000000000000000000000000815260040161136c90612649565b60405180910390fd5b6000600185604051611387919061257a565b90815260200160405180910390209050600080826001016040516113ab9190612b18565b90815260200160405180910390206040518060c00160405290816000820180546113d49061250d565b80601f01602080910402602001604051908101604052809291908181526020018280546114009061250d565b801561144d5780601f106114225761010080835404028352916020019161144d565b820191906000526020600020905b81548152906001019060200180831161143057829003601f168201915b505050505081526020016001820160009054906101000a900460ff16151515158152602001600282015481526020016003820160009054906101000a900473ffffffffffffffffffffffffffffffffffffffff1673ffffffffffffffffffffffffffffffffffffffff1673ffffffffffffffffffffffffffffffffffffffff16815260200160048201548152602001600582015481525050905083816040015114611535577f19125b12f9152fb1dbc961776766cf947575362cabee477ec34eda0572f3c3c78260010185604051611526929190612bb3565b60405180910390a150506116d1565b816003018260020160009054906101000a900473ffffffffffffffffffffffffffffffffffffffff169080600181540180825580915050600190039060005260206000200160009091909190916101000a81548173ffffffffffffffffffffffffffffffffffffffff021916908373ffffffffffffffffffffffffffffffffffffffff160217905550848260020160006101000a81548173ffffffffffffffffffffffffffffffffffffffff021916908373ffffffffffffffffffffffffffffffffffffffff160217905550600386604051611611919061257a565b9081526020016040518091039020859080600181540180825580915050600190039060005260206000200160009091909190916101000a81548173ffffffffffffffffffffffffffffffffffffffff021916908373ffffffffffffffffffffffffffffffffffffffff1602179055508473ffffffffffffffffffffffffffffffffffffffff167f3c9ab066ece03aac28323e5fced931adb5f619c054a18427eb3b86d3a902f048876040516116c69190612039565b60405180910390a250505b50505050565b6001818051602081018201805184825260208301602085012081835280955050505050506000915090508060000180546117109061250d565b80601f016020809104026020016040519081016040528092919081815260200182805461173c9061250d565b80156117895780601f1061175e57610100808354040283529160200191611789565b820191906000526020600020905b81548152906001019060200180831161176c57829003601f168201915b50505050509080600101805461179e9061250d565b80601f01602080910402602001604051908101604052809291908181526020018280546117ca9061250d565b80156118175780601f106117ec57610100808354040283529160200191611817565b820191906000526020600020905b8154815290600101906020018083116117fa57829003601f168201915b5050505050908060020160009054906101000a900473ffffffffffffffffffffffffffffffffffffffff16908060040160009054906101000a900460ff16908060040160019054906101000a900460ff16905085565b60008073ffffffffffffffffffffffffffffffffffffffff16600183604051611896919061257a565b908152602001604051809103902060020160009054906101000a900473ffffffffffffffffffffffffffffffffffffffff1673ffffffffffffffffffffffffffffffffffffffff16036118ec576000905061195f565b3373ffffffffffffffffffffffffffffffffffffffff16600183604051611913919061257a565b908152602001604051809103902060020160009054906101000a900473ffffffffffffffffffffffffffffffffffffffff1673ffffffffffffffffffffffffffffffffffffffff161490505b919050565b80600073ffffffffffffffffffffffffffffffffffffffff1660008260405161198d919061257a565b908152602001604051809103902060030160009054906101000a900473ffffffffffffffffffffffffffffffffffffffff1673ffffffffffffffffffffffffffffffffffffffff1603611a15576040517f08c379a0000000000000000000000000000000000000000000000000000000008152600401611a0c906126b5565b60405180910390fd5b600073ffffffffffffffffffffffffffffffffffffffff16600184604051611a3d919061257a565b908152602001604051809103902060020160009054906101000a900473ffffffffffffffffffffffffffffffffffffffff1673ffffffffffffffffffffffffffffffffffffffff1614611ac5576040517f08c379a0000000000000000000000000000000000000000000000000000000008152600401611abc90612c2f565b60405180910390fd5b60606040518060c001604052808581526020018481526020013373ffffffffffffffffffffffffffffffffffffffff16815260200182815260200160001515815260200160001515815250600185604051611b20919061257a565b90815260200160405180910390206000820151816000019081611b439190612993565b506020820151816001019081611b599190612993565b5060408201518160020160006101000a81548173ffffffffffffffffffffffffffffffffffffffff021916908373ffffffffffffffffffffffffffffffffffffffff1602179055506060820151816003019080519060200190611bbd929190611d27565b5060808201518160040160006101000a81548160ff02191690831515021790555060a08201518160040160016101000a81548160ff021916908315150217905550905050600283604051611c11919061257a565b908152602001604051809103902084908060018154018082558091505060019003906000526020600020016000909190919091509081611c519190612993565b50600384604051611c62919061257a565b9081526020016040518091039020339080600181540180825580915050600190039060005260206000200160009091909190916101000a81548173ffffffffffffffffffffffffffffffffffffffff021916908373ffffffffffffffffffffffffffffffffffffffff1602179055503373ffffffffffffffffffffffffffffffffffffffff167f450d722597fd8c8a8107abc6fe0f34f41e0feca7647c7648db895adb2967cf168585604051611d19929190612c4f565b60405180910390a250505050565b828054828255906000526020600020908101928215611da0579160200282015b82811115611d9f5782518260006101000a81548173ffffffffffffffffffffffffffffffffffffffff021916908373ffffffffffffffffffffffffffffffffffffffff16021790555091602001919060010190611d47565b5b509050611dad9190611db1565b5090565b5b80821115611dca576000816000905550600101611db2565b5090565b6000604051905090565b600080fd5b600080fd5b600080fd5b600080fd5b6000601f19601f8301169050919050565b7f4e487b7100000000000000000000000000000000000000000000000000000000600052604160045260246000fd5b611e3582611dec565b810181811067ffffffffffffffff82111715611e5457611e53611dfd565b5b80604052505050565b6000611e67611dce565b9050611e738282611e2c565b919050565b600067ffffffffffffffff821115611e9357611e92611dfd565b5b611e9c82611dec565b9050602081019050919050565b82818337600083830152505050565b6000611ecb611ec684611e78565b611e5d565b905082815260208101848484011115611ee757611ee6611de7565b5b611ef2848285611ea9565b509392505050565b600082601f830112611f0f57611f0e611de2565b5b8135611f1f848260208601611eb8565b91505092915050565b6000819050919050565b611f3b81611f28565b8114611f4657600080fd5b50565b600081359050611f5881611f32565b92915050565b60008060408385031215611f7557611f74611dd8565b5b600083013567ffffffffffffffff811115611f9357611f92611ddd565b5b611f9f85828601611efa565b9250506020611fb085828601611f49565b9150509250929050565b600081519050919050565b600082825260208201905092915050565b60005b83811015611ff4578082015181840152602081019050611fd9565b60008484015250505050565b600061200b82611fba565b6120158185611fc5565b9350612025818560208601611fd6565b61202e81611dec565b840191505092915050565b600060208201905081810360008301526120538184612000565b905092915050565b60006020828403121561207157612070611dd8565b5b600082013567ffffffffffffffff81111561208f5761208e611ddd565b5b61209b84828501611efa565b91505092915050565b600073ffffffffffffffffffffffffffffffffffffffff82169050919050565b60006120cf826120a4565b9050919050565b6120df816120c4565b82525050565b60006020820190506120fa60008301846120d6565b92915050565b60008115159050919050565b61211581612100565b82525050565b61212481611f28565b82525050565b600060a08201905081810360008301526121448188612000565b905061215360208301876120d6565b612160604083018661210c565b61216d606083018561210c565b61217a608083018461211b565b9695505050505050565b600081519050919050565b600082825260208201905092915050565b6000819050602082019050919050565b6121b9816120c4565b82525050565b60006121cb83836121b0565b60208301905092915050565b6000602082019050919050565b60006121ef82612184565b6121f9818561218f565b9350612204836121a0565b8060005b8381101561223557815161221c88826121bf565b9750612227836121d7565b925050600181019050612208565b5085935050505092915050565b6000602082019050818103600083015261225c81846121e4565b905092915050565b600060c082019050818103600083015261227e8189612000565b905061228d602083018861210c565b61229a604083018761211b565b6122a760608301866120d6565b6122b4608083018561211b565b6122c160a083018461211b565b979650505050505050565b600080600080608085870312156122e6576122e5611dd8565b5b600085013567ffffffffffffffff81111561230457612303611ddd565b5b61231087828801611efa565b945050602061232187828801611f49565b935050604061233287828801611f49565b925050606061234387828801611f49565b91505092959194509250565b612358816120c4565b811461236357600080fd5b50565b6000813590506123758161234f565b92915050565b60008060006060848603121561239457612393611dd8565b5b600084013567ffffffffffffffff8111156123b2576123b1611ddd565b5b6123be86828701611efa565b93505060206123cf86828701612366565b92505060406123e086828701611f49565b9150509250925092565b600060a08201905081810360008301526124048188612000565b905081810360208301526124188187612000565b905061242760408301866120d6565b612434606083018561210c565b612441608083018461210c565b9695505050505050565b6000602082019050612460600083018461210c565b92915050565b6000806040838503121561247d5761247c611dd8565b5b600083013567ffffffffffffffff81111561249b5761249a611ddd565b5b6124a785828601611efa565b925050602083013567ffffffffffffffff8111156124c8576124c7611ddd565b5b6124d485828601611efa565b9150509250929050565b7f4e487b7100000000000000000000000000000000000000000000000000000000600052602260045260246000fd5b6000600282049050600182168061252557607f821691505b602082108103612538576125376124de565b5b50919050565b600081905092915050565b600061255482611fba565b61255e818561253e565b935061256e818560208601611fd6565b80840191505092915050565b60006125868284612549565b915081905092915050565b7f4472756720646f6573206e6f7420657869737400000000000000000000000000600082015250565b60006125c7601383611fc5565b91506125d282612591565b602082019050919050565b600060208201905081810360008301526125f6816125ba565b9050919050565b7f4e6f74207468652063757272656e74206f776e65720000000000000000000000600082015250565b6000612633601583611fc5565b915061263e826125fd565b602082019050919050565b6000602082019050818103600083015261266281612626565b9050919050565b7f426174636820646f6573206e6f74206578697374000000000000000000000000600082015250565b600061269f601483611fc5565b91506126aa82612669565b602082019050919050565b600060208201905081810360008301526126ce81612692565b9050919050565b7f4e487b7100000000000000000000000000000000000000000000000000000000600052603260045260246000fd5b7f4e487b7100000000000000000000000000000000000000000000000000000000600052601160045260246000fd5b600061273e82611f28565b91507fffffffffffffffffffffffffffffffffffffffffffffffffffffffffffffffff82036127705761276f612704565b5b600182019050919050565b7f426174636820616c726561647920657869737473000000000000000000000000600082015250565b60006127b1601483611fc5565b91506127bc8261277b565b602082019050919050565b600060208201905081810360008301526127e0816127a4565b9050919050565b60008190508160005260206000209050919050565b60006020601f8301049050919050565b600082821b905092915050565b6000600883026128497fffffffffffffffffffffffffffffffffffffffffffffffffffffffffffffffff8261280c565b612853868361280c565b95508019841693508086168417925050509392505050565b6000819050919050565b600061289061288b61288684611f28565b61286b565b611f28565b9050919050565b6000819050919050565b6128aa83612875565b6128be6128b682612897565b848454612819565b825550505050565b600090565b6128d36128c6565b6128de8184846128a1565b505050565b5b81811015612902576128f76000826128cb565b6001810190506128e4565b5050565b601f82111561294757612918816127e7565b612921846127fc565b81016020851015612930578190505b61294461293c856127fc565b8301826128e3565b50505b505050565b600082821c905092915050565b600061296a6000198460080261294c565b1980831691505092915050565b60006129838383612959565b9150826002028217905092915050565b61299c82611fba565b67ffffffffffffffff8111156129b5576129b4611dfd565b5b6129bf825461250d565b6129ca828285612906565b600060209050601f8311600181146129fd57600084156129eb578287015190505b6129f58582612977565b865550612a5d565b601f198416612a0b866127e7565b60005b82811015612a3357848901518255600182019150602085019450602081019050612a0e565b86831015612a505784890151612a4c601f891682612959565b8355505b6001600288020188555050505b505050505050565b60006040820190508181036000830152612a7f8185612000565b9050612a8e602083018461211b565b9392505050565b60008154612aa28161250d565b612aac818661253e565b94506001821660008114612ac75760018114612adc57612b0f565b60ff1983168652811515820286019350612b0f565b612ae5856127e7565b60005b83811015612b0757815481890152600182019150602081019050612ae8565b838801955050505b50505092915050565b6000612b248284612a95565b915081905092915050565b60008154612b3c8161250d565b612b468186611fc5565b94506001821660008114612b615760018114612b7757612baa565b60ff198316865281151560200286019350612baa565b612b80856127e7565b60005b83811015612ba257815481890152600182019150602081019050612b83565b808801955050505b50505092915050565b60006040820190508181036000830152612bcd8185612b2f565b9050612bdc602083018461211b565b9392505050565b7f4472756720616c72656164792065786973747300000000000000000000000000600082015250565b6000612c19601383611fc5565b9150612c2482612be3565b602082019050919050565b60006020820190508181036000830152612c4881612c0c565b9050919050565b60006040820190508181036000830152612c698185612000565b90508181036020830152612c7d8184612000565b9050939250505056fea264697066735822122043daa1392be4d7935742ffc79bb47b2a354e78a2f129dd4a9245b1a8c12b673964736f6c63430008140033",
  "linkReferences": {},
  "deployedLinkReferences": {}
}