{
  "_format": "hh-sol-artifact-1",
  "contractName": "DrugTracking",
  "sourceName": "contracts/DrugTracking.sol",
  "abi": [
    {
      "anonymous": false,
      "inputs": [
        {
          "indexed": false,
          "internalType": "string",
          "name": "batchId",
          "type": "string"
        },
        {
          "indexed": true,
          "internalType": "address",
          "name": "manufacturer",
          "type": "address"
        },
        {
          "indexed": false,
          "internalType": "uint256",
          "name": "supplyNumber",
          "type": "uint256"
        }
      ],
      "name": "BatchCreated",
      "type": "event"
    },
    {
      "anonymous": false,
      "inputs": [
        {
          "indexed": false,
          "internalType": "string",
          "name": "batchId",
          "type": "string"
        }
      ],
      "name": "BatchMarkedFaulty",
      "type": "event"
    },
    {
      "anonymous": false,
      "inputs": [
        {
          "indexed": false,
          "internalType": "string",
          "name": "serialNumber",
          "type": "string"
        },
        {
          "indexed": false,
          "internalType": "string",
          "name": "batchId",
          "type": "string"
        },
        {
          "indexed": true,
          "internalType": "address",
          "name": "owner",
          "type": "address"
        }
      ],
      "name": "DrugCreated",
      "type": "event"
    },
    {
      "anonymous": false,
      "inputs": [
        {
          "indexed": false,
          "internalType": "string",
          "name": "serialNumber",
          "type": "string"
        },
        {
          "indexed": true,
          "internalType": "address",
          "name": "newOwner",
          "type": "address"
        }
      ],
      "name": "DrugTransferred",
      "type": "event"
    },
    {
      "anonymous": false,
      "inputs": [
        {
          "indexed": false,
          "internalType": "string",
          "name": "batchId",
          "type": "string"
        },
        {
          "indexed": false,
          "internalType": "uint256",
          "name": "incorrectSupplyNumber",
          "type": "uint256"
        }
      ],
      "name": "SupplyNumberAlert",
      "type": "event"
    },
    {
      "inputs": [
        {
          "internalType": "string",
          "name": "",
          "type": "string"
        },
        {
          "internalType": "uint256",
          "name": "",
          "type": "uint256"
        }
      ],
      "name": "batchToDrugs",
      "outputs": [
        {
          "internalType": "string",
          "name": "",
          "type": "string"
        }
      ],
      "stateMutability": "view",
      "type": "function"
    },
    {
      "inputs": [
        {
          "internalType": "string",
          "name": "",
          "type": "string"
        }
      ],
      "name": "batches",
      "outputs": [
        {
          "internalType": "string",
          "name": "batchId",
          "type": "string"
        },
        {
          "internalType": "bool",
          "name": "isFaulty",
          "type": "bool"
        },
        {
          "internalType": "uint256",
          "name": "supplyNumber",
          "type": "uint256"
        },
        {
          "internalType": "address",
          "name": "manufacturer",
          "type": "address"
        },
        {
          "internalType": "uint256",
          "name": "manufactureDate",
          "type": "uint256"
        },
        {
          "internalType": "uint256",
          "name": "expirationDate",
          "type": "uint256"
        }
      ],
      "stateMutability": "view",
      "type": "function"
    },
    {
      "inputs": [
        {
          "internalType": "string",
          "name": "_batchId",
          "type": "string"
        },
        {
          "internalType": "uint256",
          "name": "_supplyNumber",
          "type": "uint256"
        },
        {
          "internalType": "uint256",
          "name": "_manufactureDate",
          "type": "uint256"
        },
        {
          "internalType": "uint256",
          "name": "_expirationDate",
          "type": "uint256"
        }
      ],
      "name": "createBatch",
      "outputs": [],
      "stateMutability": "nonpayable",
      "type": "function"
    },
    {
      "inputs": [
        {
          "internalType": "string",
          "name": "_serialNumber",
          "type": "string"
        },
        {
          "internalType": "string",
          "name": "_batchId",
          "type": "string"
        }
      ],
      "name": "createDrug",
      "outputs": [],
      "stateMutability": "nonpayable",
      "type": "function"
    },
    {
      "inputs": [
        {
          "internalType": "string",
          "name": "",
          "type": "string"
        },
        {
          "internalType": "uint256",
          "name": "",
          "type": "uint256"
        }
      ],
      "name": "drugHistory",
      "outputs": [
        {
          "internalType": "address",
          "name": "",
          "type": "address"
        }
      ],
      "stateMutability": "view",
      "type": "function"
    },
    {
      "inputs": [
        {
          "internalType": "string",
          "name": "",
          "type": "string"
        }
      ],
      "name": "drugs",
      "outputs": [
        {
          "internalType": "string",
          "name": "serialNumber",
          "type": "string"
        },
        {
          "internalType": "string",
          "name": "batchId",
          "type": "string"
        },
        {
          "internalType": "address",
          "name": "currentOwner",
          "type": "address"
        },
        {
          "internalType": "bool",
          "name": "isVerified",
          "type": "bool"
        },
        {
          "internalType": "bool",
          "name": "isAddedbyUser",
          "type": "bool"
        }
      ],
      "stateMutability": "view",
      "type": "function"
    },
    {
      "inputs": [
        {
          "internalType": "string",
          "name": "_serialNumber",
          "type": "string"
        }
      ],
      "name": "getDrugDetails",
      "outputs": [
        {
          "internalType": "string",
          "name": "batchId",
          "type": "string"
        },
        {
          "internalType": "address",
          "name": "currentOwner",
          "type": "address"
        },
        {
          "internalType": "bool",
          "name": "isVerified",
          "type": "bool"
        },
        {
          "internalType": "bool",
          "name": "isBatchFaulty",
          "type": "bool"
        },
        {
          "internalType": "uint256",
          "name": "supplyNumber",
          "type": "uint256"
        }
      ],
      "stateMutability": "view",
      "type": "function"
    },
    {
      "inputs": [
        {
          "internalType": "string",
          "name": "_serialNumber",
          "type": "string"
        }
      ],
      "name": "getDrugHistory",
      "outputs": [
        {
          "internalType": "address[]",
          "name": "",
          "type": "address[]"
        }
      ],
      "stateMutability": "view",
      "type": "function"
    },
    {
      "inputs": [
        {
          "internalType": "string",
          "name": "_batchId",
          "type": "string"
        }
      ],
      "name": "markBatchFaulty",
      "outputs": [],
      "stateMutability": "nonpayable",
      "type": "function"
    },
    {
      "inputs": [
        {
          "internalType": "string",
          "name": "_serialNumber",
          "type": "string"
        }
      ],
      "name": "markDrugFaulty",
      "outputs": [],
      "stateMutability": "nonpayable",
      "type": "function"
    },
    {
      "inputs": [
        {
          "internalType": "string",
          "name": "_serialNumber",
          "type": "string"
        },
        {
          "internalType": "address",
          "name": "_newOwner",
          "type": "address"
        },
        {
          "internalType": "uint256",
          "name": "_supplyNumber",
          "type": "uint256"
        }
      ],
      "name": "transferDrug",
      "outputs": [],
      "stateMutability": "nonpayable",
      "type": "function"
    },
    {
      "inputs": [
        {
          "internalType": "string",
          "name": "_serialNumber",
          "type": "string"
        }
      ],
      "name": "verifyDrug",
      "outputs": [],
      "stateMutability": "nonpayable",
      "type": "function"
    }
  ],
  "bytecode": "0x608060405234801561001057600080fd5b50612b5f806100206000396000f3fe608060405234801561001057600080fd5b50600436106100b45760003560e01c80636dfefdab116100715780636dfefdab146101b55780637ef1446a146101d1578063a1c1743b14610206578063ad896f9714610222578063b009493d1461023e578063e40f874c14610272576100b4565b80631a197688146100b95780633b7b0a74146100e95780633f4ebcd114610105578063567e963614610135578063582548e314610169578063624926c514610185575b600080fd5b6100d360048036038101906100ce9190611e1c565b61028e565b6040516100e09190611ef7565b60405180910390f35b61010360048036038101906100fe9190611f19565b61035d565b005b61011f600480360381019061011a9190611e1c565b61044b565b60405161012c9190611fa3565b60405180910390f35b61014f600480360381019061014a9190611f19565b6104af565b604051610160959493929190611fe8565b60405180910390f35b610183600480360381019061017e9190611f19565b610953565b005b61019f600480360381019061019a9190611f19565b610ba5565b6040516101ac9190612100565b60405180910390f35b6101cf60048036038101906101ca9190611f19565b610d03565b005b6101eb60048036038101906101e69190611f19565b610f6b565b6040516101fd96959493929190612122565b60405180910390f35b610220600480360381019061021b919061218a565b611072565b005b61023c60048036038101906102379190612239565b61127a565b005b61025860048036038101906102539190611f19565b61168c565b6040516102699594939291906122a8565b60405180910390f35b61028c60048036038101906102879190612309565b611822565b005b60028280516020810182018051848252602083016020850120818352809550505050505081815481106102c057600080fd5b906000526020600020016000915091505080546102dc906123b0565b80601f0160208091040260200160405190810160405280929190818152602001828054610308906123b0565b80156103555780601f1061032a57610100808354040283529160200191610355565b820191906000526020600020905b81548152906001019060200180831161033857829003601f168201915b505050505081565b80600073ffffffffffffffffffffffffffffffffffffffff16600182604051610386919061241d565b908152602001604051809103902060020160009054906101000a900473ffffffffffffffffffffffffffffffffffffffff1673ffffffffffffffffffffffffffffffffffffffff160361040e576040517f08c379a000000000000000000000000000000000000000000000000000000000815260040161040590612480565b60405180910390fd5b6001808360405161041f919061241d565b908152602001604051809103902060040160006101000a81548160ff0219169083151502179055505050565b600382805160208101820180518482526020830160208501208183528095505050505050818154811061047d57600080fd5b906000526020600020016000915091509054906101000a900473ffffffffffffffffffffffffffffffffffffffff1681565b606060008060008085600073ffffffffffffffffffffffffffffffffffffffff166001826040516104e0919061241d565b908152602001604051809103902060020160009054906101000a900473ffffffffffffffffffffffffffffffffffffffff1673ffffffffffffffffffffffffffffffffffffffff1603610568576040517f08c379a000000000000000000000000000000000000000000000000000000000815260040161055f90612480565b60405180910390fd5b600060018860405161057a919061241d565b90815260200160405180910390206040518060c00160405290816000820180546105a3906123b0565b80601f01602080910402602001604051908101604052809291908181526020018280546105cf906123b0565b801561061c5780601f106105f15761010080835404028352916020019161061c565b820191906000526020600020905b8154815290600101906020018083116105ff57829003601f168201915b50505050508152602001600182018054610635906123b0565b80601f0160208091040260200160405190810160405280929190818152602001828054610661906123b0565b80156106ae5780601f10610683576101008083540402835291602001916106ae565b820191906000526020600020905b81548152906001019060200180831161069157829003601f168201915b505050505081526020016002820160009054906101000a900473ffffffffffffffffffffffffffffffffffffffff1673ffffffffffffffffffffffffffffffffffffffff1673ffffffffffffffffffffffffffffffffffffffff1681526020016003820180548060200260200160405190810160405280929190818152602001828054801561079257602002820191906000526020600020905b8160009054906101000a900473ffffffffffffffffffffffffffffffffffffffff1673ffffffffffffffffffffffffffffffffffffffff1681526020019060010190808311610748575b505050505081526020016004820160009054906101000a900460ff161515151581526020016004820160019054906101000a900460ff161515151581525050905060008082602001516040516107e8919061241d565b90815260200160405180910390206040518060c0016040529081600082018054610811906123b0565b80601f016020809104026020016040519081016040528092919081815260200182805461083d906123b0565b801561088a5780601f1061085f5761010080835404028352916020019161088a565b820191906000526020600020905b81548152906001019060200180831161086d57829003601f168201915b505050505081526020016001820160009054906101000a900460ff16151515158152602001600282015481526020016003820160009054906101000a900473ffffffffffffffffffffffffffffffffffffffff1673ffffffffffffffffffffffffffffffffffffffff1673ffffffffffffffffffffffffffffffffffffffff168152602001600482015481526020016005820154815250509050816020015182604001518360800151836020015184604001519750975097509750975050505091939590929450565b80600073ffffffffffffffffffffffffffffffffffffffff1660018260405161097c919061241d565b908152602001604051809103902060020160009054906101000a900473ffffffffffffffffffffffffffffffffffffffff1673ffffffffffffffffffffffffffffffffffffffff1603610a04576040517f08c379a00000000000000000000000000000000000000000000000000000000081526004016109fb90612480565b60405180910390fd5b813373ffffffffffffffffffffffffffffffffffffffff16600182604051610a2c919061241d565b908152602001604051809103902060020160009054906101000a900473ffffffffffffffffffffffffffffffffffffffff1673ffffffffffffffffffffffffffffffffffffffff1614610ab4576040517f08c379a0000000000000000000000000000000000000000000000000000000008152600401610aab906124ec565b60405180910390fd5b6000600184604051610ac6919061241d565b908152602001604051809103902060040160006101000a81548160ff021916908315150217905550610ba0600184604051610b01919061241d565b90815260200160405180910390206001018054610b1d906123b0565b80601f0160208091040260200160405190810160405280929190818152602001828054610b49906123b0565b8015610b965780601f10610b6b57610100808354040283529160200191610b96565b820191906000526020600020905b815481529060010190602001808311610b7957829003601f168201915b5050505050610d03565b505050565b606081600073ffffffffffffffffffffffffffffffffffffffff16600182604051610bd0919061241d565b908152602001604051809103902060020160009054906101000a900473ffffffffffffffffffffffffffffffffffffffff1673ffffffffffffffffffffffffffffffffffffffff1603610c58576040517f08c379a0000000000000000000000000000000000000000000000000000000008152600401610c4f90612480565b60405180910390fd5b600383604051610c68919061241d565b9081526020016040518091039020805480602002602001604051908101604052809291908181526020018280548015610cf657602002820191906000526020600020905b8160009054906101000a900473ffffffffffffffffffffffffffffffffffffffff1673ffffffffffffffffffffffffffffffffffffffff1681526020019060010190808311610cac575b5050505050915050919050565b80600073ffffffffffffffffffffffffffffffffffffffff16600082604051610d2c919061241d565b908152602001604051809103902060030160009054906101000a900473ffffffffffffffffffffffffffffffffffffffff1673ffffffffffffffffffffffffffffffffffffffff1603610db4576040517f08c379a0000000000000000000000000000000000000000000000000000000008152600401610dab90612558565b60405180910390fd5b6001600083604051610dc6919061241d565b908152602001604051809103902060010160006101000a81548160ff0219169083151502179055507f2782439fb34c673a7128d60c56de0ec1cf672ba71d7982612b566654722bc9c082604051610e1d9190611ef7565b60405180910390a160005b600283604051610e38919061241d565b908152602001604051809103902080549050811015610f66576000600284604051610e63919061241d565b90815260200160405180910390208281548110610e8357610e82612578565b5b906000526020600020018054610e98906123b0565b80601f0160208091040260200160405190810160405280929190818152602001828054610ec4906123b0565b8015610f115780601f10610ee657610100808354040283529160200191610f11565b820191906000526020600020905b815481529060010190602001808311610ef457829003601f168201915b505050505090506000600182604051610f2a919061241d565b908152602001604051809103902060040160006101000a81548160ff021916908315150217905550508080610f5e906125d6565b915050610e28565b505050565b600081805160208101820180518482526020830160208501208183528095505050505050600091509050806000018054610fa4906123b0565b80601f0160208091040260200160405190810160405280929190818152602001828054610fd0906123b0565b801561101d5780601f10610ff25761010080835404028352916020019161101d565b820191906000526020600020905b81548152906001019060200180831161100057829003601f168201915b5050505050908060010160009054906101000a900460ff16908060020154908060030160009054906101000a900473ffffffffffffffffffffffffffffffffffffffff16908060040154908060050154905086565b600073ffffffffffffffffffffffffffffffffffffffff1660008560405161109a919061241d565b908152602001604051809103902060030160009054906101000a900473ffffffffffffffffffffffffffffffffffffffff1673ffffffffffffffffffffffffffffffffffffffff1614611122576040517f08c379a00000000000000000000000000000000000000000000000000000000081526004016111199061266a565b60405180910390fd5b6040518060c001604052808581526020016000151581526020018481526020013373ffffffffffffffffffffffffffffffffffffffff16815260200183815260200182815250600085604051611178919061241d565b9081526020016040518091039020600082015181600001908161119b9190612836565b5060208201518160010160006101000a81548160ff0219169083151502179055506040820151816002015560608201518160030160006101000a81548173ffffffffffffffffffffffffffffffffffffffff021916908373ffffffffffffffffffffffffffffffffffffffff1602179055506080820151816004015560a082015181600501559050503373ffffffffffffffffffffffffffffffffffffffff167f30158d9cc309823571c26af1941cae20ea4cb3c58098610e77db88612e788df1858560405161126c929190612908565b60405180910390a250505050565b823373ffffffffffffffffffffffffffffffffffffffff166001826040516112a2919061241d565b908152602001604051809103902060020160009054906101000a900473ffffffffffffffffffffffffffffffffffffffff1673ffffffffffffffffffffffffffffffffffffffff161461132a576040517f08c379a0000000000000000000000000000000000000000000000000000000008152600401611321906124ec565b60405180910390fd5b600060018560405161133c919061241d565b908152602001604051809103902090506000808260010160405161136091906129bb565b90815260200160405180910390206040518060c0016040529081600082018054611389906123b0565b80601f01602080910402602001604051908101604052809291908181526020018280546113b5906123b0565b80156114025780601f106113d757610100808354040283529160200191611402565b820191906000526020600020905b8154815290600101906020018083116113e557829003601f168201915b505050505081526020016001820160009054906101000a900460ff16151515158152602001600282015481526020016003820160009054906101000a900473ffffffffffffffffffffffffffffffffffffffff1673ffffffffffffffffffffffffffffffffffffffff1673ffffffffffffffffffffffffffffffffffffffff168152602001600482015481526020016005820154815250509050838160400151146114ea577f19125b12f9152fb1dbc961776766cf947575362cabee477ec34eda0572f3c3c782600101856040516114db929190612a56565b60405180910390a15050611686565b816003018260020160009054906101000a900473ffffffffffffffffffffffffffffffffffffffff169080600181540180825580915050600190039060005260206000200160009091909190916101000a81548173ffffffffffffffffffffffffffffffffffffffff021916908373ffffffffffffffffffffffffffffffffffffffff160217905550848260020160006101000a81548173ffffffffffffffffffffffffffffffffffffffff021916908373ffffffffffffffffffffffffffffffffffffffff1602179055506003866040516115c6919061241d565b9081526020016040518091039020859080600181540180825580915050600190039060005260206000200160009091909190916101000a81548173ffffffffffffffffffffffffffffffffffffffff021916908373ffffffffffffffffffffffffffffffffffffffff1602179055508473ffffffffffffffffffffffffffffffffffffffff167f3c9ab066ece03aac28323e5fced931adb5f619c054a18427eb3b86d3a902f0488760405161167b9190611ef7565b60405180910390a250505b50505050565b6001818051602081018201805184825260208301602085012081835280955050505050506000915090508060000180546116c5906123b0565b80601f01602080910402602001604051908101604052809291908181526020018280546116f1906123b0565b801561173e5780601f106117135761010080835404028352916020019161173e565b820191906000526020600020905b81548152906001019060200180831161172157829003601f168201915b505050505090806001018054611753906123b0565b80601f016020809104026020016040519081016040528092919081815260200182805461177f906123b0565b80156117cc5780601f106117a1576101008083540402835291602001916117cc565b820191906000526020600020905b8154815290600101906020018083116117af57829003601f168201915b5050505050908060020160009054906101000a900473ffffffffffffffffffffffffffffffffffffffff16908060040160009054906101000a900460ff16908060040160019054906101000a900460ff16905085565b80600073ffffffffffffffffffffffffffffffffffffffff1660008260405161184b919061241d565b908152602001604051809103902060030160009054906101000a900473ffffffffffffffffffffffffffffffffffffffff1673ffffffffffffffffffffffffffffffffffffffff16036118d3576040517f08c379a00000000000000000000000000000000000000000000000000000000081526004016118ca90612558565b60405180910390fd5b600073ffffffffffffffffffffffffffffffffffffffff166001846040516118fb919061241d565b908152602001604051809103902060020160009054906101000a900473ffffffffffffffffffffffffffffffffffffffff1673ffffffffffffffffffffffffffffffffffffffff1614611983576040517f08c379a000000000000000000000000000000000000000000000000000000000815260040161197a90612ad2565b60405180910390fd5b60606040518060c001604052808581526020018481526020013373ffffffffffffffffffffffffffffffffffffffff168152602001828152602001600015158152602001600015158152506001856040516119de919061241d565b90815260200160405180910390206000820151816000019081611a019190612836565b506020820151816001019081611a179190612836565b5060408201518160020160006101000a81548173ffffffffffffffffffffffffffffffffffffffff021916908373ffffffffffffffffffffffffffffffffffffffff1602179055506060820151816003019080519060200190611a7b929190611be5565b5060808201518160040160006101000a81548160ff02191690831515021790555060a08201518160040160016101000a81548160ff021916908315150217905550905050600283604051611acf919061241d565b908152602001604051809103902084908060018154018082558091505060019003906000526020600020016000909190919091509081611b0f9190612836565b50600384604051611b20919061241d565b9081526020016040518091039020339080600181540180825580915050600190039060005260206000200160009091909190916101000a81548173ffffffffffffffffffffffffffffffffffffffff021916908373ffffffffffffffffffffffffffffffffffffffff1602179055503373ffffffffffffffffffffffffffffffffffffffff167f450d722597fd8c8a8107abc6fe0f34f41e0feca7647c7648db895adb2967cf168585604051611bd7929190612af2565b60405180910390a250505050565b828054828255906000526020600020908101928215611c5e579160200282015b82811115611c5d5782518260006101000a81548173ffffffffffffffffffffffffffffffffffffffff021916908373ffffffffffffffffffffffffffffffffffffffff16021790555091602001919060010190611c05565b5b509050611c6b9190611c6f565b5090565b5b80821115611c88576000816000905550600101611c70565b5090565b6000604051905090565b600080fd5b600080fd5b600080fd5b600080fd5b6000601f19601f8301169050919050565b7f4e487b7100000000000000000000000000000000000000000000000000000000600052604160045260246000fd5b611cf382611caa565b810181811067ffffffffffffffff82111715611d1257611d11611cbb565b5b80604052505050565b6000611d25611c8c565b9050611d318282611cea565b919050565b600067ffffffffffffffff821115611d5157611d50611cbb565b5b611d5a82611caa565b9050602081019050919050565b82818337600083830152505050565b6000611d89611d8484611d36565b611d1b565b905082815260208101848484011115611da557611da4611ca5565b5b611db0848285611d67565b509392505050565b600082601f830112611dcd57611dcc611ca0565b5b8135611ddd848260208601611d76565b91505092915050565b6000819050919050565b611df981611de6565b8114611e0457600080fd5b50565b600081359050611e1681611df0565b92915050565b60008060408385031215611e3357611e32611c96565b5b600083013567ffffffffffffffff811115611e5157611e50611c9b565b5b611e5d85828601611db8565b9250506020611e6e85828601611e07565b9150509250929050565b600081519050919050565b600082825260208201905092915050565b60005b83811015611eb2578082015181840152602081019050611e97565b60008484015250505050565b6000611ec982611e78565b611ed38185611e83565b9350611ee3818560208601611e94565b611eec81611caa565b840191505092915050565b60006020820190508181036000830152611f118184611ebe565b905092915050565b600060208284031215611f2f57611f2e611c96565b5b600082013567ffffffffffffffff811115611f4d57611f4c611c9b565b5b611f5984828501611db8565b91505092915050565b600073ffffffffffffffffffffffffffffffffffffffff82169050919050565b6000611f8d82611f62565b9050919050565b611f9d81611f82565b82525050565b6000602082019050611fb86000830184611f94565b92915050565b60008115159050919050565b611fd381611fbe565b82525050565b611fe281611de6565b82525050565b600060a08201905081810360008301526120028188611ebe565b90506120116020830187611f94565b61201e6040830186611fca565b61202b6060830185611fca565b6120386080830184611fd9565b9695505050505050565b600081519050919050565b600082825260208201905092915050565b6000819050602082019050919050565b61207781611f82565b82525050565b6000612089838361206e565b60208301905092915050565b6000602082019050919050565b60006120ad82612042565b6120b7818561204d565b93506120c28361205e565b8060005b838110156120f35781516120da888261207d565b97506120e583612095565b9250506001810190506120c6565b5085935050505092915050565b6000602082019050818103600083015261211a81846120a2565b905092915050565b600060c082019050818103600083015261213c8189611ebe565b905061214b6020830188611fca565b6121586040830187611fd9565b6121656060830186611f94565b6121726080830185611fd9565b61217f60a0830184611fd9565b979650505050505050565b600080600080608085870312156121a4576121a3611c96565b5b600085013567ffffffffffffffff8111156121c2576121c1611c9b565b5b6121ce87828801611db8565b94505060206121df87828801611e07565b93505060406121f087828801611e07565b925050606061220187828801611e07565b91505092959194509250565b61221681611f82565b811461222157600080fd5b50565b6000813590506122338161220d565b92915050565b60008060006060848603121561225257612251611c96565b5b600084013567ffffffffffffffff8111156122705761226f611c9b565b5b61227c86828701611db8565b935050602061228d86828701612224565b925050604061229e86828701611e07565b9150509250925092565b600060a08201905081810360008301526122c28188611ebe565b905081810360208301526122d68187611ebe565b90506122e56040830186611f94565b6122f26060830185611fca565b6122ff6080830184611fca565b9695505050505050565b600080604083850312156123205761231f611c96565b5b600083013567ffffffffffffffff81111561233e5761233d611c9b565b5b61234a85828601611db8565b925050602083013567ffffffffffffffff81111561236b5761236a611c9b565b5b61237785828601611db8565b9150509250929050565b7f4e487b7100000000000000000000000000000000000000000000000000000000600052602260045260246000fd5b600060028204905060018216806123c857607f821691505b6020821081036123db576123da612381565b5b50919050565b600081905092915050565b60006123f782611e78565b61240181856123e1565b9350612411818560208601611e94565b80840191505092915050565b600061242982846123ec565b915081905092915050565b7f4472756720646f6573206e6f7420657869737400000000000000000000000000600082015250565b600061246a601383611e83565b915061247582612434565b602082019050919050565b600060208201905081810360008301526124998161245d565b9050919050565b7f4e6f74207468652063757272656e74206f776e65720000000000000000000000600082015250565b60006124d6601583611e83565b91506124e1826124a0565b602082019050919050565b60006020820190508181036000830152612505816124c9565b9050919050565b7f426174636820646f6573206e6f74206578697374000000000000000000000000600082015250565b6000612542601483611e83565b915061254d8261250c565b602082019050919050565b6000602082019050818103600083015261257181612535565b9050919050565b7f4e487b7100000000000000000000000000000000000000000000000000000000600052603260045260246000fd5b7f4e487b7100000000000000000000000000000000000000000000000000000000600052601160045260246000fd5b60006125e182611de6565b91507fffffffffffffffffffffffffffffffffffffffffffffffffffffffffffffffff8203612613576126126125a7565b5b600182019050919050565b7f426174636820616c726561647920657869737473000000000000000000000000600082015250565b6000612654601483611e83565b915061265f8261261e565b602082019050919050565b6000602082019050818103600083015261268381612647565b9050919050565b60008190508160005260206000209050919050565b60006020601f8301049050919050565b600082821b905092915050565b6000600883026126ec7fffffffffffffffffffffffffffffffffffffffffffffffffffffffffffffffff826126af565b6126f686836126af565b95508019841693508086168417925050509392505050565b6000819050919050565b600061273361272e61272984611de6565b61270e565b611de6565b9050919050565b6000819050919050565b61274d83612718565b6127616127598261273a565b8484546126bc565b825550505050565b600090565b612776612769565b612781818484612744565b505050565b5b818110156127a55761279a60008261276e565b600181019050612787565b5050565b601f8211156127ea576127bb8161268a565b6127c48461269f565b810160208510156127d3578190505b6127e76127df8561269f565b830182612786565b50505b505050565b600082821c905092915050565b600061280d600019846008026127ef565b1980831691505092915050565b600061282683836127fc565b9150826002028217905092915050565b61283f82611e78565b67ffffffffffffffff81111561285857612857611cbb565b5b61286282546123b0565b61286d8282856127a9565b600060209050601f8311600181146128a0576000841561288e578287015190505b612898858261281a565b865550612900565b601f1984166128ae8661268a565b60005b828110156128d6578489015182556001820191506020850194506020810190506128b1565b868310156128f357848901516128ef601f8916826127fc565b8355505b6001600288020188555050505b505050505050565b600060408201905081810360008301526129228185611ebe565b90506129316020830184611fd9565b9392505050565b60008154612945816123b0565b61294f81866123e1565b9450600182166000811461296a576001811461297f576129b2565b60ff19831686528115158202860193506129b2565b6129888561268a565b60005b838110156129aa5781548189015260018201915060208101905061298b565b838801955050505b50505092915050565b60006129c78284612938565b915081905092915050565b600081546129df816123b0565b6129e98186611e83565b94506001821660008114612a045760018114612a1a57612a4d565b60ff198316865281151560200286019350612a4d565b612a238561268a565b60005b83811015612a4557815481890152600182019150602081019050612a26565b808801955050505b50505092915050565b60006040820190508181036000830152612a7081856129d2565b9050612a7f6020830184611fd9565b9392505050565b7f4472756720616c72656164792065786973747300000000000000000000000000600082015250565b6000612abc601383611e83565b9150612ac782612a86565b602082019050919050565b60006020820190508181036000830152612aeb81612aaf565b9050919050565b60006040820190508181036000830152612b0c8185611ebe565b90508181036020830152612b208184611ebe565b9050939250505056fea2646970667358221220d6f68de4cca18bac119a022b6ef870feb3041d2ff22c27d403c60f8b408a890164736f6c63430008140033",
  "linkReferences": {},
  "deployedLinkReferences": {}
}